{
  "contractName": "Election",
  "abi": [
    {
      "inputs": [],
      "payable": false,
      "stateMutability": "nonpayable",
      "type": "constructor"
    },
    {
      "anonymous": false,
      "inputs": [],
      "name": "trigger_event",
      "type": "event"
    },
    {
      "constant": true,
      "inputs": [
        {
          "internalType": "address",
          "name": "",
          "type": "address"
        }
      ],
      "name": "addresses",
      "outputs": [
        {
          "internalType": "uint256",
          "name": "",
          "type": "uint256"
        }
      ],
      "payable": false,
      "stateMutability": "view",
      "type": "function"
    },
    {
      "constant": true,
      "inputs": [],
      "name": "campaign_count",
      "outputs": [
        {
          "internalType": "uint256",
          "name": "",
          "type": "uint256"
        }
      ],
      "payable": false,
      "stateMutability": "view",
      "type": "function"
    },
    {
      "constant": true,
      "inputs": [
        {
          "internalType": "uint256",
          "name": "",
          "type": "uint256"
        }
      ],
      "name": "campaigns",
      "outputs": [
        {
          "internalType": "uint256",
          "name": "id",
          "type": "uint256"
        },
        {
          "internalType": "string",
          "name": "description",
          "type": "string"
        },
        {
          "internalType": "uint256",
          "name": "c_id",
          "type": "uint256"
        },
        {
          "internalType": "uint256",
          "name": "E_id",
          "type": "uint256"
        },
        {
          "internalType": "string",
          "name": "name",
          "type": "string"
        }
      ],
      "payable": false,
      "stateMutability": "view",
      "type": "function"
    },
    {
      "constant": true,
      "inputs": [],
      "name": "candidate_count",
      "outputs": [
        {
          "internalType": "uint256",
          "name": "",
          "type": "uint256"
        }
      ],
      "payable": false,
      "stateMutability": "view",
      "type": "function"
    },
    {
      "constant": true,
      "inputs": [
        {
          "internalType": "uint256",
          "name": "",
          "type": "uint256"
        }
      ],
      "name": "candidates",
      "outputs": [
        {
          "internalType": "uint256",
          "name": "C_id",
          "type": "uint256"
        },
        {
          "internalType": "uint256",
          "name": "vote_count",
          "type": "uint256"
        },
        {
          "internalType": "string",
          "name": "C_name",
          "type": "string"
        },
        {
          "internalType": "uint256",
          "name": "E_id",
          "type": "uint256"
        },
        {
          "internalType": "string",
          "name": "C_info",
          "type": "string"
        },
        {
          "internalType": "bool",
          "name": "deleted",
          "type": "bool"
        }
      ],
      "payable": false,
      "stateMutability": "view",
      "type": "function"
    },
    {
      "constant": true,
      "inputs": [],
      "name": "election_count",
      "outputs": [
        {
          "internalType": "uint256",
          "name": "",
          "type": "uint256"
        }
      ],
      "payable": false,
      "stateMutability": "view",
      "type": "function"
    },
    {
      "constant": true,
      "inputs": [
        {
          "internalType": "uint256",
          "name": "",
          "type": "uint256"
        }
      ],
      "name": "elections",
      "outputs": [
        {
          "internalType": "uint256",
          "name": "E_id",
          "type": "uint256"
        },
        {
          "internalType": "string",
          "name": "E_name",
          "type": "string"
        },
        {
          "internalType": "uint256",
          "name": "time_cand_register_end",
          "type": "uint256"
        },
        {
          "internalType": "uint256",
          "name": "time_polling_starts",
          "type": "uint256"
        },
        {
          "internalType": "uint256",
          "name": "time_polling_ends",
          "type": "uint256"
        },
        {
          "internalType": "bool",
          "name": "deleted",
          "type": "bool"
        }
      ],
      "payable": false,
      "stateMutability": "view",
      "type": "function"
    },
    {
      "constant": true,
      "inputs": [],
      "name": "report_count",
      "outputs": [
        {
          "internalType": "uint256",
          "name": "",
          "type": "uint256"
        }
      ],
      "payable": false,
      "stateMutability": "view",
      "type": "function"
    },
    {
      "constant": true,
      "inputs": [
        {
          "internalType": "uint256",
          "name": "",
          "type": "uint256"
        }
      ],
      "name": "reports",
      "outputs": [
        {
          "internalType": "uint256",
          "name": "reportId",
          "type": "uint256"
        },
        {
          "internalType": "uint256",
          "name": "E_id",
          "type": "uint256"
        },
        {
          "internalType": "uint256",
          "name": "reported_user",
          "type": "uint256"
        },
        {
          "internalType": "string",
          "name": "reason",
          "type": "string"
        }
      ],
      "payable": false,
      "stateMutability": "view",
      "type": "function"
    },
    {
      "constant": true,
      "inputs": [],
      "name": "user_count",
      "outputs": [
        {
          "internalType": "uint256",
          "name": "",
          "type": "uint256"
        }
      ],
      "payable": false,
      "stateMutability": "view",
      "type": "function"
    },
    {
      "constant": true,
      "inputs": [
        {
          "internalType": "uint256",
          "name": "",
          "type": "uint256"
        }
      ],
      "name": "users",
      "outputs": [
        {
          "internalType": "uint256",
          "name": "id",
          "type": "uint256"
        },
        {
          "internalType": "address",
          "name": "add",
          "type": "address"
        },
        {
          "internalType": "string",
          "name": "name",
          "type": "string"
        },
        {
          "internalType": "string",
          "name": "email",
          "type": "string"
        },
        {
          "internalType": "int256",
          "name": "permissions",
          "type": "int256"
        },
        {
          "internalType": "uint256",
          "name": "cand_index",
          "type": "uint256"
        },
        {
          "internalType": "string",
          "name": "pwd",
          "type": "string"
        }
      ],
      "payable": false,
      "stateMutability": "view",
      "type": "function"
    },
    {
      "constant": true,
      "inputs": [],
      "name": "voter_list_count",
      "outputs": [
        {
          "internalType": "uint256",
          "name": "",
          "type": "uint256"
        }
      ],
      "payable": false,
      "stateMutability": "view",
      "type": "function"
    },
    {
      "constant": true,
      "inputs": [
        {
          "internalType": "uint256",
          "name": "",
          "type": "uint256"
        }
      ],
      "name": "voterlist",
      "outputs": [
        {
          "internalType": "uint256",
          "name": "id",
          "type": "uint256"
        },
        {
          "internalType": "uint256",
          "name": "E_id",
          "type": "uint256"
        },
        {
          "internalType": "bool",
          "name": "voted",
          "type": "bool"
        },
        {
          "internalType": "bool",
          "name": "reportedByUser",
          "type": "bool"
        },
        {
          "internalType": "bool",
          "name": "blacklisted_by_admin",
          "type": "bool"
        },
        {
          "internalType": "bool",
          "name": "deleted",
          "type": "bool"
        }
      ],
      "payable": false,
      "stateMutability": "view",
      "type": "function"
    },
    {
      "constant": false,
      "inputs": [
        {
          "internalType": "string",
          "name": "_E_name",
          "type": "string"
        },
        {
          "internalType": "uint256",
          "name": "_time_cand_register_end",
          "type": "uint256"
        },
        {
          "internalType": "uint256",
          "name": "_time_polling_starts",
          "type": "uint256"
        },
        {
          "internalType": "uint256",
          "name": "_time_polling_ends",
          "type": "uint256"
        }
      ],
      "name": "add_election",
      "outputs": [],
      "payable": false,
      "stateMutability": "nonpayable",
      "type": "function"
    },
    {
      "constant": false,
      "inputs": [
        {
          "internalType": "uint256",
          "name": "_E_id",
          "type": "uint256"
        },
        {
          "internalType": "string",
          "name": "_E_name",
          "type": "string"
        },
        {
          "internalType": "uint256",
          "name": "_time_cand_register_end",
          "type": "uint256"
        },
        {
          "internalType": "uint256",
          "name": "_time_polling_starts",
          "type": "uint256"
        },
        {
          "internalType": "uint256",
          "name": "_time_polling_ends",
          "type": "uint256"
        }
      ],
      "name": "edit_election",
      "outputs": [],
      "payable": false,
      "stateMutability": "nonpayable",
      "type": "function"
    },
    {
      "constant": false,
      "inputs": [
        {
          "internalType": "uint256",
          "name": "_reportedUser",
          "type": "uint256"
        },
        {
          "internalType": "uint256",
          "name": "_E_id",
          "type": "uint256"
        },
        {
          "internalType": "string",
          "name": "_reason",
          "type": "string"
        }
      ],
      "name": "report_by_user",
      "outputs": [],
      "payable": false,
      "stateMutability": "nonpayable",
      "type": "function"
    },
    {
      "constant": false,
      "inputs": [
        {
          "internalType": "uint256",
          "name": "_id",
          "type": "uint256"
        },
        {
          "internalType": "uint256",
          "name": "_E_id",
          "type": "uint256"
        }
      ],
      "name": "blacklist_by_admin",
      "outputs": [],
      "payable": false,
      "stateMutability": "nonpayable",
      "type": "function"
    },
    {
      "constant": false,
      "inputs": [
        {
          "internalType": "address",
          "name": "_add",
          "type": "address"
        },
        {
          "internalType": "string",
          "name": "_name",
          "type": "string"
        },
        {
          "internalType": "string",
          "name": "_email",
          "type": "string"
        },
        {
          "internalType": "string",
          "name": "_pwd",
          "type": "string"
        },
        {
          "internalType": "int256",
          "name": "_permissions",
          "type": "int256"
        }
      ],
      "name": "add_user",
      "outputs": [],
      "payable": false,
      "stateMutability": "nonpayable",
      "type": "function"
    },
    {
      "constant": false,
      "inputs": [
        {
          "internalType": "uint256",
          "name": "_C_id",
          "type": "uint256"
        },
        {
          "internalType": "string",
          "name": "_C_name",
          "type": "string"
        },
        {
          "internalType": "uint256",
          "name": "_E_id",
          "type": "uint256"
        },
        {
          "internalType": "string",
          "name": "_C_info",
          "type": "string"
        }
      ],
      "name": "add_candidate",
      "outputs": [],
      "payable": false,
      "stateMutability": "nonpayable",
      "type": "function"
    },
    {
      "constant": false,
      "inputs": [
        {
          "internalType": "uint256",
          "name": "_C_id",
          "type": "uint256"
        }
      ],
      "name": "candidate_approved_by_admin",
      "outputs": [],
      "payable": false,
      "stateMutability": "nonpayable",
      "type": "function"
    },
    {
      "constant": false,
      "inputs": [
        {
          "internalType": "uint256",
          "name": "_E_id",
          "type": "uint256"
        },
        {
          "internalType": "uint256",
          "name": "_id",
          "type": "uint256"
        }
      ],
      "name": "add_voter_by_admin",
      "outputs": [],
      "payable": false,
      "stateMutability": "nonpayable",
      "type": "function"
    },
    {
      "constant": false,
      "inputs": [
        {
          "internalType": "uint256",
          "name": "_id",
          "type": "uint256"
        },
        {
          "internalType": "uint256",
          "name": "_E_id",
          "type": "uint256"
        },
        {
          "internalType": "uint256",
          "name": "_type",
          "type": "uint256"
        }
      ],
      "name": "admin_delete",
      "outputs": [],
      "payable": false,
      "stateMutability": "nonpayable",
      "type": "function"
    },
    {
      "constant": false,
      "inputs": [
        {
          "internalType": "uint256",
          "name": "_C_id",
          "type": "uint256"
        },
        {
          "internalType": "uint256",
          "name": "_E_id",
          "type": "uint256"
        },
        {
          "internalType": "uint256",
          "name": "_id",
          "type": "uint256"
        }
      ],
      "name": "vote",
      "outputs": [],
      "payable": false,
      "stateMutability": "nonpayable",
      "type": "function"
    },
    {
      "constant": false,
      "inputs": [
        {
          "internalType": "string",
          "name": "_desc",
          "type": "string"
        },
        {
          "internalType": "uint256",
          "name": "_E_id",
          "type": "uint256"
        }
      ],
      "name": "uploadCampaign",
      "outputs": [],
      "payable": false,
      "stateMutability": "nonpayable",
      "type": "function"
    }
  ],
  "bytecode": "0x60806040526000600155600060085560006009556000600a556000600b556000600c556000600d556000600e553480156200003957600080fd5b506200010373cbad3fb515c349bfee52b12afcc75b90ce93d61f6040518060400160405280600581526020017f61646d696e0000000000000000000000000000000000000000000000000000008152506040518060400160405280601081526020017f61646d696e40636f65702e61632e696e000000000000000000000000000000008152506040518060400160405280600381526020017f313233000000000000000000000000000000000000000000000000000000000081525060026200010960201b60201c565b62000382565b600860008154809291906001019190505550600854600260006008548152602001908152602001600020600001819055508460026000600854815260200190815260200160002060010160006101000a81548173ffffffffffffffffffffffffffffffffffffffff021916908373ffffffffffffffffffffffffffffffffffffffff160217905550836002600060085481526020019081526020016000206002019080519060200190620001bf929190620002d3565b50826002600060085481526020019081526020016000206003019080519060200190620001ee929190620002d3565b50611388600260006008548152602001908152602001600020600501819055508060026000600854815260200190815260200160002060040181905550600854600360008773ffffffffffffffffffffffffffffffffffffffff1673ffffffffffffffffffffffffffffffffffffffff168152602001908152602001600020819055508160026000600854815260200190815260200160002060060190805190602001906200029f929190620002d3565b507f905bc739c814cac6887c5577b4717fcf16cc13c2709568044fb765a8c340172b60405160405180910390a15050505050565b828054600181600116156101000203166002900490600052602060002090601f016020900481019282601f106200031657805160ff191683800117855562000347565b8280016001018555821562000347579182015b828111156200034657825182559160200191906001019062000329565b5b5090506200035691906200035a565b5090565b6200037f91905b808211156200037b57600081600090555060010162000361565b5090565b90565b6132aa80620003926000396000f3fe608060405234801561001057600080fd5b50600436106101585760003560e01c80637361068c116100c3578063bb805f691161007c578063bb805f6914610c4b578063c2b4182914610c69578063c5f1ec2314610d38578063c942adf714610e1b578063ec4e8b0314610ed7578063ec853e2814610f9c57610158565b80637361068c146107d85780637b0a845b146107f657806382d38954146108385780638a6655d614610890578063a06db332146108d2578063ad7c74a914610a3857610158565b8063365b98b211610115578063365b98b2146104645780633ed29e6e1461062b5780634b1c4c291461065957806354d8d6d2146106775780635e6fef01146106ec5780636581f8e3146107ba57610158565b80630732583c1461015d5780631050a0321461017b578063141961bc146101b35780631ebdeebb146102db57806329aff520146103135780633477ee2e14610331575b600080fd5b610165611075565b6040518082815260200191505060405180910390f35b6101b16004803603604081101561019157600080fd5b81019080803590602001909291908035906020019092919050505061107b565b005b6101df600480360360208110156101c957600080fd5b8101908080359060200190929190505050611138565b604051808681526020018060200185815260200184815260200180602001838103835287818151815260200191508051906020019080838360005b8381101561023557808201518184015260208101905061021a565b50505050905090810190601f1680156102625780820380516001836020036101000a031916815260200191505b50838103825284818151815260200191508051906020019080838360005b8381101561029b578082015181840152602081019050610280565b50505050905090810190601f1680156102c85780820380516001836020036101000a031916815260200191505b5097505050505050505060405180910390f35b610311600480360360408110156102f157600080fd5b81019080803590602001909291908035906020019092919050505061129e565b005b61031b6113ad565b6040518082815260200191505060405180910390f35b61035d6004803603602081101561034757600080fd5b81019080803590602001909291905050506113b3565b60405180878152602001868152602001806020018581526020018060200184151515158152602001838103835287818151815260200191508051906020019080838360005b838110156103bd5780820151818401526020810190506103a2565b50505050905090810190601f1680156103ea5780820380516001836020036101000a031916815260200191505b50838103825285818151815260200191508051906020019080838360005b83811015610423578082015181840152602081019050610408565b50505050905090810190601f1680156104505780820380516001836020036101000a031916815260200191505b509850505050505050505060405180910390f35b6104906004803603602081101561047a57600080fd5b8101908080359060200190929190505050611539565b604051808881526020018773ffffffffffffffffffffffffffffffffffffffff1673ffffffffffffffffffffffffffffffffffffffff168152602001806020018060200186815260200185815260200180602001848103845289818151815260200191508051906020019080838360005b8381101561051c578082015181840152602081019050610501565b50505050905090810190601f1680156105495780820380516001836020036101000a031916815260200191505b50848103835288818151815260200191508051906020019080838360005b83811015610582578082015181840152602081019050610567565b50505050905090810190601f1680156105af5780820380516001836020036101000a031916815260200191505b50848103825285818151815260200191508051906020019080838360005b838110156105e85780820151818401526020810190506105cd565b50505050905090810190601f1680156106155780820380516001836020036101000a031916815260200191505b509a505050505050505050505060405180910390f35b6106576004803603602081101561064157600080fd5b8101908080359060200190929190505050611763565b005b610661611881565b6040518082815260200191505060405180910390f35b6106a36004803603602081101561068d57600080fd5b8101908080359060200190929190505050611887565b6040518087815260200186815260200185151515158152602001841515151581526020018315151515815260200182151515158152602001965050505050505060405180910390f35b6107186004803603602081101561070257600080fd5b81019080803590602001909291905050506118f7565b604051808781526020018060200186815260200185815260200184815260200183151515158152602001828103825287818151815260200191508051906020019080838360005b8381101561077a57808201518184015260208101905061075f565b50505050905090810190601f1680156107a75780820380516001836020036101000a031916815260200191505b5097505050505050505060405180910390f35b6107c26119d8565b6040518082815260200191505060405180910390f35b6107e06119de565b6040518082815260200191505060405180910390f35b6108366004803603606081101561080c57600080fd5b810190808035906020019092919080359060200190929190803590602001909291905050506119e4565b005b61087a6004803603602081101561084e57600080fd5b81019080803573ffffffffffffffffffffffffffffffffffffffff169060200190929190505050611dde565b6040518082815260200191505060405180910390f35b6108d0600480360360608110156108a657600080fd5b81019080803590602001909291908035906020019092919080359060200190929190505050611df6565b005b610a36600480360360808110156108e857600080fd5b81019080803590602001909291908035906020019064010000000081111561090f57600080fd5b82018360208201111561092157600080fd5b8035906020019184600183028401116401000000008311171561094357600080fd5b91908080601f016020809104026020016040519081016040528093929190818152602001838380828437600081840152601f19601f82011690508083019250505050505050919291929080359060200190929190803590602001906401000000008111156109b057600080fd5b8201836020820111156109c257600080fd5b803590602001918460018302840111640100000000831117156109e457600080fd5b91908080601f016020809104026020016040519081016040528093929190818152602001838380828437600081840152601f19601f820116905080830192505050505050509192919290505050612131565b005b610c49600480360360a0811015610a4e57600080fd5b81019080803573ffffffffffffffffffffffffffffffffffffffff16906020019092919080359060200190640100000000811115610a8b57600080fd5b820183602082011115610a9d57600080fd5b80359060200191846001830284011164010000000083111715610abf57600080fd5b91908080601f016020809104026020016040519081016040528093929190818152602001838380828437600081840152601f19601f82011690508083019250505050505050919291929080359060200190640100000000811115610b2257600080fd5b820183602082011115610b3457600080fd5b80359060200191846001830284011164010000000083111715610b5657600080fd5b91908080601f016020809104026020016040519081016040528093929190818152602001838380828437600081840152601f19601f82011690508083019250505050505050919291929080359060200190640100000000811115610bb957600080fd5b820183602082011115610bcb57600080fd5b80359060200191846001830284011164010000000083111715610bed57600080fd5b91908080601f016020809104026020016040519081016040528093929190818152602001838380828437600081840152601f19601f8201169050808301925050505050505091929192908035906020019092919050505061260c565b005b610c536127d0565b6040518082815260200191505060405180910390f35b610d3660048036036060811015610c7f57600080fd5b81019080803590602001909291908035906020019092919080359060200190640100000000811115610cb057600080fd5b820183602082011115610cc257600080fd5b80359060200191846001830284011164010000000083111715610ce457600080fd5b91908080601f016020809104026020016040519081016040528093929190818152602001838380828437600081840152601f19601f8201169050808301925050505050505091929192905050506127d6565b005b610e19600480360360a0811015610d4e57600080fd5b810190808035906020019092919080359060200190640100000000811115610d7557600080fd5b820183602082011115610d8757600080fd5b80359060200191846001830284011164010000000083111715610da957600080fd5b91908080601f016020809104026020016040519081016040528093929190818152602001838380828437600081840152601f19601f820116905080830192505050505050509192919290803590602001909291908035906020019092919080359060200190929190505050612a5a565b005b610e4760048036036020811015610e3157600080fd5b8101908080359060200190929190505050612b09565b6040518085815260200184815260200183815260200180602001828103825283818151815260200191508051906020019080838360005b83811015610e99578082015181840152602081019050610e7e565b50505050905090810190601f168015610ec65780820380516001836020036101000a031916815260200191505b509550505050505060405180910390f35b610f9a60048036036040811015610eed57600080fd5b8101908080359060200190640100000000811115610f0a57600080fd5b820183602082011115610f1c57600080fd5b80359060200191846001830284011164010000000083111715610f3e57600080fd5b91908080601f016020809104026020016040519081016040528093929190818152602001838380828437600081840152601f19601f82011690508083019250505050505050919291929080359060200190929190505050612bd1565b005b61107360048036036080811015610fb257600080fd5b8101908080359060200190640100000000811115610fcf57600080fd5b820183602082011115610fe157600080fd5b8035906020019184600183028401116401000000008311171561100357600080fd5b91908080601f016020809104026020016040519081016040528093929190818152602001838380828437600081840152601f19601f820116905080830192505050505050509192919290803590602001909291908035906020019092919080359060200190929190505050612e9e565b005b600a5481565b6000600190505b6009548111611107578260056000838152602001908152602001600020600001541480156110c55750816005600083815260200190815260200160002060010154145b156110fa5760016005600083815260200190815260200160002060020160026101000a81548160ff0219169083151502179055505b8080600101915050611082565b7f905bc739c814cac6887c5577b4717fcf16cc13c2709568044fb765a8c340172b60405160405180910390a1505050565b6000602052806000526040600020600091509050806000015490806001018054600181600116156101000203166002900480601f0160208091040260200160405190810160405280929190818152602001828054600181600116156101000203166002900480156111ea5780601f106111bf576101008083540402835291602001916111ea565b820191906000526020600020905b8154815290600101906020018083116111cd57829003601f168201915b505050505090806002015490806003015490806004018054600181600116156101000203166002900480601f0160208091040260200160405190810160405280929190818152602001828054600181600116156101000203166002900480156112945780601f1061126957610100808354040283529160200191611294565b820191906000526020600020905b81548152906001019060200180831161127757829003601f168201915b5050505050905085565b60096000815480929190600101919050555081600560006009548152602001908152602001600020600101819055508060056000600954815260200190815260200160002060000181905550600060056000600954815260200190815260200160002060020160006101000a81548160ff021916908315150217905550600060056000600954815260200190815260200160002060020160016101000a81548160ff021916908315150217905550600060056000600954815260200190815260200160002060020160026101000a81548160ff0219169083151502179055507f905bc739c814cac6887c5577b4717fcf16cc13c2709568044fb765a8c340172b60405160405180910390a15050565b600b5481565b600781815481106113c057fe5b9060005260206000209060060201600091509050806000015490806001015490806002018054600181600116156101000203166002900480601f0160208091040260200160405190810160405280929190818152602001828054600181600116156101000203166002900480156114785780601f1061144d57610100808354040283529160200191611478565b820191906000526020600020905b81548152906001019060200180831161145b57829003601f168201915b505050505090806003015490806004018054600181600116156101000203166002900480601f01602080910402602001604051908101604052809291908181526020018280546001816001161561010002031660029004801561151c5780601f106114f15761010080835404028352916020019161151c565b820191906000526020600020905b8154815290600101906020018083116114ff57829003601f168201915b5050505050908060050160009054906101000a900460ff16905086565b60026020528060005260406000206000915090508060000154908060010160009054906101000a900473ffffffffffffffffffffffffffffffffffffffff1690806002018054600181600116156101000203166002900480601f0160208091040260200160405190810160405280929190818152602001828054600181600116156101000203166002900480156116115780601f106115e657610100808354040283529160200191611611565b820191906000526020600020905b8154815290600101906020018083116115f457829003601f168201915b505050505090806003018054600181600116156101000203166002900480601f0160208091040260200160405190810160405280929190818152602001828054600181600116156101000203166002900480156116af5780601f10611684576101008083540402835291602001916116af565b820191906000526020600020905b81548152906001019060200180831161169257829003601f168201915b505050505090806004015490806005015490806006018054600181600116156101000203166002900480601f0160208091040260200160405190810160405280929190818152602001828054600181600116156101000203166002900480156117595780601f1061172e57610100808354040283529160200191611759565b820191906000526020600020905b81548152906001019060200180831161173c57829003601f168201915b5050505050905087565b60006002600083815260200190815260200160002060040154146117d2576040517f08c379a000000000000000000000000000000000000000000000000000000000815260040180806020018281038252603e8152602001806130ab603e913960400191505060405180910390fd5b6001600260008381526020019081526020016000206004018190555060008090505b600c5481101561185157816007828154811061180c57fe5b906000526020600020906006020160000154141561184457806002600084815260200190815260200160002060050181905550611851565b80806001019150506117f4565b7f905bc739c814cac6887c5577b4717fcf16cc13c2709568044fb765a8c340172b60405160405180910390a15050565b600c5481565b60056020528060005260406000206000915090508060000154908060010154908060020160009054906101000a900460ff16908060020160019054906101000a900460ff16908060020160029054906101000a900460ff16908060020160039054906101000a900460ff16905086565b6004602052806000526040600020600091509050806000015490806001018054600181600116156101000203166002900480601f0160208091040260200160405190810160405280929190818152602001828054600181600116156101000203166002900480156119a95780601f1061197e576101008083540402835291602001916119a9565b820191906000526020600020905b81548152906001019060200180831161198c57829003601f168201915b5050505050908060020154908060030154908060040154908060050160009054906101000a900460ff16905086565b60015481565b60095481565b6000808311611a5b576040517f08c379a000000000000000000000000000000000000000000000000000000000815260040180806020018281038252601f8152602001807f456c6574696f6e204944732061726520616c7761797320706f7369746976650081525060200191505060405180910390fd5b600a54831115611ab6576040517f08c379a000000000000000000000000000000000000000000000000000000000815260040180806020018281038252603b8152602001806130e9603b913960400191505060405180910390fd5b6000821415611af35760016004600085815260200190815260200160002060050160006101000a81548160ff021916908315150217905550611dac565b6001821415611c3f5760018411611b55576040517f08c379a00000000000000000000000000000000000000000000000000000000081526004018080602001828103825260278152602001806131ec6027913960400191505060405180910390fd5b600854841115611bb0576040517f08c379a00000000000000000000000000000000000000000000000000000000081526004018080602001828103825260328152602001806132136032913960400191505060405180910390fd5b600190505b6009548111611c3a57826005600083815260200190815260200160002060010154148015611bf85750836005600083815260200190815260200160002060000154145b15611c2d5760016005600083815260200190815260200160002060020160036101000a81548160ff0219169083151502179055505b8080600101915050611bb5565b611dab565b6002821415611daa5760018411611ca1576040517f08c379a00000000000000000000000000000000000000000000000000000000081526004018080602001828103825260278152602001806131ec6027913960400191505060405180910390fd5b600854841115611cfc576040517f08c379a00000000000000000000000000000000000000000000000000000000081526004018080602001828103825260328152602001806132136032913960400191505060405180910390fd5b6000600260008681526020019081526020016000206005015490506113888110611d71576040517f08c379a00000000000000000000000000000000000000000000000000000000081526004018080602001828103825260318152602001806132456031913960400191505060405180910390fd5b600160078281548110611d8057fe5b906000526020600020906006020160050160006101000a81548160ff021916908315150217905550505b5b5b7f905bc739c814cac6887c5577b4717fcf16cc13c2709568044fb765a8c340172b60405160405180910390a150505050565b60036020528060005260406000206000915090505481565b3373ffffffffffffffffffffffffffffffffffffffff16600260006001815260200190815260200160002060010160009054906101000a900473ffffffffffffffffffffffffffffffffffffffff1673ffffffffffffffffffffffffffffffffffffffff161415611ecf576040517f08c379a00000000000000000000000000000000000000000000000000000000081526004018080602001828103825260188152602001807f5468652055736572206973206e6f7420616e2041646d696e000000000000000081525060200191505060405180910390fd5b6001600260008581526020019081526020016000206004015414611f3e576040517f08c379a00000000000000000000000000000000000000000000000000000000081526004018080602001828103825260258152602001806131c76025913960400191505060405180910390fd5b6001600d819055505b600954600d541161207b578060056000600d54815260200190815260200160002060000154148015611f9057508160056000600d54815260200190815260200160002060010154145b156120645760056000600d54815260200190815260200160002060020160009054906101000a900460ff161561202e576040517f08c379a000000000000000000000000000000000000000000000000000000000815260040180806020018281038252601d8152602001807f54686520766f746572206861736e277420766f746564206265666f726500000081525060200191505060405180910390fd5b600160056000600d54815260200190815260200160002060020160006101000a81548160ff02191690831515021790555061207b565b600d60008154809291906001019190505550611f47565b6000600e819055505b600c54600e54101561210057826007600e54815481106120a057fe5b90600052602060002090600602016000015414156120e9576007600e54815481106120c757fe5b9060005260206000209060060201600101600081548092919060010191905055505b600e60008154809291906001019190505550612084565b7f905bc739c814cac6887c5577b4717fcf16cc13c2709568044fb765a8c340172b60405160405180910390a1505050565b6001600260008681526020019081526020016000206000015414156121be576040517f08c379a00000000000000000000000000000000000000000000000000000000081526004018080602001828103825260188152602001807f5468652055736572206973206e6f7420616e2041646d696e000000000000000081525060200191505060405180910390fd5b61138860026000868152602001908152602001600020600501541461222e576040517f08c379a000000000000000000000000000000000000000000000000000000000815260040180806020018281038252603e8152602001806130ab603e913960400191505060405180910390fd5b60008090506001600d819055505b600954600d54116122aa578460056000600d5481526020019081526020016000206000015414801561228557508260056000600d54815260200190815260200160002060010154145b1561229357600190506122aa565b600d6000815480929190600101919050555061223c565b60018114612303576040517f08c379a00000000000000000000000000000000000000000000000000000000081526004018080602001828103825260358152602001806131926035913960400191505060405180910390fd5b600090506001600d819055505b600954600d54116123b4578460056000600d5481526020019081526020016000206000015414801561235957508260056000600d54815260200190815260200160002060010154145b801561238f57506001151560056000600d54815260200190815260200160002060020160029054906101000a900460ff16151514155b1561239d57600190506123b4565b600d60008154809291906001019190505550612310565b6001811461240d576040517f08c379a00000000000000000000000000000000000000000000000000000000081526004018080602001828103825260308152602001806131626030913960400191505060405180910390fd5b600090506000600d819055505b600c54600d54101561249557846007600d548154811061243657fe5b9060005260206000209060060201600001541480156124745750826007600d548154811061246057fe5b906000526020600020906006020160030154145b1561247e57600190505b600d6000815480929190600101919050555061241a565b600081146124ee576040517f08c379a000000000000000000000000000000000000000000000000000000000815260040180806020018281038252603e815260200180613124603e913960400191505060405180910390fd5b60076040518060c001604052808781526020016000815260200186815260200185815260200184815260200160001515815250908060018154018082558091505090600182039060005260206000209060060201600090919290919091506000820151816000015560208201518160010155604082015181600201908051906020019061257c929190612f85565b506060820151816003015560808201518160040190805190602001906125a3929190612f85565b5060a08201518160050160006101000a81548160ff021916908315150217905550505050600c600081548092919060010191905055507f905bc739c814cac6887c5577b4717fcf16cc13c2709568044fb765a8c340172b60405160405180910390a15050505050565b600860008154809291906001019190505550600854600260006008548152602001908152602001600020600001819055508460026000600854815260200190815260200160002060010160006101000a81548173ffffffffffffffffffffffffffffffffffffffff021916908373ffffffffffffffffffffffffffffffffffffffff1602179055508360026000600854815260200190815260200160002060020190805190602001906126c0929190613005565b508260026000600854815260200190815260200160002060030190805190602001906126ed929190613005565b50611388600260006008548152602001908152602001600020600501819055508060026000600854815260200190815260200160002060040181905550600854600360008773ffffffffffffffffffffffffffffffffffffffff1673ffffffffffffffffffffffffffffffffffffffff1681526020019081526020016000208190555081600260006008548152602001908152602001600020600601908051906020019061279c929190613005565b507f905bc739c814cac6887c5577b4717fcf16cc13c2709568044fb765a8c340172b60405160405180910390a15050505050565b60085481565b6000600190505b6009548111612990578360056000838152602001908152602001600020600001541480156128205750826005600083815260200190815260200160002060010154145b15612983576005600082815260200190815260200160002060020160019054906101000a900460ff16156128bc576040517f08c379a00000000000000000000000000000000000000000000000000000000081526004018080602001828103825260188152602001807f5573657220697320616c7265616479207265706f72746564000000000000000081525060200191505060405180910390fd5b6005600082815260200190815260200160002060020160019054906101000a900460ff1615612953576040517f08c379a000000000000000000000000000000000000000000000000000000000815260040180806020018281038252601c8152602001807f55736572207761736e2774207265706f72746564206561726c6965720000000081525060200191505060405180910390fd5b60016005600083815260200190815260200160002060020160016101000a81548160ff0219169083151502179055505b80806001019150506127dd565b600b60008154809291906001019190505550600b5460066000600b548152602001908152602001600020600001819055508260066000600b548152602001908152602001600020600101819055508360066000600b548152602001908152602001600020600201819055508160066000600b5481526020019081526020016000206003019080519060200190612a27929190613005565b507f905bc739c814cac6887c5577b4717fcf16cc13c2709568044fb765a8c340172b60405160405180910390a150505050565b83600460008781526020019081526020016000206001019080519060200190612a84929190613005565b508260046000878152602001908152602001600020600201819055508160046000878152602001908152602001600020600301819055508060046000878152602001908152602001600020600401819055507f905bc739c814cac6887c5577b4717fcf16cc13c2709568044fb765a8c340172b60405160405180910390a15050505050565b6006602052806000526040600020600091509050806000015490806001015490806002015490806003018054600181600116156101000203166002900480601f016020809104026020016040519081016040528092919081815260200182805460018160011615610100020316600290048015612bc75780601f10612b9c57610100808354040283529160200191612bc7565b820191906000526020600020905b815481529060010190602001808311612baa57829003601f168201915b5050505050905084565b6000825111612bdf57600080fd5b600073ffffffffffffffffffffffffffffffffffffffff163373ffffffffffffffffffffffffffffffffffffffff161415612c1957600080fd5b600160008154809291906001019190505550600080905060008060606000600294505b6008548511612da4573373ffffffffffffffffffffffffffffffffffffffff166002600087815260200190815260200160002060010160009054906101000a900473ffffffffffffffffffffffffffffffffffffffff1673ffffffffffffffffffffffffffffffffffffffff161415612d975760026000868152602001908152602001600020600001549350600260008681526020019081526020016000206002018054600181600116156101000203166002900480601f016020809104026020016040519081016040528092919081815260200182805460018160011615610100020316600290048015612d725780601f10612d4757610100808354040283529160200191612d72565b820191906000526020600020905b815481529060010190602001808311612d5557829003601f168201915b5050505050915060026000868152602001908152602001600020600501549050612da4565b8480600101955050612c3c565b60078181548110612db157fe5b9060005260206000209060060201600301549250858314612dd157600080fd5b6040518060a001604052806001548152602001888152602001858152602001848152602001838152506000806001548152602001908152602001600020600082015181600001556020820151816001019080519060200190612e34929190612f85565b5060408201518160020155606082015181600301556080820151816004019080519060200190612e65929190612f85565b509050507f905bc739c814cac6887c5577b4717fcf16cc13c2709568044fb765a8c340172b60405160405180910390a150505050505050565b600a60008154809291906001019190505550600a5460046000600a548152602001908152602001600020600001819055508360046000600a5481526020019081526020016000206001019080519060200190612efb929190613005565b508260046000600a548152602001908152602001600020600201819055508160046000600a548152602001908152602001600020600301819055508060046000600a548152602001908152602001600020600401819055507f905bc739c814cac6887c5577b4717fcf16cc13c2709568044fb765a8c340172b60405160405180910390a150505050565b828054600181600116156101000203166002900490600052602060002090601f016020900481019282601f10612fc657805160ff1916838001178555612ff4565b82800160010185558215612ff4579182015b82811115612ff3578251825591602001919060010190612fd8565b5b5090506130019190613085565b5090565b828054600181600116156101000203166002900490600052602060002090601f016020900481019282601f1061304657805160ff1916838001178555613074565b82800160010185558215613074579182015b82811115613073578251825591602001919060010190613058565b5b5090506130819190613085565b5090565b6130a791905b808211156130a357600081600090555060010161308b565b5090565b9056fe52657175697265207468652063616e64696461746520776173206e6f7420616e20617070726f7665642063616e6469646174652070726576696f75736c79456c6574696f6e204944732061726520616c77617973206c657373207468616e206f7220657175616c20746f20656c656374696f6e5f636f756e7443616e6469646174652073686f756c64206e6f742068617665206170706c6965642070726576696f75736c7920666f72207468697320656c656374696f6e7265717569726520746861742075736572206e6f74207265706f7274656420666f72207468697320656c656374696f6e726571756972652074686174207573657220697320766f74657220696e2073616d6520656c656374696f6e20696e697469616c6c7943616e64696461746520697320612070617274206f662063616e646964617465206c697374557365722049442073686f756c642062652067726561746572207468616e20312861646d696e29557365722049442073686f756c64206265206c657373207468616e206f7220657175616c20746f20757365725f636f756e7454686520757365722073686f756c6420626520616e20616c7265616479207265676973746572642063616e646964617465a265627a7a7231582023b97482c587844d01662bd4d413a1ed7bea872677e267c8da8807f3955e947864736f6c63430005100032",
  "source": "// SPDX-License-Identifier: MIT\npragma solidity >=0.4.22 <0.9.0;\n\ncontract Election {\n    // Model a base USER\n    struct user {\n        // Admin has the UserId 1\n        uint256 id;\n        address add;\n        string name;\n        // string C_pwd;\n        // string profile_path;\n        string email;\n        // Permissions:- 0: Voter, 1: Candidate, 2: Admin\n        int256 permissions;\n        uint256 cand_index;\n        string pwd;\n    }\n\n    struct candidate {\n        uint256 C_id;\n        uint256 vote_count;\n        string C_name;\n        uint256 E_id;\n        // C_info: Achievements, clubs etc.\n        string C_info;\n        bool deleted;\n    }\n\n    struct election {\n        uint256 E_id;\n        string E_name;\n        // time will be stored in seconds on blockchain, and JS will handle it accordingly.\n        // Campaigning time will start just after time for candidate registration is over and\n        // will end 24 hrs prior to polling\n        uint256 time_cand_register_end;\n        uint256 time_polling_starts;\n        uint256 time_polling_ends;\n        bool deleted;\n    }\n\n    struct report {\n        uint256 reportId;\n        uint256 E_id;\n        uint256 reported_user;\n        string reason;\n    }\n\n    struct voter {\n        uint256 id;\n        uint256 E_id;\n        bool voted;\n        bool reportedByUser;\n        bool blacklisted_by_admin;\n        bool deleted;\n    }\n\n    struct campaign {\n        uint256 id;\n        string description;\n        // string description;\n        uint256 c_id;\n        uint256 E_id;\n        string name;\n        // bool deleted;\n    }\n\n    event trigger_event();\n\n    // event CampaignCreated(\n    //     uint256 id,\n    //     string hash,\n    //     // string description,\n    //     uint256 c_id,\n    //     uint256 E_id,\n    //     string name\n    // );\n\n    //Fetch Campaign Data\n    mapping(uint256 => campaign) public campaigns;\n\n    // Store Campaign Count\n    uint256 public campaign_count = 0;\n\n    // Fetch Users\n    mapping(uint256 => user) public users;\n\n    //addresses mapping with ids\n    mapping(address => uint256) public addresses;\n\n    // store elections\n    mapping(uint256 => election) public elections;\n\n    mapping(uint256 => voter) public voterlist;\n\n    mapping(uint256 => report) public reports;\n\n    // Array of candidate struct to store candidates\n    candidate[] public candidates;\n\n    // voted event\n    // event votedEvent(uint256 indexed _C_id);\n\n    // Store Candidates Count\n    uint256 public user_count = 0;\n    uint256 public voter_list_count = 0;\n\n    // Store Eletions Count\n    uint256 public election_count = 0;\n    uint256 public report_count = 0;\n\n    // Add elections\n    // Remember election_count is same as E_id for a particular election.\n    function add_election(\n        string memory _E_name,\n        uint256 _time_cand_register_end,\n        uint256 _time_polling_starts,\n        uint256 _time_polling_ends\n    ) public {\n        // Check in JS that the time entered are accordingly after the current time.\n        // i.e current_time < cand_time < poll_start < poll_end;\n        election_count++;\n        elections[election_count].E_id = election_count;\n        elections[election_count].E_name = _E_name;\n        elections[election_count]\n            .time_cand_register_end = _time_cand_register_end;\n        elections[election_count].time_polling_starts = _time_polling_starts;\n        elections[election_count].time_polling_ends = _time_polling_ends;\n\n        // Call the event\n        emit trigger_event();\n    }\n\n    // Edit elections\n    // Remember election_count is same as E_id for a particular election.\n    function edit_election(\n        uint256 _E_id,\n        string memory _E_name,\n        uint256 _time_cand_register_end,\n        uint256 _time_polling_starts,\n        uint256 _time_polling_ends\n    ) public {\n        // elections[election_count].E_id = election_count;\n        elections[_E_id].E_name = _E_name;\n        elections[_E_id].time_cand_register_end = _time_cand_register_end;\n        elections[_E_id].time_polling_starts = _time_polling_starts;\n        elections[_E_id].time_polling_ends = _time_polling_ends;\n\n        // Call the event\n        emit trigger_event();\n    }\n\n    function report_by_user(\n        uint256 _reportedUser,\n        uint256 _E_id,\n        string memory _reason\n    ) public {\n        uint256 i;\n        for (i = 1; i <= voter_list_count; i++) {\n            if (\n                voterlist[i].id == _reportedUser && voterlist[i].E_id == _E_id\n            ) {\n                require(\n                    !voterlist[i].reportedByUser,\n                    \"User is already reported\"\n                );\n                require(\n                    !voterlist[i].reportedByUser,\n                    \"User wasn't reported earlier\"\n                );\n                voterlist[i].reportedByUser = true;\n            }\n        }\n        report_count++;\n        reports[report_count].reportId = report_count;\n        reports[report_count].E_id = _E_id;\n        reports[report_count].reported_user = _reportedUser;\n        reports[report_count].reason = _reason;\n\n        // Call the event\n        emit trigger_event();\n    }\n\n    function blacklist_by_admin(uint256 _id, uint256 _E_id) public {\n        uint256 i;\n        for (i = 1; i <= voter_list_count; i++) {\n            if (voterlist[i].id == _id && voterlist[i].E_id == _E_id) {\n                voterlist[i].blacklisted_by_admin = true;\n            }\n        }\n        // Call the event\n        emit trigger_event();\n    }\n\n    // Add users(Voters), but first add Admin\n    // Remember user_count is same as id\n    function add_user(\n        address _add,\n        string memory _name,\n        string memory _email,\n        string memory _pwd,\n        int256 _permissions\n    ) public {\n        user_count++;\n        users[user_count].id = user_count;\n        users[user_count].add = _add;\n        users[user_count].name = _name;\n        users[user_count].email = _email;\n        users[user_count].cand_index = 5000;\n        users[user_count].permissions = _permissions;\n        addresses[_add] = user_count;\n        users[user_count].pwd = _pwd;\n\n        // Call the event\n        emit trigger_event();\n    }\n\n    uint256 public candidate_count = 0;\n    uint256 i = 0;\n    uint256 j = 0;\n\n    // user has applied for the candidature in a particular election\n    function add_candidate(\n        uint256 _C_id,\n        string memory _C_name,\n        uint256 _E_id,\n        string memory _C_info\n    ) public {\n        // Require that the user is not an Admin\n        require(users[_C_id].id != 1, \"The User is not an Admin\");\n\n        require(\n            users[_C_id].cand_index == 5000,\n            \"Require the candidate was not an approved candidate previously\"\n        );\n\n        uint256 cflag = 0;\n        //Require that user was voter for that particular election as well\n        for (i = 1; i <= voter_list_count; i++) {\n            if ((voterlist[i].id == _C_id) && (voterlist[i].E_id == _E_id)) {\n                cflag = 1;\n                break;\n            }\n        }\n        require(\n            cflag == 1,\n            \"require that user is voter in same election initially\"\n        );\n\n        cflag = 0;\n        for (i = 1; i <= voter_list_count; i++) {\n            if (\n                (voterlist[i].id == _C_id) &&\n                (voterlist[i].E_id == _E_id) &&\n                (voterlist[i].blacklisted_by_admin != true)\n            ) {\n                cflag = 1;\n                break;\n            }\n        }\n\n        require(cflag == 1, \"require that user not reported for this election\");\n\n        cflag = 0;\n        //check if the candidate has not applied previously for this election;\n        for (i = 0; i < candidate_count; i++) {\n            if (candidates[i].C_id == _C_id && candidates[i].E_id == _E_id) {\n                cflag = 1;\n            }\n        }\n\n        require(\n            cflag == 0,\n            \"Candidate should not have applied previously for this election\"\n        );\n\n        // Check if we can change the user struct value\n        candidates.push(\n            candidate({\n                C_id: _C_id,\n                vote_count: 0,\n                C_name: _C_name,\n                E_id: _E_id,\n                C_info: _C_info,\n                deleted: false\n            })\n        );\n        candidate_count++;\n\n        // Call the event\n        emit trigger_event();\n    }\n\n    //approves candidature after candidate applies for the election\n    function candidate_approved_by_admin(uint256 _C_id) public {\n        require(\n            users[_C_id].permissions == 0,\n            \"Require the candidate was not an approved candidate previously\"\n        );\n        users[_C_id].permissions = 1;\n        uint256 i = 0;\n        for (; i < candidate_count; i++) {\n            if (candidates[i].C_id == _C_id) {\n                users[_C_id].cand_index = i;\n                break;\n            }\n        }\n\n        // Call the event\n        emit trigger_event();\n    }\n\n    function add_voter_by_admin(uint256 _E_id, uint256 _id) public {\n        voter_list_count++;\n        voterlist[voter_list_count].E_id = _E_id;\n        voterlist[voter_list_count].id = _id;\n        voterlist[voter_list_count].voted = false;\n        voterlist[voter_list_count].reportedByUser = false;\n        voterlist[voter_list_count].blacklisted_by_admin = false;\n\n        // Call the event\n        emit trigger_event();\n    }\n\n    // JS will always call delete, and delete depending on the\n    // type of delete\n    // type 0: Eletion, 1: Voter, 2: Candidate\n    // For Delete eletion, id will be 0\n    function admin_delete(\n        uint256 _id,\n        uint256 _E_id,\n        uint256 _type\n    ) public {\n        uint256 i;\n\n        require(_E_id > 0, \"Eletion IDs are always positive\");\n        require(\n            _E_id <= election_count,\n            \"Eletion IDs are always less than or equal to election_count\"\n        );\n\n        // Delete Election\n        if (_type == 0) {\n            elections[_E_id].deleted = true;\n        }\n        // Delete Voter\n        else if (_type == 1) {\n            require(_id > 1, \"User ID should be greater than 1(admin)\");\n            require(\n                _id <= user_count,\n                \"User ID should be less than or equal to user_count\"\n            );\n\n            for (i = 1; i <= voter_list_count; i++) {\n                if (voterlist[i].E_id == _E_id && voterlist[i].id == _id) {\n                    voterlist[i].deleted = true;\n                }\n            }\n        }\n        // Delete Candidate\n        else if (_type == 2) {\n            require(_id > 1, \"User ID should be greater than 1(admin)\");\n            require(\n                _id <= user_count,\n                \"User ID should be less than or equal to user_count\"\n            );\n\n            uint256 _cand_index = users[_id].cand_index;\n            require(\n                _cand_index < 5000,\n                \"The user should be an already registerd candidate\"\n            );\n            candidates[_cand_index].deleted = true;\n        }\n\n        // Call the event\n        emit trigger_event();\n    }\n\n    // function delete_voter_by_admin(uint256 _voter_index)  public{\n    //     voterlist[_voter_index].deleted = true;\n\n    //     // Call the event\n    //     emit trigger_event()\n    // }\n\n    function vote(\n        uint256 _C_id,\n        uint256 _E_id,\n        uint256 _id\n    ) public {\n        // Require that the user is not the admin\n        require(users[1].add != msg.sender, \"The User is not an Admin\");\n\n        // Require that the _C_id is present in the candidates list\n        require(\n            users[_C_id].permissions == 1,\n            \"Candidate is a part of candidate list\"\n        );\n\n        //Election id of candidate and voter are same\n        // Require to check that the voter hasn't voted before\n        for (i = 1; i <= voter_list_count; i++) {\n            if (voterlist[i].id == _id && voterlist[i].E_id == _E_id) {\n                require(!voterlist[i].voted, \"The voter hasn't voted before\");\n                voterlist[i].voted = true;\n                break;\n            }\n        }\n\n        for (j = 0; j < candidate_count; j++) {\n            if (candidates[j].C_id == _C_id) {\n                candidates[j].vote_count++;\n            }\n        }\n\n        // trigger voted event\n        // emit votedEvent(_C_id);\n\n        // Call the event\n        emit trigger_event();\n    }\n\n    function uploadCampaign(string memory _desc, uint256 _E_id) public {\n        // Make sure the image hash exists\n        require(bytes(_desc).length > 0);\n        // Make sure image description exists\n        //require(bytes(_description).length > 0);\n        // Make sure uploader address exists\n        require(msg.sender != address(0));\n\n        //Increment campaign count\n        campaign_count++;\n        uint256 i = 0;\n        uint256 u_id;\n        uint256 e_id;\n        string memory name;\n        uint256 cnd_index;\n        for (i = 2; i <= user_count; i++) {\n            if (users[i].add == msg.sender) {\n                u_id = users[i].id;\n                name = users[i].name;\n                cnd_index = users[i].cand_index;\n                break;\n            }\n        }\n\n        //that user is a candidate in the election\n        e_id = candidates[cnd_index].E_id;\n        require(e_id == _E_id);\n\n        //Add image to contract\n        //passing fifth argument 1 as of now, needs to be changed\n        campaigns[campaign_count] = campaign(\n            campaign_count,\n            _desc,\n            u_id,\n            e_id,\n            name\n        );\n\n        // Call the event\n        emit trigger_event();\n    }\n\n    // Constructor\n    constructor() public {\n        // Add admin first\n\n        //Rhugaved\n        // add_user(\n        //     0x22e9140a50BdB2659b9E473dAa645685C4f409E5,\n        //     \"admin\",\n        //     \"admin@coep.ac.in\",\n        //     \"123\",\n        //     2\n        // );\n        // add_user(\n        //     0x1BFf1D5FF4234912Efc5fE4FE6Fe8038366A30E1,\n        //     \"voter 1\",\n        //     \"voter1@gmail.com\",\n        //     \"123\",\n        //     0\n        // );\n        // add_user(\n        //     0xCD56ad160221d01ea132F05D4057665A97C6934D,\n        //     \"voter 2\",\n        //     \"voter2@gmail.com\",\n        //     \"123\",\n        //     0\n        // );\n        // add_user(\n        //     0x2D89b40E5C820Ee508577ac851DF5e1Bb095C037,\n        //     \"cand 1\",\n        //     \"cand1@gmail.com\",\n        //     \"123\",\n        //     0\n        // );\n        // add_user(\n        //     0x6f7B8dF18264EeF57c112a94ce06cc2fa705ab71,\n        //     \"cand 2\",\n        //     \"cand2@gmail.com\",\n        //     \"123\",\n        //     0\n        // );\n        // add_user(\n        //     0x33fF69744215B3E8b8389D70C2A358BFB3fA16ae,\n        //     \"Reported\",\n        //     \"reported@gmail.com\",\n        //     \"123\",\n        //     0\n        // );\n\n        //himansh\n        add_user(\n            0xCBAD3fB515C349Bfee52b12AfCc75B90Ce93d61F,\n            \"admin\",\n            \"admin@coep.ac.in\",\n            \"123\",\n            2\n        );\n        // add_user(\n        //     0x347498952f9a102aAf611d66b4A9eb1c822AcF5A,\n        //     \"voter 1\",\n        //     \"voter1@gmail.com\",\n        //     \"123\",\n        //     0\n        // );\n        // add_user(\n        //     0x108dd6Db4E153BcE120bf8EF9E1473f32dea9248,\n        //     \"voter 2\",\n        //     \"voter2@gmail.com\",\n        //     \"123\",\n        //     0\n        // );\n        // add_user(\n        //     0x43e25608d87fE3faA8686Ac89A4Fe98d57A4b3cb,\n        //     \"cand 1\",\n        //     \"cand1@gmail.com\",\n        //     \"123\",\n        //     0\n        // );\n        // add_user(\n        //     0x2c2E70D6c73B51D84B0eD7BF52994A6C74Fe74aB,\n        //     \"cand 2\",\n        //     \"cand2@gmail.com\",\n        //     \"123\",\n        //     0\n        // );\n\n        //muskan\n        // add_user(\n        //     0x7D8d4E73350E695e351E80705B8B6F30bAcF00CC,\n        //     \"admin\",\n        //     \"admin@coep.ac.in\",\n        //     \"123\",\n        //     2\n        // );\n        // add_user(\n        //     0x2aeE3162bB87A4Ed18eE0abB27f6d2CE3F5A6720,\n        //     \"voter 1\",\n        //     \"voter1@gmail.com\",\n        //     \"123\",\n        //     0\n        // );\n        // add_user(\n        //     0x145d98eBca32EC5C25e49D76D95cEc2E4cA2852E,\n        //     \"voter 2\",\n        //     \"voter2@gmail.com\",\n        //     \"123\",\n        //     0\n        // );\n        // add_user(\n        //     0x7F5542Cd4C3f34ad08747273E42CB8855eDD23d4,\n        //     \"cand 1\",\n        //     \"cand1@gmail.com\",\n        //     \"123\",\n        //     0\n        // );\n        // add_user(\n        //     0x339531797eBa4492570C40Cc40dfee612dd9540F,\n        //     \"cand 2\",\n        //     \"cand2@gmail.com\",\n        //     \"123\",\n        //     0\n        // );\n        // add_user(\n        //     0x12a79A0f247F3912e45A8B3EdAec0fdD46C5C660,\n        //     \"Reported\",\n        //     \"reported@gmail.com\",\n        //     \"123\",\n        //     0\n        // );\n        // add_voter_by_admin(1, 2);\n        // add_voter_by_admin(1, 3);\n        // add_voter_by_admin(2, 3);\n        // add_election(\"Gykhana\", 5000, 1618926000, 1618940000);\n        // add_election(\"Sec\", 5000, 6000, 7000);\n        // add_candidate(3, \"candidate 1\", 1);\n        // add_candidate(2, \"voter 1\", 1);\n        // candidate_approved_by_admin(2);\n        // candidate_approved_by_admin(3);\n        // report_by_user(2, 1, \"Fake\");\n    }\n}\n",
  "sourcePath": "/home/himansh/OnlineElectionPortal/contracts/Election.sol",
  "compiler": {
    "name": "solc",
    "version": "0.5.16+commit.9c3226ce.Emscripten.clang"
  },
  "schemaVersion": "3.3.4",
  "updatedAt": "2021-04-28T20:14:15.072Z",
  "networkType": "ethereum",
  "devdoc": {
    "methods": {}
  },
  "userdoc": {
    "methods": {}
  }
}