{
  "contractName": "Election",
  "abi": [
    {
      "inputs": [],
      "payable": false,
      "stateMutability": "nonpayable",
      "type": "constructor"
    },
    {
      "anonymous": false,
      "inputs": [
        {
          "indexed": true,
          "internalType": "uint256",
          "name": "_C_id",
          "type": "uint256"
        }
      ],
      "name": "votedEvent",
      "type": "event"
    },
    {
      "constant": true,
      "inputs": [],
      "name": "candidate_count",
      "outputs": [
        {
          "internalType": "uint256",
          "name": "",
          "type": "uint256"
        }
      ],
      "payable": false,
      "stateMutability": "view",
      "type": "function"
    },
    {
      "constant": true,
      "inputs": [
        {
          "internalType": "uint256",
          "name": "",
          "type": "uint256"
        }
      ],
      "name": "candidates",
      "outputs": [
        {
          "internalType": "uint256",
          "name": "C_id",
          "type": "uint256"
        },
        {
          "internalType": "uint256",
          "name": "vote_count",
          "type": "uint256"
        },
        {
          "internalType": "string",
          "name": "C_name",
          "type": "string"
        }
      ],
      "payable": false,
      "stateMutability": "view",
      "type": "function"
    },
    {
      "constant": true,
      "inputs": [],
      "name": "election_count",
      "outputs": [
        {
          "internalType": "uint256",
          "name": "",
          "type": "uint256"
        }
      ],
      "payable": false,
      "stateMutability": "view",
      "type": "function"
    },
    {
      "constant": true,
      "inputs": [
        {
          "internalType": "uint256",
          "name": "",
          "type": "uint256"
        }
      ],
      "name": "elections",
      "outputs": [
        {
          "internalType": "uint256",
          "name": "E_id",
          "type": "uint256"
        },
        {
          "internalType": "string",
          "name": "E_name",
          "type": "string"
        },
        {
          "internalType": "uint256",
          "name": "time_cand_register_end",
          "type": "uint256"
        },
        {
          "internalType": "uint256",
          "name": "time_polling_starts",
          "type": "uint256"
        },
        {
          "internalType": "uint256",
          "name": "time_polling_ends",
          "type": "uint256"
        }
      ],
      "payable": false,
      "stateMutability": "view",
      "type": "function"
    },
    {
      "constant": true,
      "inputs": [],
      "name": "user_count",
      "outputs": [
        {
          "internalType": "uint256",
          "name": "",
          "type": "uint256"
        }
      ],
      "payable": false,
      "stateMutability": "view",
      "type": "function"
    },
    {
      "constant": true,
      "inputs": [
        {
          "internalType": "uint256",
          "name": "",
          "type": "uint256"
        }
      ],
      "name": "users",
      "outputs": [
        {
          "internalType": "uint256",
          "name": "id",
          "type": "uint256"
        },
        {
          "internalType": "address",
          "name": "add",
          "type": "address"
        },
        {
          "internalType": "string",
          "name": "name",
          "type": "string"
        },
        {
          "internalType": "uint256",
          "name": "E_id",
          "type": "uint256"
        },
        {
          "internalType": "string",
          "name": "email",
          "type": "string"
        },
        {
          "internalType": "uint256",
          "name": "permissions",
          "type": "uint256"
        }
      ],
      "payable": false,
      "stateMutability": "view",
      "type": "function"
    },
    {
      "constant": true,
      "inputs": [
        {
          "internalType": "address",
          "name": "",
          "type": "address"
        }
      ],
      "name": "voters",
      "outputs": [
        {
          "internalType": "bool",
          "name": "",
          "type": "bool"
        }
      ],
      "payable": false,
      "stateMutability": "view",
      "type": "function"
    },
    {
      "constant": false,
      "inputs": [
        {
          "internalType": "string",
          "name": "_E_name",
          "type": "string"
        },
        {
          "internalType": "uint256",
          "name": "_time_cand_register_end",
          "type": "uint256"
        },
        {
          "internalType": "uint256",
          "name": "_time_polling_starts",
          "type": "uint256"
        },
        {
          "internalType": "uint256",
          "name": "_time_polling_ends",
          "type": "uint256"
        }
      ],
      "name": "add_election",
      "outputs": [],
      "payable": false,
      "stateMutability": "nonpayable",
      "type": "function"
    },
    {
      "constant": false,
      "inputs": [
        {
          "internalType": "address",
          "name": "_add",
          "type": "address"
        },
        {
          "internalType": "string",
          "name": "_name",
          "type": "string"
        },
        {
          "internalType": "uint256",
          "name": "_e_id",
          "type": "uint256"
        },
        {
          "internalType": "string",
          "name": "_email",
          "type": "string"
        },
        {
          "internalType": "uint256",
          "name": "_permissions",
          "type": "uint256"
        }
      ],
      "name": "add_user",
      "outputs": [],
      "payable": false,
      "stateMutability": "nonpayable",
      "type": "function"
    },
    {
      "constant": false,
      "inputs": [
        {
          "internalType": "uint256",
          "name": "_C_id",
          "type": "uint256"
        },
        {
          "internalType": "string",
          "name": "_C_name",
          "type": "string"
        }
      ],
      "name": "add_candidate",
      "outputs": [],
      "payable": false,
      "stateMutability": "nonpayable",
      "type": "function"
    },
    {
      "constant": false,
      "inputs": [
        {
          "internalType": "uint256",
          "name": "_C_id",
          "type": "uint256"
        }
      ],
      "name": "vote",
      "outputs": [],
      "payable": false,
      "stateMutability": "nonpayable",
      "type": "function"
    }
  ],
  "bytecode": "0x60806040526000600455600060055560006006553480156200002057600080fd5b50620000b6737d8d4e73350e695e351e80705b8b6f30bacf00cc6040518060400160405280600581526020017f61646d696e00000000000000000000000000000000000000000000000000000081525060006040518060400160405280601081526020017f61646d696e40636f65702e61632e696e000000000000000000000000000000008152506002620002cc60201b60201c565b6200014b7342263ea939bd28d268499f1191f2f4caa52945536040518060400160405280600781526020017f766f74657220310000000000000000000000000000000000000000000000000081525060016040518060400160405280601081526020017f766f7465723140676d61696c2e636f6d000000000000000000000000000000008152506000620002cc60201b60201c565b620001e073d85974b619f77067d9959ac4a92f9644f76c58996040518060400160405280600b81526020017f63616e646964617465203100000000000000000000000000000000000000000081525060016040518060400160405280601081526020017f766f7465723240676d61696c2e636f6d000000000000000000000000000000008152506000620002cc60201b60201c565b6200022860036040518060400160405280600b81526020017f63616e6469646174652031000000000000000000000000000000000000000000815250620003ed60201b60201c565b620002776040518060400160405280600781526020017f47796b68616e6100000000000000000000000000000000000000000000000000815250611388611770611b58620005b660201b60201c565b620002c66040518060400160405280600381526020017f5365630000000000000000000000000000000000000000000000000000000000815250611388611770611b58620005b660201b60201c565b620007a9565b60046000815480929190600101919050555060045460008060045481526020019081526020016000206000018190555084600080600454815260200190815260200160002060010160006101000a81548173ffffffffffffffffffffffffffffffffffffffff021916908373ffffffffffffffffffffffffffffffffffffffff16021790555083600080600454815260200190815260200160002060020190805190602001906200037f92919062000673565b50826000806004548152602001908152602001600020600301819055508160008060045481526020019081526020016000206004019080519060200190620003c992919062000673565b50806000806004548152602001908152602001600020600501819055505050505050565b60008060008481526020019081526020016000206000015414156200047a576040517f08c379a00000000000000000000000000000000000000000000000000000000081526004018080602001828103825260188152602001807f5468652055736572206973206e6f7420616e2041646d696e000000000000000081525060200191505060405180910390fd5b6000806000848152602001908152602001600020600501541462000506576040517f08c379a000000000000000000000000000000000000000000000000000000000815260040180806020018281038252601d8152602001807f5468652055736572206973206120766f74657220696e697469616c6c7900000081525060200191505060405180910390fd5b60016000808481526020019081526020016000206005018190555060026040518060600160405280848152602001600081526020018381525090806001815401808255809150509060018203906000526020600020906003020160009091929091909150600082015181600001556020820151816001015560408201518160020190805190602001906200059c929190620006fa565b505050506006600081548092919060010191905055505050565b600560008154809291906001019190505550600554600160006005548152602001908152602001600020600001819055508360016000600554815260200190815260200160002060010190805190602001906200061592919062000673565b5082600160006005548152602001908152602001600020600201819055508160016000600554815260200190815260200160002060030181905550806001600060055481526020019081526020016000206004018190555050505050565b828054600181600116156101000203166002900490600052602060002090601f016020900481019282601f10620006b657805160ff1916838001178555620006e7565b82800160010185558215620006e7579182015b82811115620006e6578251825591602001919060010190620006c9565b5b509050620006f6919062000781565b5090565b828054600181600116156101000203166002900490600052602060002090601f016020900481019282601f106200073d57805160ff19168380011785556200076e565b828001600101855582156200076e579182015b828111156200076d57825182559160200191906001019062000750565b5b5090506200077d919062000781565b5090565b620007a691905b80821115620007a257600081600090555060010162000788565b5090565b90565b6113c580620007b96000396000f3fe608060405234801561001057600080fd5b50600436106100a95760003560e01c80634b1c4c29116100715780634b1c4c29146103cf5780635e6fef01146103ed578063a3ec138d146104b0578063bb805f691461050c578063d308c29b1461052a578063ec853e28146106b0576100a9565b80630121b93f146100ae5780630732583c146100dc578063135597fe146100fa5780633477ee2e146101bf578063365b98b214610274575b600080fd5b6100da600480360360208110156100c457600080fd5b8101908080359060200190929190505050610789565b005b6100e4610b4f565b6040518082815260200191505060405180910390f35b6101bd6004803603604081101561011057600080fd5b81019080803590602001909291908035906020019064010000000081111561013757600080fd5b82018360208201111561014957600080fd5b8035906020019184600183028401116401000000008311171561016b57600080fd5b91908080601f016020809104026020016040519081016040528093929190818152602001838380828437600081840152601f19601f820116905080830192505050505050509192919290505050610b55565b005b6101eb600480360360208110156101d557600080fd5b8101908080359060200190929190505050610d1a565b6040518084815260200183815260200180602001828103825283818151815260200191508051906020019080838360005b8381101561023757808201518184015260208101905061021c565b50505050905090810190601f1680156102645780820380516001836020036101000a031916815260200191505b5094505050505060405180910390f35b6102a06004803603602081101561028a57600080fd5b8101908080359060200190929190505050610de9565b604051808781526020018673ffffffffffffffffffffffffffffffffffffffff1673ffffffffffffffffffffffffffffffffffffffff1681526020018060200185815260200180602001848152602001838103835287818151815260200191508051906020019080838360005b8381101561032857808201518184015260208101905061030d565b50505050905090810190601f1680156103555780820380516001836020036101000a031916815260200191505b50838103825285818151815260200191508051906020019080838360005b8381101561038e578082015181840152602081019050610373565b50505050905090810190601f1680156103bb5780820380516001836020036101000a031916815260200191505b509850505050505050505060405180910390f35b6103d7610f75565b6040518082815260200191505060405180910390f35b6104196004803603602081101561040357600080fd5b8101908080359060200190929190505050610f7b565b6040518086815260200180602001858152602001848152602001838152602001828103825286818151815260200191508051906020019080838360005b83811015610471578082015181840152602081019050610456565b50505050905090810190601f16801561049e5780820380516001836020036101000a031916815260200191505b50965050505050505060405180910390f35b6104f2600480360360208110156104c657600080fd5b81019080803573ffffffffffffffffffffffffffffffffffffffff169060200190929190505050611049565b604051808215151515815260200191505060405180910390f35b610514611069565b6040518082815260200191505060405180910390f35b6106ae600480360360a081101561054057600080fd5b81019080803573ffffffffffffffffffffffffffffffffffffffff1690602001909291908035906020019064010000000081111561057d57600080fd5b82018360208201111561058f57600080fd5b803590602001918460018302840111640100000000831117156105b157600080fd5b91908080601f016020809104026020016040519081016040528093929190818152602001838380828437600081840152601f19601f820116905080830192505050505050509192919290803590602001909291908035906020019064010000000081111561061e57600080fd5b82018360208201111561063057600080fd5b8035906020019184600183028401116401000000008311171561065257600080fd5b91908080601f016020809104026020016040519081016040528093929190818152602001838380828437600081840152601f19601f8201169050808301925050505050505091929192908035906020019092919050505061106f565b005b610787600480360360808110156106c657600080fd5b81019080803590602001906401000000008111156106e357600080fd5b8201836020820111156106f557600080fd5b8035906020019184600183028401116401000000008311171561071757600080fd5b91908080601f016020809104026020016040519081016040528093929190818152602001838380828437600081840152601f19601f82011690508083019250505050505050919291929080359060200190929190803590602001909291908035906020019092919050505061118c565b005b3373ffffffffffffffffffffffffffffffffffffffff166000806001815260200190815260200160002060010160009054906101000a900473ffffffffffffffffffffffffffffffffffffffff1673ffffffffffffffffffffffffffffffffffffffff161415610861576040517f08c379a00000000000000000000000000000000000000000000000000000000081526004018080602001828103825260188152602001807f5468652055736572206973206e6f7420616e2041646d696e000000000000000081525060200191505060405180910390fd5b600360003373ffffffffffffffffffffffffffffffffffffffff1673ffffffffffffffffffffffffffffffffffffffff16815260200190815260200160002060009054906101000a900460ff1615610921576040517f08c379a000000000000000000000000000000000000000000000000000000000815260040180806020018281038252601d8152602001807f54686520766f746572206861736e277420766f746564206265666f726500000081525060200191505060405180910390fd5b60008060009050600290505b60045481116109c9573373ffffffffffffffffffffffffffffffffffffffff1660008083815260200190815260200160002060010160009054906101000a900473ffffffffffffffffffffffffffffffffffffffff1673ffffffffffffffffffffffffffffffffffffffff1614156109bc576000808281526020019081526020016000206003015491506109c9565b808060010191505061092d565b8160008085815260200190815260200160002060030154146109ea57600080fd5b6000809050600091505b600280549050821015610a3d578360028381548110610a0f57fe5b9060005260206000209060030201600001541415610a305760019050610a3d565b81806001019250506109f4565b60018114610a96576040517f08c379a000000000000000000000000000000000000000000000000000000000815260040180806020018281038252602481526020018061136d6024913960400191505060405180910390fd5b60028281548110610aa357fe5b9060005260206000209060030201600101600081548092919060010191905055506001600360003373ffffffffffffffffffffffffffffffffffffffff1673ffffffffffffffffffffffffffffffffffffffff16815260200190815260200160002060006101000a81548160ff021916908315150217905550837ffff3c900d938d21d0990d786e819f29b8d05c1ef587b462b939609625b684b1660405160405180910390a250505050565b60055481565b6000806000848152602001908152602001600020600001541415610be1576040517f08c379a00000000000000000000000000000000000000000000000000000000081526004018080602001828103825260188152602001807f5468652055736572206973206e6f7420616e2041646d696e000000000000000081525060200191505060405180910390fd5b60008060008481526020019081526020016000206005015414610c6c576040517f08c379a000000000000000000000000000000000000000000000000000000000815260040180806020018281038252601d8152602001807f5468652055736572206973206120766f74657220696e697469616c6c7900000081525060200191505060405180910390fd5b6001600080848152602001908152602001600020600501819055506002604051806060016040528084815260200160008152602001838152509080600181540180825580915050906001820390600052602060002090600302016000909192909190915060008201518160000155602082015181600101556040820151816002019080519060200190610d00929190611247565b505050506006600081548092919060010191905055505050565b60028181548110610d2757fe5b9060005260206000209060030201600091509050806000015490806001015490806002018054600181600116156101000203166002900480601f016020809104026020016040519081016040528092919081815260200182805460018160011615610100020316600290048015610ddf5780601f10610db457610100808354040283529160200191610ddf565b820191906000526020600020905b815481529060010190602001808311610dc257829003601f168201915b5050505050905083565b60006020528060005260406000206000915090508060000154908060010160009054906101000a900473ffffffffffffffffffffffffffffffffffffffff1690806002018054600181600116156101000203166002900480601f016020809104026020016040519081016040528092919081815260200182805460018160011615610100020316600290048015610ec15780601f10610e9657610100808354040283529160200191610ec1565b820191906000526020600020905b815481529060010190602001808311610ea457829003601f168201915b505050505090806003015490806004018054600181600116156101000203166002900480601f016020809104026020016040519081016040528092919081815260200182805460018160011615610100020316600290048015610f655780601f10610f3a57610100808354040283529160200191610f65565b820191906000526020600020905b815481529060010190602001808311610f4857829003601f168201915b5050505050908060050154905086565b60065481565b6001602052806000526040600020600091509050806000015490806001018054600181600116156101000203166002900480601f01602080910402602001604051908101604052809291908181526020018280546001816001161561010002031660029004801561102d5780601f106110025761010080835404028352916020019161102d565b820191906000526020600020905b81548152906001019060200180831161101057829003601f168201915b5050505050908060020154908060030154908060040154905085565b60036020528060005260406000206000915054906101000a900460ff1681565b60045481565b60046000815480929190600101919050555060045460008060045481526020019081526020016000206000018190555084600080600454815260200190815260200160002060010160006101000a81548173ffffffffffffffffffffffffffffffffffffffff021916908373ffffffffffffffffffffffffffffffffffffffff16021790555083600080600454815260200190815260200160002060020190805190602001906111209291906112c7565b508260008060045481526020019081526020016000206003018190555081600080600454815260200190815260200160002060040190805190602001906111689291906112c7565b50806000806004548152602001908152602001600020600501819055505050505050565b600560008154809291906001019190505550600554600160006005548152602001908152602001600020600001819055508360016000600554815260200190815260200160002060010190805190602001906111e99291906112c7565b5082600160006005548152602001908152602001600020600201819055508160016000600554815260200190815260200160002060030181905550806001600060055481526020019081526020016000206004018190555050505050565b828054600181600116156101000203166002900490600052602060002090601f016020900481019282601f1061128857805160ff19168380011785556112b6565b828001600101855582156112b6579182015b828111156112b557825182559160200191906001019061129a565b5b5090506112c39190611347565b5090565b828054600181600116156101000203166002900490600052602060002090601f016020900481019282601f1061130857805160ff1916838001178555611336565b82800160010185558215611336579182015b8281111561133557825182559160200191906001019061131a565b5b5090506113439190611347565b5090565b61136991905b8082111561136557600081600090555060010161134d565b5090565b9056fe43616e646964617465206e6f742070617274206f662063616e646964617465206c697374a265627a7a7231582038663914991f54ec05f47e12a3d78e13d1c1053521c6260046ac03a452ad604c64736f6c63430005100032",
  "source": "// SPDX-License-Identifier: MIT\npragma solidity >=0.4.22 <0.9.0;\n\ncontract Election {\n    // Model a base USER\n    struct user {\n        // Admin has the UserId 1\n        uint256 id;\n        address add;\n        string name;\n        // string C_pwd;\n        uint256 E_id;\n        // string profile_path;\n        string email;\n        // Permissions:- 0: Voter, 1: Candidate, 2: Admin, -1: Invalid\n        uint256 permissions;\n    }\n\n    struct candidate {\n        uint256 C_id;\n        uint256 vote_count;\n        string C_name;\n    }\n\n    struct election {\n        uint256 E_id;\n        string E_name;\n        // time will be stored in milliseconds on blockchain, and JS will handle it accordingly.\n        // Campaigning time will start just after time for candidate registration is over and\n        // will end 24 hrs prior to polling\n        uint256 time_cand_register_end;\n        uint256 time_polling_starts;\n        uint256 time_polling_ends;\n    }\n\n    // Fetch Users\n    mapping(uint256 => user) public users;\n\n    // store elections\n    mapping(uint256 => election) public elections;\n\n    // Array of candidate struct to store candidates\n    candidate[] public candidates;\n\n    // voted event\n    event votedEvent(uint256 indexed _C_id);\n\n    // Store accounts that have voted\n    mapping(address => bool) public voters;\n\n    // Store Candidates Count\n    uint256 public user_count = 0;\n\n    // Store Eletions Count\n    uint256 public election_count = 0;\n\n    // Add elections\n    // Remember election_count is same as E_id for a particular election.\n    function add_election(\n        string memory _E_name,\n        uint256 _time_cand_register_end,\n        uint256 _time_polling_starts,\n        uint256 _time_polling_ends\n    ) public {\n        // Check in JS that the time entered are accordingly after the current time.\n        // i.e current_time < cand_time < poll_start < poll_end;\n        election_count++;\n        elections[election_count].E_id = election_count;\n        elections[election_count].E_name = _E_name;\n        elections[election_count]\n            .time_cand_register_end = _time_cand_register_end;\n        elections[election_count].time_polling_starts = _time_polling_starts;\n        elections[election_count].time_polling_ends = _time_polling_ends;\n    }\n\n    // Add users(Voters), but first add Admin\n    // Remember user_count is same as id\n    function add_user(\n        address _add,\n        string memory _name,\n        uint256 _e_id,\n        string memory _email,\n        uint256 _permissions\n    ) public {\n        user_count++;\n        users[user_count].id = user_count;\n        users[user_count].add = _add;\n        users[user_count].name = _name;\n        users[user_count].E_id = _e_id;\n        users[user_count].email = _email;\n        users[user_count].permissions = _permissions;\n    }\n\n    uint256 public candidate_count = 0;\n\n    // Add candidates after getting requests from voters and after the registration date has passed\n    function add_candidate(uint256 _C_id, string memory _C_name) public {\n        // Require that the user is not an Admin\n        require(users[_C_id].id != 0, \"The User is not an Admin\");\n        // Require that the user is a voter and also not invalid\n        require(users[_C_id].permissions == 0, \"The User is a voter initially\");\n\n        // Check if we can change the user struct value\n        users[_C_id].permissions = 1;\n        candidates.push(\n            candidate({C_id: _C_id, vote_count: 0, C_name: _C_name})\n        );\n        candidate_count++;\n    }\n\n    function vote(uint256 _C_id) public {\n        // Require that the user is not the admin\n        require(users[1].add != msg.sender, \"The User is not an Admin\");\n        // Require to check that the voter hasn't voted before\n        require(!voters[msg.sender], \"The voter hasn't voted before\");\n\n        //Election id of candidate and voter are same\n        uint256 curElectionId;\n        uint256 i = 0;\n        for (i = 2; i <= user_count; i++) {\n            if (users[i].add == msg.sender) {\n                curElectionId = users[i].E_id;\n                break;\n            }\n        }\n        require(users[_C_id].E_id == curElectionId);\n\n        uint256 flag = 0;\n        i = 0;\n        for (; i < candidates.length; i++) {\n            if (candidates[i].C_id == _C_id) {\n                // candidates[i].vote_count++;\n                flag = 1;\n                break;\n            }\n        }\n        // Require that the _C_id is present in the candidates list\n        require(flag == 1, \"Candidate not part of candidate list\");\n        candidates[i].vote_count++;\n        voters[msg.sender] = true;\n\n        // trigger voted event\n        emit votedEvent(_C_id);\n    }\n\n    // Constructor\n    constructor() public {\n        // Add admin first\n        add_user(\n            0x7D8d4E73350E695e351E80705B8B6F30bAcF00CC,\n            \"admin\",\n            0,\n            \"admin@coep.ac.in\",\n            2\n        );\n        add_user(\n            0x42263Ea939bd28d268499f1191F2F4CAA5294553,\n            \"voter 1\",\n            1,\n            \"voter1@gmail.com\",\n            0\n        );\n        add_user(\n            0xD85974B619F77067D9959ac4a92f9644f76C5899,\n            \"candidate 1\",\n            1,\n            \"voter2@gmail.com\",\n            0\n        );\n        add_candidate(3, \"candidate 1\");\n        add_election(\"Gykhana\", 5000, 6000, 7000);\n        add_election(\"Sec\", 5000, 6000, 7000);\n    }\n}\n",
  "sourcePath": "/home/himansh/SEM6/SE/OnlineElectionPortal/contracts/Election.sol",
  "compiler": {
    "name": "solc",
    "version": "0.5.16+commit.9c3226ce.Emscripten.clang"
  },
  "schemaVersion": "3.3.4",
  "updatedAt": "2021-04-19T07:14:17.881Z",
  "networkType": "ethereum",
  "devdoc": {
    "methods": {}
  },
  "userdoc": {
    "methods": {}
  }
}