{
  "contractName": "Election",
  "abi": [
    {
      "inputs": [],
      "payable": false,
      "stateMutability": "nonpayable",
      "type": "constructor"
    },
    {
      "anonymous": false,
      "inputs": [
        {
          "indexed": true,
          "internalType": "uint256",
          "name": "_C_id",
          "type": "uint256"
        }
      ],
      "name": "votedEvent",
      "type": "event"
    },
    {
      "constant": true,
      "inputs": [
        {
          "internalType": "address",
          "name": "",
          "type": "address"
        }
      ],
      "name": "addresses",
      "outputs": [
        {
          "internalType": "uint256",
          "name": "",
          "type": "uint256"
        }
      ],
      "payable": false,
      "stateMutability": "view",
      "type": "function"
    },
    {
      "constant": true,
      "inputs": [],
      "name": "candidate_count",
      "outputs": [
        {
          "internalType": "uint256",
          "name": "",
          "type": "uint256"
        }
      ],
      "payable": false,
      "stateMutability": "view",
      "type": "function"
    },
    {
      "constant": true,
      "inputs": [
        {
          "internalType": "uint256",
          "name": "",
          "type": "uint256"
        }
      ],
      "name": "candidates",
      "outputs": [
        {
          "internalType": "uint256",
          "name": "C_id",
          "type": "uint256"
        },
        {
          "internalType": "uint256",
          "name": "vote_count",
          "type": "uint256"
        },
        {
          "internalType": "string",
          "name": "C_name",
          "type": "string"
        },
        {
          "internalType": "uint256",
          "name": "E_id",
          "type": "uint256"
        }
      ],
      "payable": false,
      "stateMutability": "view",
      "type": "function"
    },
    {
      "constant": true,
      "inputs": [],
      "name": "election_count",
      "outputs": [
        {
          "internalType": "uint256",
          "name": "",
          "type": "uint256"
        }
      ],
      "payable": false,
      "stateMutability": "view",
      "type": "function"
    },
    {
      "constant": true,
      "inputs": [
        {
          "internalType": "uint256",
          "name": "",
          "type": "uint256"
        }
      ],
      "name": "elections",
      "outputs": [
        {
          "internalType": "uint256",
          "name": "E_id",
          "type": "uint256"
        },
        {
          "internalType": "string",
          "name": "E_name",
          "type": "string"
        },
        {
          "internalType": "uint256",
          "name": "time_cand_register_end",
          "type": "uint256"
        },
        {
          "internalType": "uint256",
          "name": "time_polling_starts",
          "type": "uint256"
        },
        {
          "internalType": "uint256",
          "name": "time_polling_ends",
          "type": "uint256"
        }
      ],
      "payable": false,
      "stateMutability": "view",
      "type": "function"
    },
    {
      "constant": true,
      "inputs": [],
      "name": "user_count",
      "outputs": [
        {
          "internalType": "uint256",
          "name": "",
          "type": "uint256"
        }
      ],
      "payable": false,
      "stateMutability": "view",
      "type": "function"
    },
    {
      "constant": true,
      "inputs": [
        {
          "internalType": "uint256",
          "name": "",
          "type": "uint256"
        }
      ],
      "name": "users",
      "outputs": [
        {
          "internalType": "uint256",
          "name": "id",
          "type": "uint256"
        },
        {
          "internalType": "address",
          "name": "add",
          "type": "address"
        },
        {
          "internalType": "string",
          "name": "name",
          "type": "string"
        },
        {
          "internalType": "string",
          "name": "email",
          "type": "string"
        },
        {
          "internalType": "int256",
          "name": "permissions",
          "type": "int256"
        },
        {
          "internalType": "uint256",
          "name": "cand_index",
          "type": "uint256"
        }
      ],
      "payable": false,
      "stateMutability": "view",
      "type": "function"
    },
    {
      "constant": true,
      "inputs": [],
      "name": "voter_list_count",
      "outputs": [
        {
          "internalType": "uint256",
          "name": "",
          "type": "uint256"
        }
      ],
      "payable": false,
      "stateMutability": "view",
      "type": "function"
    },
    {
      "constant": true,
      "inputs": [
        {
          "internalType": "uint256",
          "name": "",
          "type": "uint256"
        }
      ],
      "name": "voterlist",
      "outputs": [
        {
          "internalType": "uint256",
          "name": "id",
          "type": "uint256"
        },
        {
          "internalType": "uint256",
          "name": "E_id",
          "type": "uint256"
        },
        {
          "internalType": "bool",
          "name": "voted",
          "type": "bool"
        },
        {
          "internalType": "bool",
          "name": "reportedByUser",
          "type": "bool"
        },
        {
          "internalType": "bool",
          "name": "blacklisted_by_admin",
          "type": "bool"
        }
      ],
      "payable": false,
      "stateMutability": "view",
      "type": "function"
    },
    {
      "constant": false,
      "inputs": [
        {
          "internalType": "string",
          "name": "_E_name",
          "type": "string"
        },
        {
          "internalType": "uint256",
          "name": "_time_cand_register_end",
          "type": "uint256"
        },
        {
          "internalType": "uint256",
          "name": "_time_polling_starts",
          "type": "uint256"
        },
        {
          "internalType": "uint256",
          "name": "_time_polling_ends",
          "type": "uint256"
        }
      ],
      "name": "add_election",
      "outputs": [],
      "payable": false,
      "stateMutability": "nonpayable",
      "type": "function"
    },
    {
      "constant": false,
      "inputs": [
        {
          "internalType": "uint256",
          "name": "_id",
          "type": "uint256"
        },
        {
          "internalType": "uint256",
          "name": "_E_id",
          "type": "uint256"
        }
      ],
      "name": "report_by_user",
      "outputs": [],
      "payable": false,
      "stateMutability": "nonpayable",
      "type": "function"
    },
    {
      "constant": false,
      "inputs": [
        {
          "internalType": "uint256",
          "name": "_id",
          "type": "uint256"
        },
        {
          "internalType": "uint256",
          "name": "_E_id",
          "type": "uint256"
        }
      ],
      "name": "blacklist_by_admin",
      "outputs": [],
      "payable": false,
      "stateMutability": "nonpayable",
      "type": "function"
    },
    {
      "constant": false,
      "inputs": [
        {
          "internalType": "address",
          "name": "_add",
          "type": "address"
        },
        {
          "internalType": "string",
          "name": "_name",
          "type": "string"
        },
        {
          "internalType": "string",
          "name": "_email",
          "type": "string"
        },
        {
          "internalType": "int256",
          "name": "_permissions",
          "type": "int256"
        }
      ],
      "name": "add_user",
      "outputs": [],
      "payable": false,
      "stateMutability": "nonpayable",
      "type": "function"
    },
    {
      "constant": false,
      "inputs": [
        {
          "internalType": "uint256",
          "name": "_C_id",
          "type": "uint256"
        },
        {
          "internalType": "string",
          "name": "_C_name",
          "type": "string"
        },
        {
          "internalType": "uint256",
          "name": "_E_id",
          "type": "uint256"
        }
      ],
      "name": "add_candidate",
      "outputs": [],
      "payable": false,
      "stateMutability": "nonpayable",
      "type": "function"
    },
    {
      "constant": false,
      "inputs": [
        {
          "internalType": "uint256",
          "name": "_C_id",
          "type": "uint256"
        }
      ],
      "name": "candidate_approved_by_admin",
      "outputs": [],
      "payable": false,
      "stateMutability": "nonpayable",
      "type": "function"
    },
    {
      "constant": false,
      "inputs": [
        {
          "internalType": "uint256",
          "name": "_E_id",
          "type": "uint256"
        },
        {
          "internalType": "uint256",
          "name": "_id",
          "type": "uint256"
        }
      ],
      "name": "add_voter_by_admin",
      "outputs": [],
      "payable": false,
      "stateMutability": "nonpayable",
      "type": "function"
    },
    {
      "constant": false,
      "inputs": [
        {
          "internalType": "uint256",
          "name": "_C_id",
          "type": "uint256"
        },
        {
          "internalType": "uint256",
          "name": "_E_id",
          "type": "uint256"
        },
        {
          "internalType": "uint256",
          "name": "_id",
          "type": "uint256"
        }
      ],
      "name": "vote",
      "outputs": [],
      "payable": false,
      "stateMutability": "nonpayable",
      "type": "function"
    }
  ],
  "bytecode": "0x6080604052600060055560006006556000600755600060085560006009556000600a553480156200002f57600080fd5b50620000c3737d8d4e73350e695e351e80705b8b6f30bacf00cc6040518060400160405280600581526020017f61646d696e0000000000000000000000000000000000000000000000000000008152506040518060400160405280601081526020017f61646d696e40636f65702e61632e696e0000000000000000000000000000000081525060026200038160201b60201c565b620001567342263ea939bd28d268499f1191f2f4caa52945536040518060400160405280600781526020017f766f7465722031000000000000000000000000000000000000000000000000008152506040518060400160405280601081526020017f766f7465723140676d61696c2e636f6d0000000000000000000000000000000081525060006200038160201b60201c565b620001e973d85974b619f77067d9959ac4a92f9644f76c58996040518060400160405280600b81526020017f63616e64696461746520310000000000000000000000000000000000000000008152506040518060400160405280601081526020017f766f7465723240676d61696c2e636f6d0000000000000000000000000000000081525060006200038160201b60201c565b620001fd60016002620004e960201b60201c565b6200021160016003620004e960201b60201c565b6200022560026003620004e960201b60201c565b620002746040518060400160405280600781526020017f47796b68616e6100000000000000000000000000000000000000000000000000815250611388611770611b58620005cc60201b60201c565b620002c36040518060400160405280600381526020017f5365630000000000000000000000000000000000000000000000000000000000815250611388611770611b58620005cc60201b60201c565b6200030d60036040518060400160405280600b81526020017f63616e646964617465203100000000000000000000000000000000000000000081525060016200068960201b60201c565b6200035760026040518060400160405280600781526020017f766f74657220310000000000000000000000000000000000000000000000000081525060016200068960201b60201c565b6200036960026200095660201b60201c565b6200037b60036200095660201b60201c565b62000b12565b60056000815480929190600101919050555060055460008060055481526020019081526020016000206000018190555083600080600554815260200190815260200160002060010160006101000a81548173ffffffffffffffffffffffffffffffffffffffff021916908373ffffffffffffffffffffffffffffffffffffffff160217905550826000806005548152602001908152602001600020600201908051906020019062000434929190620009dc565b50816000806005548152602001908152602001600020600301908051906020019062000462929190620009dc565b5061138860008060055481526020019081526020016000206005018190555080600080600554815260200190815260200160002060040181905550600554600160008673ffffffffffffffffffffffffffffffffffffffff1673ffffffffffffffffffffffffffffffffffffffff1681526020019081526020016000208190555050505050565b60066000815480929190600101919050555081600360006006548152602001908152602001600020600101819055508060036000600654815260200190815260200160002060000181905550600060036000600654815260200190815260200160002060020160006101000a81548160ff021916908315150217905550600060036000600654815260200190815260200160002060020160016101000a81548160ff021916908315150217905550600060036000600654815260200190815260200160002060020160026101000a81548160ff0219169083151502179055505050565b600760008154809291906001019190505550600754600260006007548152602001908152602001600020600001819055508360026000600754815260200190815260200160002060010190805190602001906200062b929190620009dc565b5082600260006007548152602001908152602001600020600201819055508160026000600754815260200190815260200160002060030181905550806002600060075481526020019081526020016000206004018190555050505050565b600080600085815260200190815260200160002060000154141562000716576040517f08c379a00000000000000000000000000000000000000000000000000000000081526004018080602001828103825260188152602001807f5468652055736572206973206e6f7420616e2041646d696e000000000000000081525060200191505060405180910390fd5b600080905060016009819055505b60065460095411620007975783600360006009548152602001908152602001600020600001541480156200076f57508160036000600954815260200190815260200160002060010154145b156200077f576001905062000797565b60096000815480929190600101919050555062000724565b60018114620007f2576040517f08c379a00000000000000000000000000000000000000000000000000000000081526004018080602001828103825260358152602001806200252c6035913960400191505060405180910390fd5b6000905060006009819055505b60085460095410156200085357836004600954815481106200081d57fe5b90600052602060002090600402016000015414156200083b57600190505b600960008154809291906001019190505550620007ff565b6001811415620008af576040517f08c379a0000000000000000000000000000000000000000000000000000000008152600401808060200182810382526034815260200180620024f86034913960400191505060405180910390fd5b60046040518060800160405280868152602001600081526020018581526020018481525090806001815401808255809150509060018203906000526020600020906004020160009091929091909150600082015181600001556020820151816001015560408201518160020190805190602001906200093092919062000a63565b506060820151816003015550505060086000815480929190600101919050555050505050565b60016000808381526020019081526020016000206004018190555060008090505b600854811015620009d85781600482815481106200099157fe5b9060005260206000209060040201600001541415620009ca578060008084815260200190815260200160002060050181905550620009d8565b808060010191505062000977565b5050565b828054600181600116156101000203166002900490600052602060002090601f016020900481019282601f1062000a1f57805160ff191683800117855562000a50565b8280016001018555821562000a50579182015b8281111562000a4f57825182559160200191906001019062000a32565b5b50905062000a5f919062000aea565b5090565b828054600181600116156101000203166002900490600052602060002090601f016020900481019282601f1062000aa657805160ff191683800117855562000ad7565b8280016001018555821562000ad7579182015b8281111562000ad657825182559160200191906001019062000ab9565b5b50905062000ae6919062000aea565b5090565b62000b0f91905b8082111562000b0b57600081600090555060010162000af1565b5090565b90565b6119d68062000b226000396000f3fe608060405234801561001057600080fd5b506004361061010b5760003560e01c806354d8d6d2116100a25780638a6655d6116100715780638a6655d614610673578063a1b40c59146106b5578063bb805f6914610831578063bd332daa1461084f578063ec853e28146108875761010b565b806354d8d6d2146104d05780635e6fef011461053a5780637361068c146105fd57806382d389541461061b5761010b565b80633477ee2e116100de5780633477ee2e1461026d578063365b98b2146103295780633ed29e6e146104845780634b1c4c29146104b25761010b565b806301442d91146101105780630732583c146101df5780631050a032146101fd5780631ebdeebb14610235575b600080fd5b6101dd6004803603606081101561012657600080fd5b81019080803590602001909291908035906020019064010000000081111561014d57600080fd5b82018360208201111561015f57600080fd5b8035906020019184600183028401116401000000008311171561018157600080fd5b91908080601f016020809104026020016040519081016040528093929190818152602001838380828437600081840152601f19601f82011690508083019250505050505050919291929080359060200190929190505050610960565b005b6101e7610c1d565b6040518082815260200191505060405180910390f35b6102336004803603604081101561021357600080fd5b810190808035906020019092919080359060200190929190505050610c23565b005b61026b6004803603604081101561024b57600080fd5b810190808035906020019092919080359060200190929190505050610cb5565b005b6102996004803603602081101561028357600080fd5b8101908080359060200190929190505050610d98565b6040518085815260200184815260200180602001838152602001828103825284818151815260200191508051906020019080838360005b838110156102eb5780820151818401526020810190506102d0565b50505050905090810190601f1680156103185780820380516001836020036101000a031916815260200191505b509550505050505060405180910390f35b6103556004803603602081101561033f57600080fd5b8101908080359060200190929190505050610e6d565b604051808781526020018673ffffffffffffffffffffffffffffffffffffffff1673ffffffffffffffffffffffffffffffffffffffff1681526020018060200180602001858152602001848152602001838103835287818151815260200191508051906020019080838360005b838110156103dd5780820151818401526020810190506103c2565b50505050905090810190601f16801561040a5780820380516001836020036101000a031916815260200191505b50838103825286818151815260200191508051906020019080838360005b83811015610443578082015181840152602081019050610428565b50505050905090810190601f1680156104705780820380516001836020036101000a031916815260200191505b509850505050505050505060405180910390f35b6104b06004803603602081101561049a57600080fd5b8101908080359060200190929190505050610ff9565b005b6104ba61107a565b6040518082815260200191505060405180910390f35b6104fc600480360360208110156104e657600080fd5b8101908080359060200190929190505050611080565b604051808681526020018581526020018415151515815260200183151515158152602001821515151581526020019550505050505060405180910390f35b6105666004803603602081101561055057600080fd5b81019080803590602001909291905050506110dd565b6040518086815260200180602001858152602001848152602001838152602001828103825286818151815260200191508051906020019080838360005b838110156105be5780820151818401526020810190506105a3565b50505050905090810190601f1680156105eb5780820380516001836020036101000a031916815260200191505b50965050505050505060405180910390f35b6106056111ab565b6040518082815260200191505060405180910390f35b61065d6004803603602081101561063157600080fd5b81019080803573ffffffffffffffffffffffffffffffffffffffff1690602001909291905050506111b1565b6040518082815260200191505060405180910390f35b6106b36004803603606081101561068957600080fd5b810190808035906020019092919080359060200190929190803590602001909291905050506111c9565b005b61082f600480360360808110156106cb57600080fd5b81019080803573ffffffffffffffffffffffffffffffffffffffff1690602001909291908035906020019064010000000081111561070857600080fd5b82018360208201111561071a57600080fd5b8035906020019184600183028401116401000000008311171561073c57600080fd5b91908080601f016020809104026020016040519081016040528093929190818152602001838380828437600081840152601f19601f8201169050808301925050505050505091929192908035906020019064010000000081111561079f57600080fd5b8201836020820111156107b157600080fd5b803590602001918460018302840111640100000000831117156107d357600080fd5b91908080601f016020809104026020016040519081016040528093929190818152602001838380828437600081840152601f19601f82011690508083019250505050505050919291929080359060200190929190505050611516565b005b61083961167a565b6040518082815260200191505060405180910390f35b6108856004803603604081101561086557600080fd5b810190808035906020019092919080359060200190929190505050611680565b005b61095e6004803603608081101561089d57600080fd5b81019080803590602001906401000000008111156108ba57600080fd5b8201836020820111156108cc57600080fd5b803590602001918460018302840111640100000000831117156108ee57600080fd5b91908080601f016020809104026020016040519081016040528093929190818152602001838380828437600081840152601f19601f820116905080830192505050505050509192919290803590602001909291908035906020019092919080359060200190929190505050611712565b005b60008060008581526020019081526020016000206000015414156109ec576040517f08c379a00000000000000000000000000000000000000000000000000000000081526004018080602001828103825260188152602001807f5468652055736572206973206e6f7420616e2041646d696e000000000000000081525060200191505060405180910390fd5b600080905060016009819055505b60065460095411610a68578360036000600954815260200190815260200160002060000154148015610a4357508160036000600954815260200190815260200160002060010154145b15610a515760019050610a68565b6009600081548092919060010191905055506109fa565b60018114610ac1576040517f08c379a00000000000000000000000000000000000000000000000000000000081526004018080602001828103825260358152602001806119486035913960400191505060405180910390fd5b6000905060006009819055505b6008546009541015610b1e5783600460095481548110610aea57fe5b9060005260206000209060040201600001541415610b0757600190505b600960008154809291906001019190505550610ace565b6001811415610b78576040517f08c379a00000000000000000000000000000000000000000000000000000000081526004018080602001828103825260348152602001806119146034913960400191505060405180910390fd5b6004604051806080016040528086815260200160008152602001858152602001848152509080600181540180825580915050906001820390600052602060002090600402016000909192909190915060008201518160000155602082015181600101556040820151816002019080519060200190610bf79291906117cd565b506060820151816003015550505060086000815480929190600101919050555050505050565b60075481565b6000600190505b600654811015610cb057826003600083815260200190815260200160002060000154148015610c6e5750816003600083815260200190815260200160002060010154145b15610ca35760016003600083815260200190815260200160002060020160026101000a81548160ff0219169083151502179055505b8080600101915050610c2a565b505050565b60066000815480929190600101919050555081600360006006548152602001908152602001600020600101819055508060036000600654815260200190815260200160002060000181905550600060036000600654815260200190815260200160002060020160006101000a81548160ff021916908315150217905550600060036000600654815260200190815260200160002060020160016101000a81548160ff021916908315150217905550600060036000600654815260200190815260200160002060020160026101000a81548160ff0219169083151502179055505050565b60048181548110610da557fe5b9060005260206000209060040201600091509050806000015490806001015490806002018054600181600116156101000203166002900480601f016020809104026020016040519081016040528092919081815260200182805460018160011615610100020316600290048015610e5d5780601f10610e3257610100808354040283529160200191610e5d565b820191906000526020600020905b815481529060010190602001808311610e4057829003601f168201915b5050505050908060030154905084565b60006020528060005260406000206000915090508060000154908060010160009054906101000a900473ffffffffffffffffffffffffffffffffffffffff1690806002018054600181600116156101000203166002900480601f016020809104026020016040519081016040528092919081815260200182805460018160011615610100020316600290048015610f455780601f10610f1a57610100808354040283529160200191610f45565b820191906000526020600020905b815481529060010190602001808311610f2857829003601f168201915b505050505090806003018054600181600116156101000203166002900480601f016020809104026020016040519081016040528092919081815260200182805460018160011615610100020316600290048015610fe35780601f10610fb857610100808354040283529160200191610fe3565b820191906000526020600020905b815481529060010190602001808311610fc657829003601f168201915b5050505050908060040154908060050154905086565b60016000808381526020019081526020016000206004018190555060008090505b60085481101561107657816004828154811061103257fe5b9060005260206000209060040201600001541415611069578060008084815260200190815260200160002060050181905550611076565b808060010191505061101a565b5050565b60085481565b60036020528060005260406000206000915090508060000154908060010154908060020160009054906101000a900460ff16908060020160019054906101000a900460ff16908060020160029054906101000a900460ff16905085565b6002602052806000526040600020600091509050806000015490806001018054600181600116156101000203166002900480601f01602080910402602001604051908101604052809291908181526020018280546001816001161561010002031660029004801561118f5780601f106111645761010080835404028352916020019161118f565b820191906000526020600020905b81548152906001019060200180831161117257829003601f168201915b5050505050908060020154908060030154908060040154905085565b60065481565b60016020528060005260406000206000915090505481565b600080905060016009819055505b6006546009541161124557816003600060095481526020019081526020016000206000015414801561122057508260036000600954815260200190815260200160002060010154145b1561122e5760019050611245565b6009600081548092919060010191905055506111d7565b6001811461129e576040517f08c379a00000000000000000000000000000000000000000000000000000000081526004018080602001828103825260218152602001806118f36021913960400191505060405180910390fd5b60016009819055505b60065460095410156113a75781600360006009548152602001908152602001600020600001541480156112f157508260036000600954815260200190815260200160002060010154145b156113905760036000600954815260200190815260200160002060020160009054906101000a900460ff161561138f576040517f08c379a000000000000000000000000000000000000000000000000000000000815260040180806020018281038252601d8152602001807f54686520766f746572206861736e277420766f746564206265666f726500000081525060200191505060405180910390fd5b5b6009600081548092919060010191905055506112a7565b60008090506001600080878152602001908152602001600020600401541461141a576040517f08c379a000000000000000000000000000000000000000000000000000000000815260040180806020018281038252602581526020018061197d6025913960400191505060405180910390fd5b6000600a819055505b600854600a54101561147757846004600a548154811061143f57fe5b90600052602060002090600402016000015414156114605760019050611477565b600a60008154809291906001019190505550611423565b60018114156114e2576004600a548154811061148f57fe5b906000526020600020906004020160010160008154809291906001019190505550600160036000600954815260200190815260200160002060020160006101000a81548160ff0219169083151502179055505b847ffff3c900d938d21d0990d786e819f29b8d05c1ef587b462b939609625b684b1660405160405180910390a25050505050565b60056000815480929190600101919050555060055460008060055481526020019081526020016000206000018190555083600080600554815260200190815260200160002060010160006101000a81548173ffffffffffffffffffffffffffffffffffffffff021916908373ffffffffffffffffffffffffffffffffffffffff16021790555082600080600554815260200190815260200160002060020190805190602001906115c792919061184d565b5081600080600554815260200190815260200160002060030190805190602001906115f392919061184d565b5061138860008060055481526020019081526020016000206005018190555080600080600554815260200190815260200160002060040181905550600554600160008673ffffffffffffffffffffffffffffffffffffffff1673ffffffffffffffffffffffffffffffffffffffff1681526020019081526020016000208190555050505050565b60055481565b6000600190505b60065481101561170d578260036000838152602001908152602001600020600001541480156116cb5750816003600083815260200190815260200160002060010154145b156117005760016003600083815260200190815260200160002060020160016101000a81548160ff0219169083151502179055505b8080600101915050611687565b505050565b6007600081548092919060010191905055506007546002600060075481526020019081526020016000206000018190555083600260006007548152602001908152602001600020600101908051906020019061176f92919061184d565b5082600260006007548152602001908152602001600020600201819055508160026000600754815260200190815260200160002060030181905550806002600060075481526020019081526020016000206004018190555050505050565b828054600181600116156101000203166002900490600052602060002090601f016020900481019282601f1061180e57805160ff191683800117855561183c565b8280016001018555821561183c579182015b8281111561183b578251825591602001919060010190611820565b5b50905061184991906118cd565b5090565b828054600181600116156101000203166002900490600052602060002090601f016020900481019282601f1061188e57805160ff19168380011785556118bc565b828001600101855582156118bc579182015b828111156118bb5782518255916020019190600101906118a0565b5b5090506118c991906118cd565b5090565b6118ef91905b808211156118eb5760008160009055506001016118d3565b5090565b9056fe55736572206973206120766f74657220666f72207468697320656c656374696f6e52657175697265207468652063616e64696461746520776173206e6f7420612063616e6469646174652070726576696f75736c79726571756972652074686174207573657220697320766f74657220696e2073616d6520656c656374696f6e20696e697469616c6c7943616e64696461746520697320612070617274206f662063616e646964617465206c697374a265627a7a723158204ffe861146c729415a8d3a2fe6ddc03be7d74ec3e8e457b2567a7e2ce829c68464736f6c6343000510003252657175697265207468652063616e64696461746520776173206e6f7420612063616e6469646174652070726576696f75736c79726571756972652074686174207573657220697320766f74657220696e2073616d6520656c656374696f6e20696e697469616c6c79",
  "source": "// SPDX-License-Identifier: MIT\npragma solidity >=0.4.22 <0.9.0;\n\ncontract Election {\n    // Model a base USER\n    struct user {\n        // Admin has the UserId 1\n        uint256 id;\n        address add;\n        string name;\n        // string C_pwd;\n        // string profile_path;\n        string email;\n        // Permissions:- 0: Voter, 1: Candidate, 2: Admin, -1: Invalid\n        int256 permissions;\n        uint256 cand_index;\n    }\n\n    struct candidate {\n        uint256 C_id;\n        uint256 vote_count;\n        string C_name;\n        uint256 E_id;\n    }\n\n    struct election {\n        uint256 E_id;\n        string E_name;\n        // time will be stored in seconds on blockchain, and JS will handle it accordingly.\n        // Campaigning time will start just after time for candidate registration is over and\n        // will end 24 hrs prior to polling\n        uint256 time_cand_register_end;\n        uint256 time_polling_starts;\n        uint256 time_polling_ends;\n    }\n\n    struct voter {\n        uint256 id;\n        uint256 E_id;\n        bool voted;\n        bool reportedByUser;\n        bool blacklisted_by_admin;\n    }\n    // Fetch Users\n    mapping(uint256 => user) public users;\n\n    //addresses mapping with ids\n    mapping(address => uint256) public addresses;\n\n    // store elections\n    mapping(uint256 => election) public elections;\n\n    mapping(uint256 => voter) public voterlist;\n\n    // Array of candidate struct to store candidates\n    candidate[] public candidates;\n\n    // voted event\n    event votedEvent(uint256 indexed _C_id);\n\n    // Store Candidates Count\n    uint256 public user_count = 0;\n    uint256 public voter_list_count = 0;\n\n    // Store Eletions Count\n    uint256 public election_count = 0;\n\n    // Add elections\n    // Remember election_count is same as E_id for a particular election.\n    function add_election(\n        string memory _E_name,\n        uint256 _time_cand_register_end,\n        uint256 _time_polling_starts,\n        uint256 _time_polling_ends\n    ) public {\n        // Check in JS that the time entered are accordingly after the current time.\n        // i.e current_time < cand_time < poll_start < poll_end;\n        election_count++;\n        elections[election_count].E_id = election_count;\n        elections[election_count].E_name = _E_name;\n        elections[election_count]\n            .time_cand_register_end = _time_cand_register_end;\n        elections[election_count].time_polling_starts = _time_polling_starts;\n        elections[election_count].time_polling_ends = _time_polling_ends;\n    }\n\n    function report_by_user(uint256 _id, uint256 _E_id) public {\n        uint256 i;\n        for (i = 1; i < voter_list_count; i++) {\n            if (voterlist[i].id == _id && voterlist[i].E_id == _E_id) {\n                voterlist[i].reportedByUser = true;\n            }\n        }\n    }\n\n    function blacklist_by_admin(uint256 _id, uint256 _E_id) public {\n        uint256 i;\n        for (i = 1; i < voter_list_count; i++) {\n            if (voterlist[i].id == _id && voterlist[i].E_id == _E_id) {\n                voterlist[i].blacklisted_by_admin = true;\n            }\n        }\n    }\n\n    // Add users(Voters), but first add Admin\n    // Remember user_count is same as id\n    function add_user(\n        address _add,\n        string memory _name,\n        string memory _email,\n        int256 _permissions\n    ) public {\n        user_count++;\n        users[user_count].id = user_count;\n        users[user_count].add = _add;\n        users[user_count].name = _name;\n        users[user_count].email = _email;\n        users[user_count].cand_index = 5000;\n        users[user_count].permissions = _permissions;\n        addresses[_add] = user_count;\n    }\n\n    uint256 public candidate_count = 0;\n    uint256 i = 0;\n    uint256 j = 0;\n\n    // user has applied for the candidature in a particular election\n    function add_candidate(\n        uint256 _C_id,\n        string memory _C_name,\n        uint256 _E_id\n    ) public {\n        // Require that the user is not an Admin\n        require(users[_C_id].id != 0, \"The User is not an Admin\");\n\n        uint256 cflag = 0;\n        //Require that user was voter for that particular election as well\n        for (i = 1; i <= voter_list_count; i++) {\n            if ((voterlist[i].id == _C_id) && (voterlist[i].E_id == _E_id)) {\n                cflag = 1;\n                break;\n            }\n        }\n        require(\n            cflag == 1,\n            \"require that user is voter in same election initially\"\n        );\n\n        cflag = 0;\n        //check if the candidate was not a candidate previously\n        for (i = 0; i < candidate_count; i++) {\n            if (candidates[i].C_id == _C_id) {\n                cflag = 1;\n            }\n        }\n\n        require(\n            cflag != 1,\n            \"Require the candidate was not a candidate previously\"\n        );\n\n        // Check if we can change the user struct value\n        candidates.push(\n            candidate({\n                C_id: _C_id,\n                vote_count: 0,\n                C_name: _C_name,\n                E_id: _E_id\n            })\n        );\n        candidate_count++;\n    }\n\n    //approves candidature after candidate applies for the election\n    function candidate_approved_by_admin(uint256 _C_id) public {\n        users[_C_id].permissions = 1;\n        uint256 i = 0;\n        for (; i < candidate_count; i++) {\n            if (candidates[i].C_id == _C_id) {\n                users[_C_id].cand_index = i;\n                break;\n            }\n        }\n    }\n\n    function add_voter_by_admin(uint256 _E_id, uint256 _id) public {\n        voter_list_count++;\n        voterlist[voter_list_count].E_id = _E_id;\n        voterlist[voter_list_count].id = _id;\n        voterlist[voter_list_count].voted = false;\n        voterlist[voter_list_count].reportedByUser = false;\n        voterlist[voter_list_count].blacklisted_by_admin = false;\n    }\n\n    function vote(\n        uint256 _C_id,\n        uint256 _E_id,\n        uint256 _id\n    ) public {\n        // Require that the user is not the admin\n        //require(users[1].add != msg.sender, \"The User is not an Admin\");\n\n        //Election id of candidate and voter are same\n        uint256 uflag = 0;\n\n        for (i = 1; i <= voter_list_count; i++) {\n            if (voterlist[i].id == _id && voterlist[i].E_id == _E_id) {\n                uflag = 1;\n                break;\n            }\n        }\n        require(uflag == 1, \"User is a voter for this election\");\n\n        // Require to check that the voter hasn't voted before\n        for (i = 1; i < voter_list_count; i++) {\n            if ((voterlist[i].id == _id) && (voterlist[i].E_id == _E_id)) {\n                require(!voterlist[i].voted, \"The voter hasn't voted before\");\n            }\n        }\n\n        uint256 flag = 0;\n        // Require that the _C_id is present in the candidates list\n        require(\n            users[_C_id].permissions == 1,\n            \"Candidate is a part of candidate list\"\n        );\n\n        for (j = 0; j < candidate_count; j++) {\n            if (candidates[j].C_id == _C_id) {\n                flag = 1;\n                break;\n            }\n        }\n        if (flag == 1) {\n            candidates[j].vote_count++;\n            voterlist[i].voted = true;\n        }\n\n        // trigger voted event\n        emit votedEvent(_C_id);\n    }\n\n    // Constructor\n    constructor() public {\n        // Add admin first\n        add_user(\n            0x7D8d4E73350E695e351E80705B8B6F30bAcF00CC,\n            \"admin\",\n            \"admin@coep.ac.in\",\n            2\n        );\n        add_user(\n            0x42263Ea939bd28d268499f1191F2F4CAA5294553,\n            \"voter 1\",\n            \"voter1@gmail.com\",\n            0\n        );\n        add_user(\n            0xD85974B619F77067D9959ac4a92f9644f76C5899,\n            \"candidate 1\",\n            \"voter2@gmail.com\",\n            0\n        );\n        add_voter_by_admin(1, 2);\n        add_voter_by_admin(1, 3);\n        add_voter_by_admin(2, 3);\n        add_election(\"Gykhana\", 5000, 6000, 7000);\n        add_election(\"Sec\", 5000, 6000, 7000);\n        add_candidate(3, \"candidate 1\", 1);\n        add_candidate(2, \"voter 1\", 1);\n        candidate_approved_by_admin(2);\n        candidate_approved_by_admin(3);\n    }\n}\n",
  "sourcePath": "/home/muskan/Desktop/OnlineElectionPortal/OnlineElectionPortal/contracts/Election.sol",
  "compiler": {
    "name": "solc",
    "version": "0.5.16+commit.9c3226ce.Emscripten.clang"
  },
  "schemaVersion": "3.3.4",
  "updatedAt": "2021-04-20T08:33:20.591Z",
  "networkType": "ethereum",
  "devdoc": {
    "methods": {}
  },
  "userdoc": {
    "methods": {}
  }
}