{
  "contractName": "Election",
  "abi": [
    {
      "inputs": [],
      "payable": false,
      "stateMutability": "nonpayable",
      "type": "constructor"
    },
    {
      "anonymous": false,
      "inputs": [
        {
          "indexed": true,
          "internalType": "uint256",
          "name": "_C_id",
          "type": "uint256"
        }
      ],
      "name": "votedEvent",
      "type": "event"
    },
    {
      "constant": true,
      "inputs": [
        {
          "internalType": "uint256",
          "name": "",
          "type": "uint256"
        }
      ],
      "name": "candidates",
      "outputs": [
        {
          "internalType": "uint256",
          "name": "C_id",
          "type": "uint256"
        },
        {
          "internalType": "uint256",
          "name": "vote_count",
          "type": "uint256"
        }
      ],
      "payable": false,
      "stateMutability": "view",
      "type": "function"
    },
    {
      "constant": true,
      "inputs": [],
      "name": "election_count",
      "outputs": [
        {
          "internalType": "uint256",
          "name": "",
          "type": "uint256"
        }
      ],
      "payable": false,
      "stateMutability": "view",
      "type": "function"
    },
    {
      "constant": true,
      "inputs": [
        {
          "internalType": "uint256",
          "name": "",
          "type": "uint256"
        }
      ],
      "name": "elections",
      "outputs": [
        {
          "internalType": "uint256",
          "name": "E_id",
          "type": "uint256"
        },
        {
          "internalType": "string",
          "name": "E_name",
          "type": "string"
        },
        {
          "internalType": "uint256",
          "name": "time_cand_register_end",
          "type": "uint256"
        },
        {
          "internalType": "uint256",
          "name": "time_polling_starts",
          "type": "uint256"
        },
        {
          "internalType": "uint256",
          "name": "time_polling_ends",
          "type": "uint256"
        }
      ],
      "payable": false,
      "stateMutability": "view",
      "type": "function"
    },
    {
      "constant": true,
      "inputs": [],
      "name": "user_count",
      "outputs": [
        {
          "internalType": "uint256",
          "name": "",
          "type": "uint256"
        }
      ],
      "payable": false,
      "stateMutability": "view",
      "type": "function"
    },
    {
      "constant": true,
      "inputs": [
        {
          "internalType": "uint256",
          "name": "",
          "type": "uint256"
        }
      ],
      "name": "users",
      "outputs": [
        {
          "internalType": "uint256",
          "name": "id",
          "type": "uint256"
        },
        {
          "internalType": "address",
          "name": "add",
          "type": "address"
        },
        {
          "internalType": "string",
          "name": "name",
          "type": "string"
        },
        {
          "internalType": "uint256",
          "name": "E_id",
          "type": "uint256"
        },
        {
          "internalType": "string",
          "name": "email",
          "type": "string"
        },
        {
          "internalType": "uint256",
          "name": "permissions",
          "type": "uint256"
        }
      ],
      "payable": false,
      "stateMutability": "view",
      "type": "function"
    },
    {
      "constant": true,
      "inputs": [
        {
          "internalType": "address",
          "name": "",
          "type": "address"
        }
      ],
      "name": "voters",
      "outputs": [
        {
          "internalType": "bool",
          "name": "",
          "type": "bool"
        }
      ],
      "payable": false,
      "stateMutability": "view",
      "type": "function"
    },
    {
      "constant": false,
      "inputs": [
        {
          "internalType": "string",
          "name": "_E_name",
          "type": "string"
        },
        {
          "internalType": "uint256",
          "name": "_time_cand_register_end",
          "type": "uint256"
        },
        {
          "internalType": "uint256",
          "name": "_time_polling_starts",
          "type": "uint256"
        },
        {
          "internalType": "uint256",
          "name": "_time_polling_ends",
          "type": "uint256"
        }
      ],
      "name": "add_election",
      "outputs": [],
      "payable": false,
      "stateMutability": "nonpayable",
      "type": "function"
    },
    {
      "constant": false,
      "inputs": [
        {
          "internalType": "address",
          "name": "_add",
          "type": "address"
        },
        {
          "internalType": "string",
          "name": "_name",
          "type": "string"
        },
        {
          "internalType": "uint256",
          "name": "_e_id",
          "type": "uint256"
        },
        {
          "internalType": "string",
          "name": "_email",
          "type": "string"
        },
        {
          "internalType": "uint256",
          "name": "_permissions",
          "type": "uint256"
        }
      ],
      "name": "add_user",
      "outputs": [],
      "payable": false,
      "stateMutability": "nonpayable",
      "type": "function"
    },
    {
      "constant": false,
      "inputs": [
        {
          "internalType": "uint256",
          "name": "_C_id",
          "type": "uint256"
        }
      ],
      "name": "add_candidate",
      "outputs": [],
      "payable": false,
      "stateMutability": "nonpayable",
      "type": "function"
    },
    {
      "constant": false,
      "inputs": [
        {
          "internalType": "uint256",
          "name": "_C_id",
          "type": "uint256"
        }
      ],
      "name": "vote",
      "outputs": [],
      "payable": false,
      "stateMutability": "nonpayable",
      "type": "function"
    }
  ],
  "bytecode": "0x6080604052600060045560006005553480156200001b57600080fd5b506200006b6040518060400160405280600781526020017f47796b68616e6100000000000000000000000000000000000000000000000000815250611388611770611b58620000c060201b60201c565b620000ba6040518060400160405280600381526020017f5365630000000000000000000000000000000000000000000000000000000000815250611388611770611b58620000c060201b60201c565b6200022c565b600560008154809291906001019190505550600554600160006005548152602001908152602001600020600001819055508360016000600554815260200190815260200160002060010190805190602001906200011f9291906200017d565b5082600160006005548152602001908152602001600020600201819055508160016000600554815260200190815260200160002060030181905550806001600060055481526020019081526020016000206004018190555050505050565b828054600181600116156101000203166002900490600052602060002090601f016020900481019282601f10620001c057805160ff1916838001178555620001f1565b82800160010185558215620001f1579182015b82811115620001f0578251825591602001919060010190620001d3565b5b50905062000200919062000204565b5090565b6200022991905b80821115620002255760008160009055506001016200020b565b5090565b90565b611140806200023c6000396000f3fe608060405234801561001057600080fd5b506004361061009e5760003560e01c8063a3ec138d11610066578063a3ec138d14610356578063bb805f69146103b2578063c214d411146103d0578063d308c29b146103fe578063ec853e28146105845761009e565b80630121b93f146100a35780630732583c146100d15780633477ee2e146100ef578063365b98b2146101385780635e6fef0114610293575b600080fd5b6100cf600480360360208110156100b957600080fd5b810190808035906020019092919050505061065d565b005b6100d9610a24565b6040518082815260200191505060405180910390f35b61011b6004803603602081101561010557600080fd5b8101908080359060200190929190505050610a2a565b604051808381526020018281526020019250505060405180910390f35b6101646004803603602081101561014e57600080fd5b8101908080359060200190929190505050610a5b565b604051808781526020018673ffffffffffffffffffffffffffffffffffffffff1673ffffffffffffffffffffffffffffffffffffffff1681526020018060200185815260200180602001848152602001838103835287818151815260200191508051906020019080838360005b838110156101ec5780820151818401526020810190506101d1565b50505050905090810190601f1680156102195780820380516001836020036101000a031916815260200191505b50838103825285818151815260200191508051906020019080838360005b83811015610252578082015181840152602081019050610237565b50505050905090810190601f16801561027f5780820380516001836020036101000a031916815260200191505b509850505050505050505060405180910390f35b6102bf600480360360208110156102a957600080fd5b8101908080359060200190929190505050610be7565b6040518086815260200180602001858152602001848152602001838152602001828103825286818151815260200191508051906020019080838360005b838110156103175780820151818401526020810190506102fc565b50505050905090810190601f1680156103445780820380516001836020036101000a031916815260200191505b50965050505050505060405180910390f35b6103986004803603602081101561036c57600080fd5b81019080803573ffffffffffffffffffffffffffffffffffffffff169060200190929190505050610cb5565b604051808215151515815260200191505060405180910390f35b6103ba610cd5565b6040518082815260200191505060405180910390f35b6103fc600480360360208110156103e657600080fd5b8101908080359060200190929190505050610cdb565b005b610582600480360360a081101561041457600080fd5b81019080803573ffffffffffffffffffffffffffffffffffffffff1690602001909291908035906020019064010000000081111561045157600080fd5b82018360208201111561046357600080fd5b8035906020019184600183028401116401000000008311171561048557600080fd5b91908080601f016020809104026020016040519081016040528093929190818152602001838380828437600081840152601f19601f82011690508083019250505050505050919291929080359060200190929190803590602001906401000000008111156104f257600080fd5b82018360208201111561050457600080fd5b8035906020019184600183028401116401000000008311171561052657600080fd5b91908080601f016020809104026020016040519081016040528093929190818152602001838380828437600081840152601f19601f82011690508083019250505050505050919291929080359060200190929190505050610e6a565b005b61065b6004803603608081101561059a57600080fd5b81019080803590602001906401000000008111156105b757600080fd5b8201836020820111156105c957600080fd5b803590602001918460018302840111640100000000831117156105eb57600080fd5b91908080601f016020809104026020016040519081016040528093929190818152602001838380828437600081840152601f19601f820116905080830192505050505050509192919290803590602001909291908035906020019092919080359060200190929190505050610f87565b005b3373ffffffffffffffffffffffffffffffffffffffff166000806001815260200190815260200160002060010160009054906101000a900473ffffffffffffffffffffffffffffffffffffffff1673ffffffffffffffffffffffffffffffffffffffff161415610735576040517f08c379a00000000000000000000000000000000000000000000000000000000081526004018080602001828103825260188152602001807f5468652055736572206973206e6f7420616e2041646d696e000000000000000081525060200191505060405180910390fd5b600360003373ffffffffffffffffffffffffffffffffffffffff1673ffffffffffffffffffffffffffffffffffffffff16815260200190815260200160002060009054906101000a900460ff16156107f5576040517f08c379a000000000000000000000000000000000000000000000000000000000815260040180806020018281038252601d8152602001807f54686520766f746572206861736e277420766f746564206265666f726500000081525060200191505060405180910390fd5b60008060009050600290505b60045481101561089e573373ffffffffffffffffffffffffffffffffffffffff1660008083815260200190815260200160002060010160009054906101000a900473ffffffffffffffffffffffffffffffffffffffff1673ffffffffffffffffffffffffffffffffffffffff1614156108915760008082815260200190815260200160002060030154915061089e565b8080600101915050610801565b8160008085815260200190815260200160002060030154146108bf57600080fd5b6000809050600091505b6002805490508210156109125783600283815481106108e457fe5b90600052602060002090600202016000015414156109055760019050610912565b81806001019250506108c9565b6001811461096b576040517f08c379a00000000000000000000000000000000000000000000000000000000081526004018080602001828103825260248152602001806110e86024913960400191505060405180910390fd5b6002828154811061097857fe5b9060005260206000209060020201600101600081548092919060010191905055506001600360003373ffffffffffffffffffffffffffffffffffffffff1673ffffffffffffffffffffffffffffffffffffffff16815260200190815260200160002060006101000a81548160ff021916908315150217905550837ffff3c900d938d21d0990d786e819f29b8d05c1ef587b462b939609625b684b1660405160405180910390a250505050565b60055481565b60028181548110610a3757fe5b90600052602060002090600202016000915090508060000154908060010154905082565b60006020528060005260406000206000915090508060000154908060010160009054906101000a900473ffffffffffffffffffffffffffffffffffffffff1690806002018054600181600116156101000203166002900480601f016020809104026020016040519081016040528092919081815260200182805460018160011615610100020316600290048015610b335780601f10610b0857610100808354040283529160200191610b33565b820191906000526020600020905b815481529060010190602001808311610b1657829003601f168201915b505050505090806003015490806004018054600181600116156101000203166002900480601f016020809104026020016040519081016040528092919081815260200182805460018160011615610100020316600290048015610bd75780601f10610bac57610100808354040283529160200191610bd7565b820191906000526020600020905b815481529060010190602001808311610bba57829003601f168201915b5050505050908060050154905086565b6001602052806000526040600020600091509050806000015490806001018054600181600116156101000203166002900480601f016020809104026020016040519081016040528092919081815260200182805460018160011615610100020316600290048015610c995780601f10610c6e57610100808354040283529160200191610c99565b820191906000526020600020905b815481529060010190602001808311610c7c57829003601f168201915b5050505050908060020154908060030154908060040154905085565b60036020528060005260406000206000915054906101000a900460ff1681565b60045481565b6000806000838152602001908152602001600020600001541415610d67576040517f08c379a00000000000000000000000000000000000000000000000000000000081526004018080602001828103825260188152602001807f5468652055736572206973206e6f7420616e2041646d696e000000000000000081525060200191505060405180910390fd5b60008060008381526020019081526020016000206005015414610df2576040517f08c379a000000000000000000000000000000000000000000000000000000000815260040180806020018281038252601d8152602001807f5468652055736572206973206120766f74657220696e697469616c6c7900000081525060200191505060405180910390fd5b60016000808381526020019081526020016000206005018190555060026040518060400160405280838152602001600081525090806001815401808255809150509060018203906000526020600020906002020160009091929091909150600082015181600001556020820151816001015550505050565b60046000815480929190600101919050555060045460008060045481526020019081526020016000206000018190555084600080600454815260200190815260200160002060010160006101000a81548173ffffffffffffffffffffffffffffffffffffffff021916908373ffffffffffffffffffffffffffffffffffffffff1602179055508360008060045481526020019081526020016000206002019080519060200190610f1b929190611042565b50826000806004548152602001908152602001600020600301819055508160008060045481526020019081526020016000206004019080519060200190610f63929190611042565b50806000806004548152602001908152602001600020600501819055505050505050565b60056000815480929190600101919050555060055460016000600554815260200190815260200160002060000181905550836001600060055481526020019081526020016000206001019080519060200190610fe4929190611042565b5082600160006005548152602001908152602001600020600201819055508160016000600554815260200190815260200160002060030181905550806001600060055481526020019081526020016000206004018190555050505050565b828054600181600116156101000203166002900490600052602060002090601f016020900481019282601f1061108357805160ff19168380011785556110b1565b828001600101855582156110b1579182015b828111156110b0578251825591602001919060010190611095565b5b5090506110be91906110c2565b5090565b6110e491905b808211156110e05760008160009055506001016110c8565b5090565b9056fe43616e646964617465206e6f742070617274206f662063616e646964617465206c697374a265627a7a72315820482a8ad88e071ebd9c7620dd0a2812e8ebad06ed1bd0d4a00f9fa525cb279a8c64736f6c63430005100032",
  "source": "// SPDX-License-Identifier: MIT\npragma solidity >=0.4.22 <0.9.0;\n\ncontract Election {\n    // Model a base USER\n    struct user {\n        // Admin has the UserId 1\n        uint256 id;\n        address add;\n        string name;\n        // string C_pwd;\n        uint256 E_id;\n        // string profile_path;\n        string email;\n        // Permissions:- 0: Voter, 1: Candidate, 2: Admin, -1: Invalid\n        uint256 permissions;\n        \n    }\n\n    struct candidate {\n        uint256 C_id;\n        uint256 vote_count;\n    }\n\n    struct election {\n        uint256 E_id;\n        string E_name;\n        // time will be stored in milliseconds on blockchain, and JS will handle it accordingly.\n        // Campaigning time will start just after time for candidate registration is over and \n        // will end 24 hrs prior to polling \n        uint256 time_cand_register_end;\n        uint256 time_polling_starts;\n        uint256 time_polling_ends;\n\n    }\n\n    // Fetch Users\n    mapping(uint256 => user) public users;\n\n    // store elections\n    mapping(uint256 => election) public elections;\n\n    // Array of candidate struct to store candidates\n    candidate[] public candidates;\n\n    // voted event\n    event votedEvent(uint256 indexed _C_id);\n\n    // Store accounts that have voted\n    mapping(address => bool) public voters;\n\n    // Store Candidates Count\n    uint256 public user_count = 0;\n\n    // Store Eletions Count\n    uint256 public election_count = 0;\n\n    // Add elections\n    // Remember election_count is same as E_id for a particular election.\n    function add_election(\n        string memory _E_name,\n        uint256 _time_cand_register_end,\n        uint256 _time_polling_starts,\n        uint256 _time_polling_ends\n    ) public {\n        // Check in JS that the time entered are accordingly after the current time. \n        // i.e current_time < cand_time < poll_start < poll_end;\n        election_count++;\n        elections[election_count].E_id = election_count;\n        elections[election_count].E_name = _E_name;\n        elections[election_count].time_cand_register_end = _time_cand_register_end;\n        elections[election_count].time_polling_starts = _time_polling_starts;\n        elections[election_count].time_polling_ends = _time_polling_ends;\n    }\n\n    // Add users(Voters), but first add Admin\n    // Remember user_count is same as id\n    function add_user(\n        address _add,\n        string memory _name,\n        uint256 _e_id,\n        string memory _email,\n        uint256 _permissions\n    ) public {\n        user_count++;\n        users[user_count].id = user_count; \n        users[user_count].add = _add;\n        users[user_count].name = _name;\n        users[user_count].E_id = _e_id;\n        users[user_count].email = _email;\n        users[user_count].permissions = _permissions;\n    }\n\n    // Add candidates after getting requests from voters and after the registration date has passed\n    function add_candidate(uint256 _C_id) public {\n        // Require that the user is not an Admin\n        require(users[_C_id].id != 0, \"The User is not an Admin\");\n        // Require that the user is a voter and also not invalid\n        require(users[_C_id].permissions == 0, \"The User is a voter initially\");\n\n        // Check if we can change the user struct value\n        users[_C_id].permissions = 1;\n        candidates.push(candidate({C_id: _C_id, vote_count: 0}));\n    }\n\n    function vote(uint256 _C_id) public {\n        // Require that the user is not the admin\n        require(users[1].add != msg.sender, \"The User is not an Admin\");\n        // Require to check that the voter hasn't voted before\n        require(!voters[msg.sender], \"The voter hasn't voted before\");\n\n        //Election id of candidate and voter are same\n        uint256 curElectionId;\n        uint256 i = 0;\n        for (i = 2; i < user_count; i++) {\n            if (users[i].add == msg.sender) {\n                curElectionId = users[i].E_id;\n                break;\n            }\n        }\n        require(users[_C_id].E_id == curElectionId);\n\n        uint256 flag = 0;\n        i = 0;\n        for (; i < candidates.length; i++) {\n            if (candidates[i].C_id == _C_id) {\n                // candidates[i].vote_count++;\n                flag = 1;\n                break;\n            }\n        }\n        // Require that the _C_id is present in the candidates list\n        require(flag == 1, \"Candidate not part of candidate list\");\n        candidates[i].vote_count++;\n        voters[msg.sender] = true;\n\n        // trigger voted event\n        emit votedEvent(_C_id);\n    }\n\n    // Constructor\n    constructor() public {\n        // Add admin first\n        // add_user(\n        //     0x7D8d4E73350E695e351E80705B8B6F30bAcF00CC,\n        //     \"admin\",\n        //     0,\n        //     \"admin@coep.ac.in\",\n        //     2\n        // );\n        // add_user(\n        //     0x42263Ea939bd28d268499f1191F2F4CAA5294553,\n        //     \"voter 1\",\n        //     1,\n        //     \"voter1@gmail.com\",\n        //     0\n        // );\n        // add_user(\n        //     0xD85974B619F77067D9959ac4a92f9644f76C5899,\n        //     \"candidate 1\",\n        //     1,\n        //     \"voter2@gmail.com\",\n        //     0\n        // );\n        // add_candidate(3);\n        add_election(\n        \"Gykhana\",\n        5000,\n        6000,\n        7000\n        );\n        add_election(\n        \"Sec\",\n        5000,\n        6000,\n        7000\n        );\n    }\n}\n",
  "sourcePath": "/home/rhugaved/TYCourses/Sem 6/SE/Blockchain_Testing/contracts/Election.sol",
  "compiler": {
    "name": "solc",
    "version": "0.5.16+commit.9c3226ce.Emscripten.clang"
  },
  "schemaVersion": "3.3.4",
  "updatedAt": "2021-04-18T12:03:04.443Z",
  "networkType": "ethereum",
  "devdoc": {
    "methods": {}
  },
  "userdoc": {
    "methods": {}
  }
}