{
  "contractName": "Election",
  "abi": [
    {
      "inputs": [],
      "payable": false,
      "stateMutability": "nonpayable",
      "type": "constructor"
    },
    {
      "anonymous": false,
      "inputs": [
        {
          "indexed": true,
          "internalType": "uint256",
          "name": "_C_id",
          "type": "uint256"
        }
      ],
      "name": "votedEvent",
      "type": "event"
    },
    {
      "constant": true,
      "inputs": [
        {
          "internalType": "uint256",
          "name": "",
          "type": "uint256"
        }
      ],
      "name": "candidates",
      "outputs": [
        {
          "internalType": "uint256",
          "name": "C_id",
          "type": "uint256"
        },
        {
          "internalType": "uint256",
          "name": "vote_count",
          "type": "uint256"
        }
      ],
      "payable": false,
      "stateMutability": "view",
      "type": "function"
    },
    {
      "constant": true,
      "inputs": [],
      "name": "user_count",
      "outputs": [
        {
          "internalType": "uint256",
          "name": "",
          "type": "uint256"
        }
      ],
      "payable": false,
      "stateMutability": "view",
      "type": "function"
    },
    {
      "constant": true,
      "inputs": [
        {
          "internalType": "uint256",
          "name": "",
          "type": "uint256"
        }
      ],
      "name": "users",
      "outputs": [
        {
          "internalType": "uint256",
          "name": "id",
          "type": "uint256"
        },
        {
          "internalType": "address",
          "name": "add",
          "type": "address"
        },
        {
          "internalType": "string",
          "name": "name",
          "type": "string"
        },
        {
          "internalType": "uint256",
          "name": "E_id",
          "type": "uint256"
        },
        {
          "internalType": "string",
          "name": "email",
          "type": "string"
        },
        {
          "internalType": "uint256",
          "name": "permissions",
          "type": "uint256"
        }
      ],
      "payable": false,
      "stateMutability": "view",
      "type": "function"
    },
    {
      "constant": true,
      "inputs": [
        {
          "internalType": "address",
          "name": "",
          "type": "address"
        }
      ],
      "name": "voters",
      "outputs": [
        {
          "internalType": "bool",
          "name": "",
          "type": "bool"
        }
      ],
      "payable": false,
      "stateMutability": "view",
      "type": "function"
    },
    {
      "constant": false,
      "inputs": [
        {
          "internalType": "address",
          "name": "_add",
          "type": "address"
        },
        {
          "internalType": "string",
          "name": "_name",
          "type": "string"
        },
        {
          "internalType": "uint256",
          "name": "_e_id",
          "type": "uint256"
        },
        {
          "internalType": "string",
          "name": "_email",
          "type": "string"
        },
        {
          "internalType": "uint256",
          "name": "_permissions",
          "type": "uint256"
        }
      ],
      "name": "add_user",
      "outputs": [],
      "payable": false,
      "stateMutability": "nonpayable",
      "type": "function"
    },
    {
      "constant": false,
      "inputs": [
        {
          "internalType": "uint256",
          "name": "_C_id",
          "type": "uint256"
        }
      ],
      "name": "add_candidate",
      "outputs": [],
      "payable": false,
      "stateMutability": "nonpayable",
      "type": "function"
    },
    {
      "constant": false,
      "inputs": [
        {
          "internalType": "uint256",
          "name": "_C_id",
          "type": "uint256"
        }
      ],
      "name": "vote",
      "outputs": [],
      "payable": false,
      "stateMutability": "nonpayable",
      "type": "function"
    }
  ],
  "bytecode": "0x608060405260006003553480156200001657600080fd5b50620000ac737d8d4e73350e695e351e80705b8b6f30bacf00cc6040518060400160405280600581526020017f61646d696e00000000000000000000000000000000000000000000000000000081525060006040518060400160405280601081526020017f61646d696e40636f65702e61632e696e000000000000000000000000000000008152506002620001ee60201b60201c565b620001417342263ea939bd28d268499f1191f2f4caa52945536040518060400160405280600781526020017f766f74657220310000000000000000000000000000000000000000000000000081525060016040518060400160405280601081526020017f766f7465723140676d61696c2e636f6d000000000000000000000000000000008152506000620001ee60201b60201c565b620001d673d85974b619f77067d9959ac4a92f9644f76c58996040518060400160405280600b81526020017f63616e646964617465203100000000000000000000000000000000000000000081525060016040518060400160405280601081526020017f766f7465723240676d61696c2e636f6d000000000000000000000000000000008152506000620001ee60201b60201c565b620001e860036200030f60201b60201c565b6200054f565b60036000815480929190600101919050555060035460008060035481526020019081526020016000206000018190555084600080600354815260200190815260200160002060010160006101000a81548173ffffffffffffffffffffffffffffffffffffffff021916908373ffffffffffffffffffffffffffffffffffffffff1602179055508360008060035481526020019081526020016000206002019080519060200190620002a1929190620004a0565b50826000806003548152602001908152602001600020600301819055508160008060035481526020019081526020016000206004019080519060200190620002eb929190620004a0565b50806000806003548152602001908152602001600020600501819055505050505050565b60008060008381526020019081526020016000206000015414156200039c576040517f08c379a00000000000000000000000000000000000000000000000000000000081526004018080602001828103825260188152602001807f5468652055736572206973206e6f7420616e2041646d696e000000000000000081525060200191505060405180910390fd5b6000806000838152602001908152602001600020600501541462000428576040517f08c379a000000000000000000000000000000000000000000000000000000000815260040180806020018281038252601d8152602001807f5468652055736572206973206120766f74657220696e697469616c6c7900000081525060200191505060405180910390fd5b60016000808381526020019081526020016000206005018190555060016040518060400160405280838152602001600081525090806001815401808255809150509060018203906000526020600020906002020160009091929091909150600082015181600001556020820151816001015550505050565b828054600181600116156101000203166002900490600052602060002090601f016020900481019282601f10620004e357805160ff191683800117855562000514565b8280016001018555821562000514579182015b8281111562000513578251825591602001919060010190620004f6565b5b50905062000523919062000527565b5090565b6200054c91905b80821115620005485760008160009055506001016200052e565b5090565b90565b610dd5806200055f6000396000f3fe608060405234801561001057600080fd5b506004361061007d5760003560e01c8063a3ec138d1161005b578063a3ec138d14610254578063bb805f69146102b0578063c214d411146102ce578063d308c29b146102fc5761007d565b80630121b93f146100825780633477ee2e146100b0578063365b98b2146100f9575b600080fd5b6100ae6004803603602081101561009857600080fd5b8101908080359060200190929190505050610482565b005b6100dc600480360360208110156100c657600080fd5b8101908080359060200190929190505050610848565b604051808381526020018281526020019250505060405180910390f35b6101256004803603602081101561010f57600080fd5b8101908080359060200190929190505050610879565b604051808781526020018673ffffffffffffffffffffffffffffffffffffffff1673ffffffffffffffffffffffffffffffffffffffff1681526020018060200185815260200180602001848152602001838103835287818151815260200191508051906020019080838360005b838110156101ad578082015181840152602081019050610192565b50505050905090810190601f1680156101da5780820380516001836020036101000a031916815260200191505b50838103825285818151815260200191508051906020019080838360005b838110156102135780820151818401526020810190506101f8565b50505050905090810190601f1680156102405780820380516001836020036101000a031916815260200191505b509850505050505050505060405180910390f35b6102966004803603602081101561026a57600080fd5b81019080803573ffffffffffffffffffffffffffffffffffffffff169060200190929190505050610a05565b604051808215151515815260200191505060405180910390f35b6102b8610a25565b6040518082815260200191505060405180910390f35b6102fa600480360360208110156102e457600080fd5b8101908080359060200190929190505050610a2b565b005b610480600480360360a081101561031257600080fd5b81019080803573ffffffffffffffffffffffffffffffffffffffff1690602001909291908035906020019064010000000081111561034f57600080fd5b82018360208201111561036157600080fd5b8035906020019184600183028401116401000000008311171561038357600080fd5b91908080601f016020809104026020016040519081016040528093929190818152602001838380828437600081840152601f19601f82011690508083019250505050505050919291929080359060200190929190803590602001906401000000008111156103f057600080fd5b82018360208201111561040257600080fd5b8035906020019184600183028401116401000000008311171561042457600080fd5b91908080601f016020809104026020016040519081016040528093929190818152602001838380828437600081840152601f19601f82011690508083019250505050505050919291929080359060200190929190505050610bba565b005b3373ffffffffffffffffffffffffffffffffffffffff1660008080815260200190815260200160002060010160009054906101000a900473ffffffffffffffffffffffffffffffffffffffff1673ffffffffffffffffffffffffffffffffffffffff161415610559576040517f08c379a00000000000000000000000000000000000000000000000000000000081526004018080602001828103825260188152602001807f5468652055736572206973206e6f7420616e2041646d696e000000000000000081525060200191505060405180910390fd5b600260003373ffffffffffffffffffffffffffffffffffffffff1673ffffffffffffffffffffffffffffffffffffffff16815260200190815260200160002060009054906101000a900460ff1615610619576040517f08c379a000000000000000000000000000000000000000000000000000000000815260040180806020018281038252601d8152602001807f54686520766f746572206861736e277420766f746564206265666f726500000081525060200191505060405180910390fd5b60008060009050600290505b6003548110156106c2573373ffffffffffffffffffffffffffffffffffffffff1660008083815260200190815260200160002060010160009054906101000a900473ffffffffffffffffffffffffffffffffffffffff1673ffffffffffffffffffffffffffffffffffffffff1614156106b5576000808281526020019081526020016000206003015491506106c2565b8080600101915050610625565b8160008085815260200190815260200160002060030154146106e357600080fd5b6000809050600091505b60018054905082101561073657836001838154811061070857fe5b90600052602060002090600202016000015414156107295760019050610736565b81806001019250506106ed565b6001811461078f576040517f08c379a0000000000000000000000000000000000000000000000000000000008152600401808060200182810382526024815260200180610d7d6024913960400191505060405180910390fd5b6001828154811061079c57fe5b9060005260206000209060020201600101600081548092919060010191905055506001600260003373ffffffffffffffffffffffffffffffffffffffff1673ffffffffffffffffffffffffffffffffffffffff16815260200190815260200160002060006101000a81548160ff021916908315150217905550837ffff3c900d938d21d0990d786e819f29b8d05c1ef587b462b939609625b684b1660405160405180910390a250505050565b6001818154811061085557fe5b90600052602060002090600202016000915090508060000154908060010154905082565b60006020528060005260406000206000915090508060000154908060010160009054906101000a900473ffffffffffffffffffffffffffffffffffffffff1690806002018054600181600116156101000203166002900480601f0160208091040260200160405190810160405280929190818152602001828054600181600116156101000203166002900480156109515780601f1061092657610100808354040283529160200191610951565b820191906000526020600020905b81548152906001019060200180831161093457829003601f168201915b505050505090806003015490806004018054600181600116156101000203166002900480601f0160208091040260200160405190810160405280929190818152602001828054600181600116156101000203166002900480156109f55780601f106109ca576101008083540402835291602001916109f5565b820191906000526020600020905b8154815290600101906020018083116109d857829003601f168201915b5050505050908060050154905086565b60026020528060005260406000206000915054906101000a900460ff1681565b60035481565b6000806000838152602001908152602001600020600001541415610ab7576040517f08c379a00000000000000000000000000000000000000000000000000000000081526004018080602001828103825260188152602001807f5468652055736572206973206e6f7420616e2041646d696e000000000000000081525060200191505060405180910390fd5b60008060008381526020019081526020016000206005015414610b42576040517f08c379a000000000000000000000000000000000000000000000000000000000815260040180806020018281038252601d8152602001807f5468652055736572206973206120766f74657220696e697469616c6c7900000081525060200191505060405180910390fd5b60016000808381526020019081526020016000206005018190555060016040518060400160405280838152602001600081525090806001815401808255809150509060018203906000526020600020906002020160009091929091909150600082015181600001556020820151816001015550505050565b60036000815480929190600101919050555060035460008060035481526020019081526020016000206000018190555084600080600354815260200190815260200160002060010160006101000a81548173ffffffffffffffffffffffffffffffffffffffff021916908373ffffffffffffffffffffffffffffffffffffffff1602179055508360008060035481526020019081526020016000206002019080519060200190610c6b929190610cd7565b50826000806003548152602001908152602001600020600301819055508160008060035481526020019081526020016000206004019080519060200190610cb3929190610cd7565b50806000806003548152602001908152602001600020600501819055505050505050565b828054600181600116156101000203166002900490600052602060002090601f016020900481019282601f10610d1857805160ff1916838001178555610d46565b82800160010185558215610d46579182015b82811115610d45578251825591602001919060010190610d2a565b5b509050610d539190610d57565b5090565b610d7991905b80821115610d75576000816000905550600101610d5d565b5090565b9056fe43616e646964617465206e6f742070617274206f662063616e646964617465206c697374a265627a7a7231582021ce766a67c23ceaef97025db71514dcde9ab116b943f34dfda67c8d86de61ed64736f6c63430005100032",
  "source": "// SPDX-License-Identifier: MIT\npragma solidity >=0.4.22 <0.9.0;\n\ncontract Election {\n    // Model a base USER\n    struct user {\n        uint256 id;\n        address add;\n        string name;\n        // string C_pwd;\n        uint256 E_id;\n        // string profile_path;\n        string email;\n        // Permissions:- 0: Voter, 1: Candidate, 2: Admin\n        uint256 permissions;\n    }\n\n    struct candidate {\n        uint256 C_id;\n        uint256 vote_count;\n    }\n\n    // Fetch Candidte\n    mapping(uint256 => user) public users;\n\n    candidate[] public candidates;\n\n    // voted event\n    event votedEvent(uint256 indexed _C_id);\n\n    // Store accounts that have voted\n    mapping(address => bool) public voters;\n\n    // Store Candidates Count\n    uint256 public user_count = 0;\n\n    // Add users(Voters), but first add Admin\n    function add_user(\n        address _add,\n        string memory _name,\n        uint256 _e_id,\n        string memory _email,\n        uint256 _permissions\n    ) public {\n        user_count++;\n        users[user_count].id = user_count; /* = users(user_count, _add, _name, _e_id, _email, _permissions); */\n        users[user_count].add = _add;\n        users[user_count].name = _name;\n        users[user_count].E_id = _e_id;\n        users[user_count].email = _email;\n        users[user_count].permissions = _permissions;\n    }\n\n    // Add candidates after getting requests from voters and after the registration date has passed\n    function add_candidate(uint256 _C_id) public {\n        // Require that the user is not an Admin\n        require(users[_C_id].id != 0, \"The User is not an Admin\");\n        // Require that the user is a voter\n        require(users[_C_id].permissions == 0, \"The User is a voter initially\");\n\n        // Check if we can change the user struct value\n        users[_C_id].permissions = 1;\n        candidates.push(candidate({C_id: _C_id, vote_count: 0}));\n    }\n\n    function vote(uint256 _C_id) public {\n        // Require that the user is not the admin\n        require(users[0].add != msg.sender, \"The User is not an Admin\");\n        // Require to check that the voter hasn't voted before\n        require(!voters[msg.sender], \"The voter hasn't voted before\");\n\n        //Election id of candidate and voter are same\n        uint256 curElectionId;\n        uint256 i = 0;\n        for (i = 2; i < user_count; i++) {\n            if (users[i].add == msg.sender) {\n                curElectionId = users[i].E_id;\n                break;\n            }\n        }\n        require(users[_C_id].E_id == curElectionId);\n\n        uint256 flag = 0;\n        i = 0;\n        for (; i < candidates.length; i++) {\n            if (candidates[i].C_id == _C_id) {\n                // candidates[i].vote_count++;\n                flag = 1;\n                break;\n            }\n        }\n        // Require that the _C_id is present in the candidates list\n        require(flag == 1, \"Candidate not part of candidate list\");\n        candidates[i].vote_count++;\n        voters[msg.sender] = true;\n\n        // trigger voted event\n        emit votedEvent(_C_id);\n    }\n\n    // Constructor\n    constructor() public {\n        // Add admin first\n        add_user(\n            0x7D8d4E73350E695e351E80705B8B6F30bAcF00CC,\n            \"admin\",\n            0,\n            \"admin@coep.ac.in\",\n            2\n        );\n        add_user(\n            0x42263Ea939bd28d268499f1191F2F4CAA5294553,\n            \"voter 1\",\n            1,\n            \"voter1@gmail.com\",\n            0\n        );\n        add_user(\n            0xD85974B619F77067D9959ac4a92f9644f76C5899,\n            \"candidate 1\",\n            1,\n            \"voter2@gmail.com\",\n            0\n        );\n        add_candidate(3);\n    }\n}\n",
  "sourcePath": "/home/muskan/Desktop/OnlineElectionPortal/OnlineElectionPortal/contracts/Election.sol",
  "compiler": {
    "name": "solc",
    "version": "0.5.16+commit.9c3226ce.Emscripten.clang"
  },
  "schemaVersion": "3.3.4",
  "updatedAt": "2021-04-17T19:38:46.542Z",
  "networkType": "ethereum",
  "devdoc": {
    "methods": {}
  },
  "userdoc": {
    "methods": {}
  }
}