{
  "contractName": "Election",
  "abi": [
    {
      "inputs": [],
      "payable": false,
      "stateMutability": "nonpayable",
      "type": "constructor"
    },
    {
      "anonymous": false,
      "inputs": [
        {
          "indexed": true,
          "internalType": "uint256",
          "name": "_C_id",
          "type": "uint256"
        }
      ],
      "name": "votedEvent",
      "type": "event"
    },
    {
      "constant": true,
      "inputs": [],
      "name": "candidate_count",
      "outputs": [
        {
          "internalType": "uint256",
          "name": "",
          "type": "uint256"
        }
      ],
      "payable": false,
      "stateMutability": "view",
      "type": "function"
    },
    {
      "constant": true,
      "inputs": [
        {
          "internalType": "uint256",
          "name": "",
          "type": "uint256"
        }
      ],
      "name": "candidates",
      "outputs": [
        {
          "internalType": "uint256",
          "name": "C_id",
          "type": "uint256"
        },
        {
          "internalType": "uint256",
          "name": "vote_count",
          "type": "uint256"
        },
        {
          "internalType": "string",
          "name": "C_name",
          "type": "string"
        },
        {
          "internalType": "uint256",
          "name": "E_id",
          "type": "uint256"
        }
      ],
      "payable": false,
      "stateMutability": "view",
      "type": "function"
    },
    {
      "constant": true,
      "inputs": [],
      "name": "election_count",
      "outputs": [
        {
          "internalType": "uint256",
          "name": "",
          "type": "uint256"
        }
      ],
      "payable": false,
      "stateMutability": "view",
      "type": "function"
    },
    {
      "constant": true,
      "inputs": [
        {
          "internalType": "uint256",
          "name": "",
          "type": "uint256"
        }
      ],
      "name": "elections",
      "outputs": [
        {
          "internalType": "uint256",
          "name": "E_id",
          "type": "uint256"
        },
        {
          "internalType": "string",
          "name": "E_name",
          "type": "string"
        },
        {
          "internalType": "uint256",
          "name": "time_cand_register_end",
          "type": "uint256"
        },
        {
          "internalType": "uint256",
          "name": "time_polling_starts",
          "type": "uint256"
        },
        {
          "internalType": "uint256",
          "name": "time_polling_ends",
          "type": "uint256"
        }
      ],
      "payable": false,
      "stateMutability": "view",
      "type": "function"
    },
    {
      "constant": true,
      "inputs": [],
      "name": "user_count",
      "outputs": [
        {
          "internalType": "uint256",
          "name": "",
          "type": "uint256"
        }
      ],
      "payable": false,
      "stateMutability": "view",
      "type": "function"
    },
    {
      "constant": true,
      "inputs": [
        {
          "internalType": "uint256",
          "name": "",
          "type": "uint256"
        }
      ],
      "name": "users",
      "outputs": [
        {
          "internalType": "uint256",
          "name": "id",
          "type": "uint256"
        },
        {
          "internalType": "address",
          "name": "add",
          "type": "address"
        },
        {
          "internalType": "string",
          "name": "name",
          "type": "string"
        },
        {
          "internalType": "string",
          "name": "email",
          "type": "string"
        },
        {
          "internalType": "uint256",
          "name": "permissions",
          "type": "uint256"
        }
      ],
      "payable": false,
      "stateMutability": "view",
      "type": "function"
    },
    {
      "constant": true,
      "inputs": [
        {
          "internalType": "address",
          "name": "",
          "type": "address"
        }
      ],
      "name": "voters",
      "outputs": [
        {
          "internalType": "bool",
          "name": "",
          "type": "bool"
        }
      ],
      "payable": false,
      "stateMutability": "view",
      "type": "function"
    },
    {
      "constant": false,
      "inputs": [
        {
          "internalType": "string",
          "name": "_E_name",
          "type": "string"
        },
        {
          "internalType": "uint256",
          "name": "_time_cand_register_end",
          "type": "uint256"
        },
        {
          "internalType": "uint256",
          "name": "_time_polling_starts",
          "type": "uint256"
        },
        {
          "internalType": "uint256",
          "name": "_time_polling_ends",
          "type": "uint256"
        }
      ],
      "name": "add_election",
      "outputs": [],
      "payable": false,
      "stateMutability": "nonpayable",
      "type": "function"
    },
    {
      "constant": false,
      "inputs": [
        {
          "internalType": "address",
          "name": "_add",
          "type": "address"
        },
        {
          "internalType": "string",
          "name": "_name",
          "type": "string"
        },
        {
          "internalType": "string",
          "name": "_email",
          "type": "string"
        },
        {
          "internalType": "uint256",
          "name": "_permissions",
          "type": "uint256"
        }
      ],
      "name": "add_user",
      "outputs": [],
      "payable": false,
      "stateMutability": "nonpayable",
      "type": "function"
    },
    {
      "constant": false,
      "inputs": [
        {
          "internalType": "uint256",
          "name": "_C_id",
          "type": "uint256"
        },
        {
          "internalType": "string",
          "name": "_C_name",
          "type": "string"
        },
        {
          "internalType": "uint256",
          "name": "_E_id",
          "type": "uint256"
        }
      ],
      "name": "add_candidate",
      "outputs": [],
      "payable": false,
      "stateMutability": "nonpayable",
      "type": "function"
    },
    {
      "constant": false,
      "inputs": [
        {
          "internalType": "uint256",
          "name": "_E_id",
          "type": "uint256"
        },
        {
          "internalType": "address",
          "name": "u_addr",
          "type": "address"
        }
      ],
      "name": "add_user_for_admin",
      "outputs": [],
      "payable": false,
      "stateMutability": "nonpayable",
      "type": "function"
    },
    {
      "constant": false,
      "inputs": [
        {
          "internalType": "uint256",
          "name": "_C_id",
          "type": "uint256"
        }
      ],
      "name": "vote",
      "outputs": [],
      "payable": false,
      "stateMutability": "nonpayable",
      "type": "function"
    }
  ],
  "bytecode": "0x608060405260006004556000600555600060065560006007553480156200002557600080fd5b50620000b9737d8d4e73350e695e351e80705b8b6f30bacf00cc6040518060400160405280600581526020017f61646d696e0000000000000000000000000000000000000000000000000000008152506040518060400160405280601081526020017f61646d696e40636f65702e61632e696e0000000000000000000000000000000081525060026200033e60201b60201c565b6200014c7342263ea939bd28d268499f1191f2f4caa52945536040518060400160405280600781526020017f766f7465722031000000000000000000000000000000000000000000000000008152506040518060400160405280601081526020017f766f7465723140676d61696c2e636f6d0000000000000000000000000000000081525060006200033e60201b60201c565b620001df73d85974b619f77067d9959ac4a92f9644f76c58996040518060400160405280600b81526020017f63616e64696461746520310000000000000000000000000000000000000000008152506040518060400160405280601081526020017f766f7465723240676d61696c2e636f6d0000000000000000000000000000000081525060006200033e60201b60201c565b6200022e6040518060400160405280600781526020017f47796b68616e6100000000000000000000000000000000000000000000000000815250611388611770611b586200048460201b60201c565b6200027d6040518060400160405280600381526020017f5365630000000000000000000000000000000000000000000000000000000000815250611388611770611b586200048460201b60201c565b620002a460017342263ea939bd28d268499f1191f2f4caa52945536200054160201b60201c565b620002ee60036040518060400160405280600b81526020017f63616e646964617465203100000000000000000000000000000000000000000081525060016200062060201b60201c565b6200033860026040518060400160405280600781526020017f766f74657220310000000000000000000000000000000000000000000000000081525060016200062060201b60201c565b62000930565b60046000815480929190600101919050555060045460008060045481526020019081526020016000206000018190555083600080600454815260200190815260200160002060010160006101000a81548173ffffffffffffffffffffffffffffffffffffffff021916908373ffffffffffffffffffffffffffffffffffffffff160217905550600080600454815260200190815260200160002060030160009080600181540180825580915050906001820390600052602060002001600090919290919091505550826000806004548152602001908152602001600020600201908051906020019062000433929190620007fa565b50816000806004548152602001908152602001600020600401908051906020019062000461929190620007fa565b508060008060045481526020019081526020016000206005018190555050505050565b60056000815480929190600101919050555060055460016000600554815260200190815260200160002060000181905550836001600060055481526020019081526020016000206001019080519060200190620004e3929190620007fa565b5082600160006005548152602001908152602001600020600201819055508160016000600554815260200190815260200160002060030181905550806001600060055481526020019081526020016000206004018190555050505050565b60006007819055505b600454600754116200061c578073ffffffffffffffffffffffffffffffffffffffff16600080600754815260200190815260200160002060010160009054906101000a900473ffffffffffffffffffffffffffffffffffffffff1673ffffffffffffffffffffffffffffffffffffffff161415620006045760008060075481526020019081526020016000206003018290806001815401808255809150509060018203906000526020600020016000909192909190915055505b6007600081548092919060010191905055506200054a565b5050565b6000806000858152602001908152602001600020600001541415620006ad576040517f08c379a00000000000000000000000000000000000000000000000000000000081526004018080602001828103825260188152602001807f5468652055736572206973206e6f7420616e2041646d696e000000000000000081525060200191505060405180910390fd5b6000806000858152602001908152602001600020600501541462000739576040517f08c379a000000000000000000000000000000000000000000000000000000000815260040180806020018281038252601d8152602001807f5468652055736572206973206120766f74657220696e697469616c6c7900000081525060200191505060405180910390fd5b6001600080858152602001908152602001600020600501819055506002604051806080016040528085815260200160008152602001848152602001838152509080600181540180825580915050906001820390600052602060002090600402016000909192909190915060008201518160000155602082015181600101556040820151816002019080519060200190620007d592919062000881565b5060608201518160030155505050600660008154809291906001019190505550505050565b828054600181600116156101000203166002900490600052602060002090601f016020900481019282601f106200083d57805160ff19168380011785556200086e565b828001600101855582156200086e579182015b828111156200086d57825182559160200191906001019062000850565b5b5090506200087d919062000908565b5090565b828054600181600116156101000203166002900490600052602060002090601f016020900481019282601f10620008c457805160ff1916838001178555620008f5565b82800160010185558215620008f5579182015b82811115620008f4578251825591602001919060010190620008d7565b5b50905062000904919062000908565b5090565b6200092d91905b80821115620009295760008160009055506001016200090f565b5090565b90565b61168680620009406000396000f3fe608060405234801561001057600080fd5b50600436106100b45760003560e01c80634b1c4c29116100715780634b1c4c29146104325780635e6fef01146104505780636280bac714610513578063a3ec138d1461068f578063bb805f69146106eb578063ec853e2814610709576100b4565b80630121b93f146100b957806301442d91146100e757806306e852c0146101b65780630732583c146102045780633477ee2e14610222578063365b98b2146102de575b600080fd5b6100e5600480360360208110156100cf57600080fd5b81019080803590602001909291905050506107e2565b005b6101b4600480360360608110156100fd57600080fd5b81019080803590602001909291908035906020019064010000000081111561012457600080fd5b82018360208201111561013657600080fd5b8035906020019184600183028401116401000000008311171561015857600080fd5b91908080601f016020809104026020016040519081016040528093929190818152602001838380828437600081840152601f19601f82011690508083019250505050505050919291929080359060200190929190505050610cdd565b005b610202600480360360408110156101cc57600080fd5b8101908080359060200190929190803573ffffffffffffffffffffffffffffffffffffffff169060200190929190505050610eb3565b005b61020c610f8f565b6040518082815260200191505060405180910390f35b61024e6004803603602081101561023857600080fd5b8101908080359060200190929190505050610f95565b6040518085815260200184815260200180602001838152602001828103825284818151815260200191508051906020019080838360005b838110156102a0578082015181840152602081019050610285565b50505050905090810190601f1680156102cd5780820380516001836020036101000a031916815260200191505b509550505050505060405180910390f35b61030a600480360360208110156102f457600080fd5b810190808035906020019092919050505061106a565b604051808681526020018573ffffffffffffffffffffffffffffffffffffffff1673ffffffffffffffffffffffffffffffffffffffff1681526020018060200180602001848152602001838103835286818151815260200191508051906020019080838360005b8381101561038c578082015181840152602081019050610371565b50505050905090810190601f1680156103b95780820380516001836020036101000a031916815260200191505b50838103825285818151815260200191508051906020019080838360005b838110156103f25780820151818401526020810190506103d7565b50505050905090810190601f16801561041f5780820380516001836020036101000a031916815260200191505b5097505050505050505060405180910390f35b61043a6111f0565b6040518082815260200191505060405180910390f35b61047c6004803603602081101561046657600080fd5b81019080803590602001909291905050506111f6565b6040518086815260200180602001858152602001848152602001838152602001828103825286818151815260200191508051906020019080838360005b838110156104d45780820151818401526020810190506104b9565b50505050905090810190601f1680156105015780820380516001836020036101000a031916815260200191505b50965050505050505060405180910390f35b61068d6004803603608081101561052957600080fd5b81019080803573ffffffffffffffffffffffffffffffffffffffff1690602001909291908035906020019064010000000081111561056657600080fd5b82018360208201111561057857600080fd5b8035906020019184600183028401116401000000008311171561059a57600080fd5b91908080601f016020809104026020016040519081016040528093929190818152602001838380828437600081840152601f19601f820116905080830192505050505050509192919290803590602001906401000000008111156105fd57600080fd5b82018360208201111561060f57600080fd5b8035906020019184600183028401116401000000008311171561063157600080fd5b91908080601f016020809104026020016040519081016040528093929190818152602001838380828437600081840152601f19601f820116905080830192505050505050509192919290803590602001909291905050506112c4565b005b6106d1600480360360208110156106a557600080fd5b81019080803573ffffffffffffffffffffffffffffffffffffffff169060200190929190505050611406565b604051808215151515815260200191505060405180910390f35b6106f3611426565b6040518082815260200191505060405180910390f35b6107e06004803603608081101561071f57600080fd5b810190808035906020019064010000000081111561073c57600080fd5b82018360208201111561074e57600080fd5b8035906020019184600183028401116401000000008311171561077057600080fd5b91908080601f016020809104026020016040519081016040528093929190818152602001838380828437600081840152601f19601f82011690508083019250505050505050919291929080359060200190929190803590602001909291908035906020019092919050505061142c565b005b3373ffffffffffffffffffffffffffffffffffffffff166000806001815260200190815260200160002060010160009054906101000a900473ffffffffffffffffffffffffffffffffffffffff1673ffffffffffffffffffffffffffffffffffffffff1614156108ba576040517f08c379a00000000000000000000000000000000000000000000000000000000081526004018080602001828103825260188152602001807f5468652055736572206973206e6f7420616e2041646d696e000000000000000081525060200191505060405180910390fd5b600360003373ffffffffffffffffffffffffffffffffffffffff1673ffffffffffffffffffffffffffffffffffffffff16815260200190815260200160002060009054906101000a900460ff161561097a576040517f08c379a000000000000000000000000000000000000000000000000000000000815260040180806020018281038252601d8152602001807f54686520766f746572206861736e277420766f746564206265666f726500000081525060200191505060405180910390fd5b60008060009050600080905060006007819055505b6006546007541015610a0257836002600754815481106109ab57fe5b90600052602060002090600402016000015414156109eb576002600754815481106109d257fe5b9060005260206000209060040201600301549250610a02565b60076000815480929190600101919050555061098f565b60026007819055505b60045460075411610b0a573373ffffffffffffffffffffffffffffffffffffffff16600080600754815260200190815260200160002060010160009054906101000a900473ffffffffffffffffffffffffffffffffffffffff1673ffffffffffffffffffffffffffffffffffffffff161415610af3575b600080600754815260200190815260200160002060030180549050821015610aee578260008060075481526020019081526020016000206003018381548110610ac757fe5b90600052602060002001541415610ae15760019050610aee565b8180600101925050610a82565b610b0a565b600760008154809291906001019190505550610a0b565b60018114610b63576040517f08c379a000000000000000000000000000000000000000000000000000000000815260040180806020018281038252602181526020018061160d6021913960400191505060405180910390fd5b600080905060006007819055505b6002805490506007541015610bc85784600260075481548110610b9057fe5b9060005260206000209060040201600001541415610bb15760019050610bc8565b600760008154809291906001019190505550610b71565b60018114610c21576040517f08c379a000000000000000000000000000000000000000000000000000000000815260040180806020018281038252602481526020018061162e6024913960400191505060405180910390fd5b600260075481548110610c3057fe5b9060005260206000209060040201600101600081548092919060010191905055506001600360003373ffffffffffffffffffffffffffffffffffffffff1673ffffffffffffffffffffffffffffffffffffffff16815260200190815260200160002060006101000a81548160ff021916908315150217905550847ffff3c900d938d21d0990d786e819f29b8d05c1ef587b462b939609625b684b1660405160405180910390a25050505050565b6000806000858152602001908152602001600020600001541415610d69576040517f08c379a00000000000000000000000000000000000000000000000000000000081526004018080602001828103825260188152602001807f5468652055736572206973206e6f7420616e2041646d696e000000000000000081525060200191505060405180910390fd5b60008060008581526020019081526020016000206005015414610df4576040517f08c379a000000000000000000000000000000000000000000000000000000000815260040180806020018281038252601d8152602001807f5468652055736572206973206120766f74657220696e697469616c6c7900000081525060200191505060405180910390fd5b6001600080858152602001908152602001600020600501819055506002604051806080016040528085815260200160008152602001848152602001838152509080600181540180825580915050906001820390600052602060002090600402016000909192909190915060008201518160000155602082015181600101556040820151816002019080519060200190610e8e9291906114e7565b5060608201518160030155505050600660008154809291906001019190505550505050565b60006007819055505b60045460075411610f8b578073ffffffffffffffffffffffffffffffffffffffff16600080600754815260200190815260200160002060010160009054906101000a900473ffffffffffffffffffffffffffffffffffffffff1673ffffffffffffffffffffffffffffffffffffffff161415610f745760008060075481526020019081526020016000206003018290806001815401808255809150509060018203906000526020600020016000909192909190915055505b600760008154809291906001019190505550610ebc565b5050565b60055481565b60028181548110610fa257fe5b9060005260206000209060040201600091509050806000015490806001015490806002018054600181600116156101000203166002900480601f01602080910402602001604051908101604052809291908181526020018280546001816001161561010002031660029004801561105a5780601f1061102f5761010080835404028352916020019161105a565b820191906000526020600020905b81548152906001019060200180831161103d57829003601f168201915b5050505050908060030154905084565b60006020528060005260406000206000915090508060000154908060010160009054906101000a900473ffffffffffffffffffffffffffffffffffffffff1690806002018054600181600116156101000203166002900480601f0160208091040260200160405190810160405280929190818152602001828054600181600116156101000203166002900480156111425780601f1061111757610100808354040283529160200191611142565b820191906000526020600020905b81548152906001019060200180831161112557829003601f168201915b505050505090806004018054600181600116156101000203166002900480601f0160208091040260200160405190810160405280929190818152602001828054600181600116156101000203166002900480156111e05780601f106111b5576101008083540402835291602001916111e0565b820191906000526020600020905b8154815290600101906020018083116111c357829003601f168201915b5050505050908060050154905085565b60065481565b6001602052806000526040600020600091509050806000015490806001018054600181600116156101000203166002900480601f0160208091040260200160405190810160405280929190818152602001828054600181600116156101000203166002900480156112a85780601f1061127d576101008083540402835291602001916112a8565b820191906000526020600020905b81548152906001019060200180831161128b57829003601f168201915b5050505050908060020154908060030154908060040154905085565b60046000815480929190600101919050555060045460008060045481526020019081526020016000206000018190555083600080600454815260200190815260200160002060010160006101000a81548173ffffffffffffffffffffffffffffffffffffffff021916908373ffffffffffffffffffffffffffffffffffffffff16021790555060008060045481526020019081526020016000206003016000908060018154018082558091505090600182039060005260206000200160009091929091909150555082600080600454815260200190815260200160002060020190805190602001906113b7929190611567565b5081600080600454815260200190815260200160002060040190805190602001906113e3929190611567565b508060008060045481526020019081526020016000206005018190555050505050565b60036020528060005260406000206000915054906101000a900460ff1681565b60045481565b60056000815480929190600101919050555060055460016000600554815260200190815260200160002060000181905550836001600060055481526020019081526020016000206001019080519060200190611489929190611567565b5082600160006005548152602001908152602001600020600201819055508160016000600554815260200190815260200160002060030181905550806001600060055481526020019081526020016000206004018190555050505050565b828054600181600116156101000203166002900490600052602060002090601f016020900481019282601f1061152857805160ff1916838001178555611556565b82800160010185558215611556579182015b8281111561155557825182559160200191906001019061153a565b5b50905061156391906115e7565b5090565b828054600181600116156101000203166002900490600052602060002090601f016020900481019282601f106115a857805160ff19168380011785556115d6565b828001600101855582156115d6579182015b828111156115d55782518255916020019190600101906115ba565b5b5090506115e391906115e7565b5090565b61160991905b808211156116055760008160009055506001016115ed565b5090565b9056fe55736572206973206120766f74657220666f72207468697320656c656374696f6e43616e646964617465206e6f742070617274206f662063616e646964617465206c697374a265627a7a72315820006e3621581c4ed5ed62540f0e8d346152931dd60942b186efcbe49a55b1104964736f6c63430005100032",
  "source": "// SPDX-License-Identifier: MIT\npragma solidity >=0.4.22 <0.9.0;\n\ncontract Election {\n    // Model a base USER\n    struct user {\n        // Admin has the UserId 1\n        uint256 id;\n        address add;\n        string name;\n        uint256[] E_id;\n        // string profile_path;\n        string email;\n        // Permissions:- 0: Voter, 1: Candidate, 2: Admin, -1: Invalid\n        uint256 permissions;\n    }\n\n    struct candidate {\n        uint256 C_id;\n        uint256 vote_count;\n        string C_name;\n        uint256 E_id;\n    }\n\n    struct election {\n        uint256 E_id;\n        string E_name;\n        // time will be stored in milliseconds on blockchain, and JS will handle it accordingly.\n        // Campaigning time will start just after time for candidate registration is over and\n        // will end 24 hrs prior to polling\n        uint256 time_cand_register_end;\n        uint256 time_polling_starts;\n        uint256 time_polling_ends;\n    }\n\n    // Fetch Users\n    mapping(uint256 => user) public users;\n\n    // store elections\n    mapping(uint256 => election) public elections;\n\n    // Array of candidate struct to store candidates\n    candidate[] public candidates;\n\n    // voted event\n    event votedEvent(uint256 indexed _C_id);\n\n    // Store accounts that have voted\n    mapping(address => bool) public voters;\n\n    // Store Candidates Count\n    uint256 public user_count = 0;\n\n    // Store Eletions Count\n    uint256 public election_count = 0;\n\n    // Add elections\n    // Remember election_count is same as E_id for a particular election.\n    function add_election(\n        string memory _E_name,\n        uint256 _time_cand_register_end,\n        uint256 _time_polling_starts,\n        uint256 _time_polling_ends\n    ) public {\n        // Check in JS that the time entered are accordingly after the current time.\n        // i.e current_time < cand_time < poll_start < poll_end;\n        election_count++;\n        elections[election_count].E_id = election_count;\n        elections[election_count].E_name = _E_name;\n        elections[election_count]\n            .time_cand_register_end = _time_cand_register_end;\n        elections[election_count].time_polling_starts = _time_polling_starts;\n        elections[election_count].time_polling_ends = _time_polling_ends;\n    }\n\n    // Add users(Voters), but first add Admin\n    // Remember user_count is same as id\n    function add_user(\n        address _add,\n        string memory _name,\n        string memory _email,\n        uint256 _permissions\n    ) public {\n        user_count++;\n        users[user_count].id = user_count;\n        users[user_count].add = _add;\n        users[user_count].E_id.push(0);\n        users[user_count].name = _name;\n        users[user_count].email = _email;\n        users[user_count].permissions = _permissions;\n    }\n\n    uint256 public candidate_count = 0;\n    uint256 i = 0;\n\n    // Add candidates after getting requests from voters and after the registration date has passed\n    function add_candidate(\n        uint256 _C_id,\n        string memory _C_name,\n        uint256 _E_id\n    ) public {\n        // Require that the user is not an Admin\n        require(users[_C_id].id != 0, \"The User is not an Admin\");\n        // Require that the user is a voter and also not invalid\n        require(users[_C_id].permissions == 0, \"The User is a voter initially\");\n\n        // Check if we can change the user struct value\n        users[_C_id].permissions = 1;\n        candidates.push(\n            candidate({\n                C_id: _C_id,\n                vote_count: 0,\n                C_name: _C_name,\n                E_id: _E_id\n            })\n        );\n        candidate_count++;\n    }\n\n    function add_user_for_admin(uint256 _E_id, address u_addr) public {\n        for (i = 0; i <= user_count; i++) {\n            if (users[i].add == u_addr) {\n                users[i].E_id.push(_E_id);\n            }\n        }\n    }\n\n    function vote(uint256 _C_id) public {\n        // Require that the user is not the admin\n        require(users[1].add != msg.sender, \"The User is not an Admin\");\n        // Require to check that the voter hasn't voted before\n        require(!voters[msg.sender], \"The voter hasn't voted before\");\n\n        //Election id of candidate and voter are same\n        uint256 curElectionId;\n        uint256 j = 0;\n        uint256 uflag = 0;\n\n        for (i = 0; i < candidate_count; i++) {\n            if (candidates[i].C_id == _C_id) {\n                curElectionId = candidates[i].E_id;\n                break;\n            }\n        }\n\n        for (i = 2; i <= user_count; i++) {\n            if (users[i].add == msg.sender) {\n                for (; j < (users[i].E_id.length); j++) {\n                    if (users[i].E_id[j] == curElectionId) {\n                        uflag = 1;\n                        break;\n                    }\n                }\n                break;\n            }\n        }\n        require(uflag == 1, \"User is a voter for this election\");\n\n        uint256 flag = 0;\n        i = 0;\n        for (; i < candidates.length; i++) {\n            if (candidates[i].C_id == _C_id) {\n                // candidates[i].vote_count++;\n                flag = 1;\n                break;\n            }\n        }\n        // Require that the _C_id is present in the candidates list\n        require(flag == 1, \"Candidate not part of candidate list\");\n        candidates[i].vote_count++;\n        voters[msg.sender] = true;\n\n        // trigger voted event\n        emit votedEvent(_C_id);\n    }\n\n    // Constructor\n    constructor() public {\n        // Add admin first\n        add_user(\n            0x7D8d4E73350E695e351E80705B8B6F30bAcF00CC,\n            \"admin\",\n            \"admin@coep.ac.in\",\n            2\n        );\n        add_user(\n            0x42263Ea939bd28d268499f1191F2F4CAA5294553,\n            \"voter 1\",\n            \"voter1@gmail.com\",\n            0\n        );\n        add_user(\n            0xD85974B619F77067D9959ac4a92f9644f76C5899,\n            \"candidate 1\",\n            \"voter2@gmail.com\",\n            0\n        );\n        add_election(\"Gykhana\", 5000, 6000, 7000);\n        add_election(\"Sec\", 5000, 6000, 7000);\n        add_user_for_admin(1, 0x42263Ea939bd28d268499f1191F2F4CAA5294553);\n        add_candidate(3, \"candidate 1\", 1);\n        add_candidate(2, \"voter 1\", 1);\n    }\n}\n",
  "sourcePath": "/home/muskan/Desktop/OnlineElectionPortal/OnlineElectionPortal/contracts/Election.sol",
  "compiler": {
    "name": "solc",
    "version": "0.5.16+commit.9c3226ce.Emscripten.clang"
  },
  "schemaVersion": "3.3.4",
  "updatedAt": "2021-04-19T10:05:02.799Z",
  "networkType": "ethereum",
  "devdoc": {
    "methods": {}
  },
  "userdoc": {
    "methods": {}
  }
}