{
  "contractName": "Election",
  "abi": [
    {
      "inputs": [],
      "payable": false,
      "stateMutability": "nonpayable",
      "type": "constructor"
    },
    {
      "anonymous": false,
      "inputs": [
        {
          "indexed": true,
          "internalType": "uint256",
          "name": "_C_id",
          "type": "uint256"
        }
      ],
      "name": "votedEvent",
      "type": "event"
    },
    {
      "constant": true,
      "inputs": [],
      "name": "candidate_count",
      "outputs": [
        {
          "internalType": "uint256",
          "name": "",
          "type": "uint256"
        }
      ],
      "payable": false,
      "stateMutability": "view",
      "type": "function"
    },
    {
      "constant": true,
      "inputs": [
        {
          "internalType": "uint256",
          "name": "",
          "type": "uint256"
        }
      ],
      "name": "candidates",
      "outputs": [
        {
          "internalType": "uint256",
          "name": "C_id",
          "type": "uint256"
        },
        {
          "internalType": "uint256",
          "name": "vote_count",
          "type": "uint256"
        },
        {
          "internalType": "string",
          "name": "C_name",
          "type": "string"
        },
        {
          "internalType": "uint256",
          "name": "E_id",
          "type": "uint256"
        }
      ],
      "payable": false,
      "stateMutability": "view",
      "type": "function"
    },
    {
      "constant": true,
      "inputs": [],
      "name": "election_count",
      "outputs": [
        {
          "internalType": "uint256",
          "name": "",
          "type": "uint256"
        }
      ],
      "payable": false,
      "stateMutability": "view",
      "type": "function"
    },
    {
      "constant": true,
      "inputs": [
        {
          "internalType": "uint256",
          "name": "",
          "type": "uint256"
        }
      ],
      "name": "elections",
      "outputs": [
        {
          "internalType": "uint256",
          "name": "E_id",
          "type": "uint256"
        },
        {
          "internalType": "string",
          "name": "E_name",
          "type": "string"
        },
        {
          "internalType": "uint256",
          "name": "time_cand_register_end",
          "type": "uint256"
        },
        {
          "internalType": "uint256",
          "name": "time_polling_starts",
          "type": "uint256"
        },
        {
          "internalType": "uint256",
          "name": "time_polling_ends",
          "type": "uint256"
        }
      ],
      "payable": false,
      "stateMutability": "view",
      "type": "function"
    },
    {
      "constant": true,
      "inputs": [
        {
          "internalType": "uint256",
          "name": "",
          "type": "uint256"
        }
      ],
      "name": "reports_recieved",
      "outputs": [
        {
          "internalType": "bool",
          "name": "",
          "type": "bool"
        }
      ],
      "payable": false,
      "stateMutability": "view",
      "type": "function"
    },
    {
      "constant": true,
      "inputs": [],
      "name": "user_count",
      "outputs": [
        {
          "internalType": "uint256",
          "name": "",
          "type": "uint256"
        }
      ],
      "payable": false,
      "stateMutability": "view",
      "type": "function"
    },
    {
      "constant": true,
      "inputs": [
        {
          "internalType": "uint256",
          "name": "",
          "type": "uint256"
        }
      ],
      "name": "users",
      "outputs": [
        {
          "internalType": "uint256",
          "name": "id",
          "type": "uint256"
        },
        {
          "internalType": "address",
          "name": "add",
          "type": "address"
        },
        {
          "internalType": "string",
          "name": "name",
          "type": "string"
        },
        {
          "internalType": "string",
          "name": "email",
          "type": "string"
        },
        {
          "internalType": "int256",
          "name": "permissions",
          "type": "int256"
        }
      ],
      "payable": false,
      "stateMutability": "view",
      "type": "function"
    },
    {
      "constant": true,
      "inputs": [],
      "name": "voter_list_count",
      "outputs": [
        {
          "internalType": "uint256",
          "name": "",
          "type": "uint256"
        }
      ],
      "payable": false,
      "stateMutability": "view",
      "type": "function"
    },
    {
      "constant": true,
      "inputs": [
        {
          "internalType": "uint256",
          "name": "",
          "type": "uint256"
        }
      ],
      "name": "voterlist",
      "outputs": [
        {
          "internalType": "uint256",
          "name": "id",
          "type": "uint256"
        },
        {
          "internalType": "uint256",
          "name": "E_id",
          "type": "uint256"
        },
        {
          "internalType": "bool",
          "name": "voted",
          "type": "bool"
        }
      ],
      "payable": false,
      "stateMutability": "view",
      "type": "function"
    },
    {
      "constant": false,
      "inputs": [
        {
          "internalType": "string",
          "name": "_E_name",
          "type": "string"
        },
        {
          "internalType": "uint256",
          "name": "_time_cand_register_end",
          "type": "uint256"
        },
        {
          "internalType": "uint256",
          "name": "_time_polling_starts",
          "type": "uint256"
        },
        {
          "internalType": "uint256",
          "name": "_time_polling_ends",
          "type": "uint256"
        }
      ],
      "name": "add_election",
      "outputs": [],
      "payable": false,
      "stateMutability": "nonpayable",
      "type": "function"
    },
    {
      "constant": false,
      "inputs": [
        {
          "internalType": "uint256",
          "name": "_id",
          "type": "uint256"
        }
      ],
      "name": "report_by_user",
      "outputs": [],
      "payable": false,
      "stateMutability": "nonpayable",
      "type": "function"
    },
    {
      "constant": false,
      "inputs": [
        {
          "internalType": "uint256",
          "name": "_id",
          "type": "uint256"
        }
      ],
      "name": "blacklist_by_admin",
      "outputs": [],
      "payable": false,
      "stateMutability": "nonpayable",
      "type": "function"
    },
    {
      "constant": false,
      "inputs": [
        {
          "internalType": "address",
          "name": "_add",
          "type": "address"
        },
        {
          "internalType": "string",
          "name": "_name",
          "type": "string"
        },
        {
          "internalType": "string",
          "name": "_email",
          "type": "string"
        },
        {
          "internalType": "int256",
          "name": "_permissions",
          "type": "int256"
        }
      ],
      "name": "add_user",
      "outputs": [],
      "payable": false,
      "stateMutability": "nonpayable",
      "type": "function"
    },
    {
      "constant": false,
      "inputs": [
        {
          "internalType": "uint256",
          "name": "_C_id",
          "type": "uint256"
        },
        {
          "internalType": "string",
          "name": "_C_name",
          "type": "string"
        },
        {
          "internalType": "uint256",
          "name": "_E_id",
          "type": "uint256"
        }
      ],
      "name": "add_candidate",
      "outputs": [],
      "payable": false,
      "stateMutability": "nonpayable",
      "type": "function"
    },
    {
      "constant": false,
      "inputs": [
        {
          "internalType": "uint256",
          "name": "_C_id",
          "type": "uint256"
        }
      ],
      "name": "candidate_approved_by_admin",
      "outputs": [],
      "payable": false,
      "stateMutability": "nonpayable",
      "type": "function"
    },
    {
      "constant": false,
      "inputs": [
        {
          "internalType": "uint256",
          "name": "_E_id",
          "type": "uint256"
        },
        {
          "internalType": "uint256",
          "name": "_id",
          "type": "uint256"
        }
      ],
      "name": "add_voter_by_admin",
      "outputs": [],
      "payable": false,
      "stateMutability": "nonpayable",
      "type": "function"
    },
    {
      "constant": false,
      "inputs": [
        {
          "internalType": "uint256",
          "name": "_C_id",
          "type": "uint256"
        },
        {
          "internalType": "uint256",
          "name": "_E_id",
          "type": "uint256"
        },
        {
          "internalType": "uint256",
          "name": "_id",
          "type": "uint256"
        }
      ],
      "name": "vote",
      "outputs": [],
      "payable": false,
      "stateMutability": "nonpayable",
      "type": "function"
    }
  ],
  "bytecode": "0x6080604052600060055560006006556000600755600060085560006009556000600a553480156200002f57600080fd5b50620000c3737d8d4e73350e695e351e80705b8b6f30bacf00cc6040518060400160405280600581526020017f61646d696e0000000000000000000000000000000000000000000000000000008152506040518060400160405280601081526020017f61646d696e40636f65702e61632e696e0000000000000000000000000000000081525060026200036d60201b60201c565b620001567342263ea939bd28d268499f1191f2f4caa52945536040518060400160405280600781526020017f766f7465722031000000000000000000000000000000000000000000000000008152506040518060400160405280601081526020017f766f7465723140676d61696c2e636f6d0000000000000000000000000000000081525060006200036d60201b60201c565b620001e973d85974b619f77067d9959ac4a92f9644f76c58996040518060400160405280600b81526020017f63616e64696461746520310000000000000000000000000000000000000000008152506040518060400160405280601081526020017f766f7465723240676d61696c2e636f6d0000000000000000000000000000000081525060006200036d60201b60201c565b620001fd600160026200047160201b60201c565b62000211600160036200047160201b60201c565b620002606040518060400160405280600781526020017f47796b68616e6100000000000000000000000000000000000000000000000000815250611388611770611b58620004f260201b60201c565b620002af6040518060400160405280600381526020017f5365630000000000000000000000000000000000000000000000000000000000815250611388611770611b58620004f260201b60201c565b620002f960036040518060400160405280600b81526020017f63616e64696461746520310000000000000000000000000000000000000000008152506001620005af60201b60201c565b6200034360026040518060400160405280600781526020017f766f7465722031000000000000000000000000000000000000000000000000008152506001620005af60201b60201c565b6200035560026200087c60201b60201c565b6200036760036200087c60201b60201c565b620009d0565b60056000815480929190600101919050555060055460008060055481526020019081526020016000206000018190555083600080600554815260200190815260200160002060010160006101000a81548173ffffffffffffffffffffffffffffffffffffffff021916908373ffffffffffffffffffffffffffffffffffffffff1602179055508260008060055481526020019081526020016000206002019080519060200190620004209291906200089a565b5081600080600554815260200190815260200160002060030190805190602001906200044e9291906200089a565b508060008060055481526020019081526020016000206004018190555050505050565b60066000815480929190600101919050555081600360006006548152602001908152602001600020600101819055508060036000600654815260200190815260200160002060000181905550600060036000600654815260200190815260200160002060020160006101000a81548160ff0219169083151502179055505050565b60076000815480929190600101919050555060075460016000600754815260200190815260200160002060000181905550836001600060075481526020019081526020016000206001019080519060200190620005519291906200089a565b5082600160006007548152602001908152602001600020600201819055508160016000600754815260200190815260200160002060030181905550806001600060075481526020019081526020016000206004018190555050505050565b60008060008581526020019081526020016000206000015414156200063c576040517f08c379a00000000000000000000000000000000000000000000000000000000081526004018080602001828103825260188152602001807f5468652055736572206973206e6f7420616e2041646d696e000000000000000081525060200191505060405180910390fd5b600080905060016009819055505b60065460095411620006bd5783600360006009548152602001908152602001600020600001541480156200069557508160036000600954815260200190815260200160002060010154145b15620006a55760019050620006bd565b6009600081548092919060010191905055506200064a565b6001811462000718576040517f08c379a0000000000000000000000000000000000000000000000000000000008152600401808060200182810382526035815260200180620021a26035913960400191505060405180910390fd5b6000905060006009819055505b60085460095410156200077957836004600954815481106200074357fe5b90600052602060002090600402016000015414156200076157600190505b60096000815480929190600101919050555062000725565b6001811415620007d5576040517f08c379a00000000000000000000000000000000000000000000000000000000081526004018080602001828103825260348152602001806200216e6034913960400191505060405180910390fd5b60046040518060800160405280868152602001600081526020018581526020018481525090806001815401808255809150509060018203906000526020600020906004020160009091929091909150600082015181600001556020820151816001015560408201518160020190805190602001906200085692919062000921565b506060820151816003015550505060086000815480929190600101919050555050505050565b60016000808381526020019081526020016000206004018190555050565b828054600181600116156101000203166002900490600052602060002090601f016020900481019282601f10620008dd57805160ff19168380011785556200090e565b828001600101855582156200090e579182015b828111156200090d578251825591602001919060010190620008f0565b5b5090506200091d9190620009a8565b5090565b828054600181600116156101000203166002900490600052602060002090601f016020900481019282601f106200096457805160ff191683800117855562000995565b8280016001018555821562000995579182015b828111156200099457825182559160200191906001019062000977565b5b509050620009a49190620009a8565b5090565b620009cd91905b80821115620009c9576000816000905550600101620009af565b5090565b90565b61178e80620009e06000396000f3fe608060405234801561001057600080fd5b506004361061010b5760003560e01c806354d8d6d2116100a25780639e7df6ee116100715780639e7df6ee14610636578063a1b40c591461067c578063bb805f69146107f8578063bca6a80614610816578063ec853e28146108445761010b565b806354d8d6d2146104bf5780635e6fef01146105135780637361068c146105d65780638a6655d6146105f45761010b565b80633477ee2e116100de5780633477ee2e14610263578063365b98b21461031f5780633ed29e6e146104735780634b1c4c29146104a15761010b565b806301442d91146101105780630732583c146101df5780630b6f61ee146101fd5780631ebdeebb1461022b575b600080fd5b6101dd6004803603606081101561012657600080fd5b81019080803590602001909291908035906020019064010000000081111561014d57600080fd5b82018360208201111561015f57600080fd5b8035906020019184600183028401116401000000008311171561018157600080fd5b91908080601f016020809104026020016040519081016040528093929190818152602001838380828437600081840152601f19601f8201169050808301925050505050505091929192908035906020019092919050505061091d565b005b6101e7610bda565b6040518082815260200191505060405180910390f35b6102296004803603602081101561021357600080fd5b8101908080359060200190929190505050610be0565b005b6102616004803603604081101561024157600080fd5b810190808035906020019092919080359060200190929190505050610c1d565b005b61028f6004803603602081101561027957600080fd5b8101908080359060200190929190505050610c9e565b6040518085815260200184815260200180602001838152602001828103825284818151815260200191508051906020019080838360005b838110156102e15780820151818401526020810190506102c6565b50505050905090810190601f16801561030e5780820380516001836020036101000a031916815260200191505b509550505050505060405180910390f35b61034b6004803603602081101561033557600080fd5b8101908080359060200190929190505050610d73565b604051808681526020018573ffffffffffffffffffffffffffffffffffffffff1673ffffffffffffffffffffffffffffffffffffffff1681526020018060200180602001848152602001838103835286818151815260200191508051906020019080838360005b838110156103cd5780820151818401526020810190506103b2565b50505050905090810190601f1680156103fa5780820380516001836020036101000a031916815260200191505b50838103825285818151815260200191508051906020019080838360005b83811015610433578082015181840152602081019050610418565b50505050905090810190601f1680156104605780820380516001836020036101000a031916815260200191505b5097505050505050505060405180910390f35b61049f6004803603602081101561048957600080fd5b8101908080359060200190929190505050610ef9565b005b6104a9610f17565b6040518082815260200191505060405180910390f35b6104eb600480360360208110156104d557600080fd5b8101908080359060200190929190505050610f1d565b6040518084815260200183815260200182151515158152602001935050505060405180910390f35b61053f6004803603602081101561052957600080fd5b8101908080359060200190929190505050610f54565b6040518086815260200180602001858152602001848152602001838152602001828103825286818151815260200191508051906020019080838360005b8381101561059757808201518184015260208101905061057c565b50505050905090810190601f1680156105c45780820380516001836020036101000a031916815260200191505b50965050505050505060405180910390f35b6105de611022565b6040518082815260200191505060405180910390f35b6106346004803603606081101561060a57600080fd5b81019080803590602001909291908035906020019092919080359060200190929190505050611028565b005b6106626004803603602081101561064c57600080fd5b8101908080359060200190929190505050611375565b604051808215151515815260200191505060405180910390f35b6107f66004803603608081101561069257600080fd5b81019080803573ffffffffffffffffffffffffffffffffffffffff169060200190929190803590602001906401000000008111156106cf57600080fd5b8201836020820111156106e157600080fd5b8035906020019184600183028401116401000000008311171561070357600080fd5b91908080601f016020809104026020016040519081016040528093929190818152602001838380828437600081840152601f19601f8201169050808301925050505050505091929192908035906020019064010000000081111561076657600080fd5b82018360208201111561077857600080fd5b8035906020019184600183028401116401000000008311171561079a57600080fd5b91908080601f016020809104026020016040519081016040528093929190818152602001838380828437600081840152601f19601f82011690508083019250505050505050919291929080359060200190929190505050611395565b005b610800611495565b6040518082815260200191505060405180910390f35b6108426004803603602081101561082c57600080fd5b810190808035906020019092919050505061149b565b005b61091b6004803603608081101561085a57600080fd5b810190808035906020019064010000000081111561087757600080fd5b82018360208201111561088957600080fd5b803590602001918460018302840111640100000000831117156108ab57600080fd5b91908080601f016020809104026020016040519081016040528093929190818152602001838380828437600081840152601f19601f8201169050808301925050505050505091929192908035906020019092919080359060200190929190803590602001909291905050506114ca565b005b60008060008581526020019081526020016000206000015414156109a9576040517f08c379a00000000000000000000000000000000000000000000000000000000081526004018080602001828103825260188152602001807f5468652055736572206973206e6f7420616e2041646d696e000000000000000081525060200191505060405180910390fd5b600080905060016009819055505b60065460095411610a25578360036000600954815260200190815260200160002060000154148015610a0057508160036000600954815260200190815260200160002060010154145b15610a0e5760019050610a25565b6009600081548092919060010191905055506109b7565b60018114610a7e576040517f08c379a00000000000000000000000000000000000000000000000000000000081526004018080602001828103825260358152602001806117006035913960400191505060405180910390fd5b6000905060006009819055505b6008546009541015610adb5783600460095481548110610aa757fe5b9060005260206000209060040201600001541415610ac457600190505b600960008154809291906001019190505550610a8b565b6001811415610b35576040517f08c379a00000000000000000000000000000000000000000000000000000000081526004018080602001828103825260348152602001806116cc6034913960400191505060405180910390fd5b6004604051806080016040528086815260200160008152602001858152602001848152509080600181540180825580915050906001820390600052602060002090600402016000909192909190915060008201518160000155602082015181600101556040820151816002019080519060200190610bb4929190611585565b506060820151816003015550505060086000815480929190600101919050555050505050565b60075481565b7fffffffffffffffffffffffffffffffffffffffffffffffffffffffffffffffff6000808381526020019081526020016000206004018190555050565b60066000815480929190600101919050555081600360006006548152602001908152602001600020600101819055508060036000600654815260200190815260200160002060000181905550600060036000600654815260200190815260200160002060020160006101000a81548160ff0219169083151502179055505050565b60048181548110610cab57fe5b9060005260206000209060040201600091509050806000015490806001015490806002018054600181600116156101000203166002900480601f016020809104026020016040519081016040528092919081815260200182805460018160011615610100020316600290048015610d635780601f10610d3857610100808354040283529160200191610d63565b820191906000526020600020905b815481529060010190602001808311610d4657829003601f168201915b5050505050908060030154905084565b60006020528060005260406000206000915090508060000154908060010160009054906101000a900473ffffffffffffffffffffffffffffffffffffffff1690806002018054600181600116156101000203166002900480601f016020809104026020016040519081016040528092919081815260200182805460018160011615610100020316600290048015610e4b5780601f10610e2057610100808354040283529160200191610e4b565b820191906000526020600020905b815481529060010190602001808311610e2e57829003601f168201915b505050505090806003018054600181600116156101000203166002900480601f016020809104026020016040519081016040528092919081815260200182805460018160011615610100020316600290048015610ee95780601f10610ebe57610100808354040283529160200191610ee9565b820191906000526020600020905b815481529060010190602001808311610ecc57829003601f168201915b5050505050908060040154905085565b60016000808381526020019081526020016000206004018190555050565b60085481565b60036020528060005260406000206000915090508060000154908060010154908060020160009054906101000a900460ff16905083565b6001602052806000526040600020600091509050806000015490806001018054600181600116156101000203166002900480601f0160208091040260200160405190810160405280929190818152602001828054600181600116156101000203166002900480156110065780601f10610fdb57610100808354040283529160200191611006565b820191906000526020600020905b815481529060010190602001808311610fe957829003601f168201915b5050505050908060020154908060030154908060040154905085565b60065481565b600080905060016009819055505b600654600954116110a457816003600060095481526020019081526020016000206000015414801561107f57508260036000600954815260200190815260200160002060010154145b1561108d57600190506110a4565b600960008154809291906001019190505550611036565b600181146110fd576040517f08c379a00000000000000000000000000000000000000000000000000000000081526004018080602001828103825260218152602001806116ab6021913960400191505060405180910390fd5b60016009819055505b600654600954101561120657816003600060095481526020019081526020016000206000015414801561115057508260036000600954815260200190815260200160002060010154145b156111ef5760036000600954815260200190815260200160002060020160009054906101000a900460ff16156111ee576040517f08c379a000000000000000000000000000000000000000000000000000000000815260040180806020018281038252601d8152602001807f54686520766f746572206861736e277420766f746564206265666f726500000081525060200191505060405180910390fd5b5b600960008154809291906001019190505550611106565b600080905060016000808781526020019081526020016000206004015414611279576040517f08c379a00000000000000000000000000000000000000000000000000000000081526004018080602001828103825260258152602001806117356025913960400191505060405180910390fd5b6000600a819055505b600854600a5410156112d657846004600a548154811061129e57fe5b90600052602060002090600402016000015414156112bf57600190506112d6565b600a60008154809291906001019190505550611282565b6001811415611341576004600a54815481106112ee57fe5b906000526020600020906004020160010160008154809291906001019190505550600160036000600954815260200190815260200160002060020160006101000a81548160ff0219169083151502179055505b847ffff3c900d938d21d0990d786e819f29b8d05c1ef587b462b939609625b684b1660405160405180910390a25050505050565b60026020528060005260406000206000915054906101000a900460ff1681565b60056000815480929190600101919050555060055460008060055481526020019081526020016000206000018190555083600080600554815260200190815260200160002060010160006101000a81548173ffffffffffffffffffffffffffffffffffffffff021916908373ffffffffffffffffffffffffffffffffffffffff1602179055508260008060055481526020019081526020016000206002019080519060200190611446929190611605565b508160008060055481526020019081526020016000206003019080519060200190611472929190611605565b508060008060055481526020019081526020016000206004018190555050505050565b60055481565b60016002600083815260200190815260200160002060006101000a81548160ff02191690831515021790555050565b60076000815480929190600101919050555060075460016000600754815260200190815260200160002060000181905550836001600060075481526020019081526020016000206001019080519060200190611527929190611605565b5082600160006007548152602001908152602001600020600201819055508160016000600754815260200190815260200160002060030181905550806001600060075481526020019081526020016000206004018190555050505050565b828054600181600116156101000203166002900490600052602060002090601f016020900481019282601f106115c657805160ff19168380011785556115f4565b828001600101855582156115f4579182015b828111156115f35782518255916020019190600101906115d8565b5b5090506116019190611685565b5090565b828054600181600116156101000203166002900490600052602060002090601f016020900481019282601f1061164657805160ff1916838001178555611674565b82800160010185558215611674579182015b82811115611673578251825591602001919060010190611658565b5b5090506116819190611685565b5090565b6116a791905b808211156116a357600081600090555060010161168b565b5090565b9056fe55736572206973206120766f74657220666f72207468697320656c656374696f6e52657175697265207468652063616e64696461746520776173206e6f7420612063616e6469646174652070726576696f75736c79726571756972652074686174207573657220697320766f74657220696e2073616d6520656c656374696f6e20696e697469616c6c7943616e64696461746520697320612070617274206f662063616e646964617465206c697374a265627a7a72315820d0f3e6fc34444a3207b2c10c1f564f5c35ad9704b24c7d8a8bba3e2ecaef8e6664736f6c6343000510003252657175697265207468652063616e64696461746520776173206e6f7420612063616e6469646174652070726576696f75736c79726571756972652074686174207573657220697320766f74657220696e2073616d6520656c656374696f6e20696e697469616c6c79",
  "source": "// SPDX-License-Identifier: MIT\npragma solidity >=0.4.22 <0.9.0;\n\ncontract Election {\n    // Model a base USER\n    struct user {\n        // Admin has the UserId 1\n        uint256 id;\n        address add;\n        string name;\n        // string C_pwd;\n        // string profile_path;\n        string email;\n        // Permissions:- 0: Voter, 1: Candidate, 2: Admin, -1: Invalid\n        int256 permissions;\n    }\n\n    struct candidate {\n        uint256 C_id;\n        uint256 vote_count;\n        string C_name;\n        uint256 E_id;\n    }\n\n    struct election {\n        uint256 E_id;\n        string E_name;\n        // time will be stored in seconds on blockchain, and JS will handle it accordingly.\n        // Campaigning time will start just after time for candidate registration is over and\n        // will end 24 hrs prior to polling\n        uint256 time_cand_register_end;\n        uint256 time_polling_starts;\n        uint256 time_polling_ends;\n    }\n\n    struct voter {\n        uint256 id;\n        uint256 E_id;\n        bool voted;\n    }\n    // Fetch Users\n    mapping(uint256 => user) public users;\n\n    // store elections\n    mapping(uint256 => election) public elections;\n\n    mapping(uint256 => bool) public reports_recieved;\n\n    mapping(uint256 => voter) public voterlist;\n\n    // Array of candidate struct to store candidates\n    candidate[] public candidates;\n\n    // voted event\n    event votedEvent(uint256 indexed _C_id);\n\n    // Store Candidates Count\n    uint256 public user_count = 0;\n    uint256 public voter_list_count = 0;\n\n    // Store Eletions Count\n    uint256 public election_count = 0;\n\n    // Add elections\n    // Remember election_count is same as E_id for a particular election.\n    function add_election(\n        string memory _E_name,\n        uint256 _time_cand_register_end,\n        uint256 _time_polling_starts,\n        uint256 _time_polling_ends\n    ) public {\n        // Check in JS that the time entered are accordingly after the current time.\n        // i.e current_time < cand_time < poll_start < poll_end;\n        election_count++;\n        elections[election_count].E_id = election_count;\n        elections[election_count].E_name = _E_name;\n        elections[election_count]\n            .time_cand_register_end = _time_cand_register_end;\n        elections[election_count].time_polling_starts = _time_polling_starts;\n        elections[election_count].time_polling_ends = _time_polling_ends;\n    }\n\n    function report_by_user(uint256 _id) public {\n        reports_recieved[_id] = true;\n    }\n\n    function blacklist_by_admin(uint256 _id) public {\n        users[_id].permissions = -1;\n    }\n\n    // Add users(Voters), but first add Admin\n    // Remember user_count is same as id\n    function add_user(\n        address _add,\n        string memory _name,\n        string memory _email,\n        int256 _permissions\n    ) public {\n        user_count++;\n        users[user_count].id = user_count;\n        users[user_count].add = _add;\n        users[user_count].name = _name;\n        users[user_count].email = _email;\n        users[user_count].permissions = _permissions;\n    }\n\n    uint256 public candidate_count = 0;\n    uint256 i = 0;\n    uint256 j = 0;\n\n    // user has applied for the candidature in a particular election\n    function add_candidate(\n        uint256 _C_id,\n        string memory _C_name,\n        uint256 _E_id\n    ) public {\n        // Require that the user is not an Admin\n        require(users[_C_id].id != 0, \"The User is not an Admin\");\n\n        uint256 cflag = 0;\n        //Require that user was voter for that particular election as well\n        for (i = 1; i <= voter_list_count; i++) {\n            if ((voterlist[i].id == _C_id) && (voterlist[i].E_id == _E_id)) {\n                cflag = 1;\n                break;\n            }\n        }\n        require(\n            cflag == 1,\n            \"require that user is voter in same election initially\"\n        );\n\n        cflag = 0;\n        //check if the candidate was not a candidate previously\n        for (i = 0; i < candidate_count; i++) {\n            if (candidates[i].C_id == _C_id) {\n                cflag = 1;\n            }\n        }\n\n        require(\n            cflag != 1,\n            \"Require the candidate was not a candidate previously\"\n        );\n\n        // Check if we can change the user struct value\n        candidates.push(\n            candidate({\n                C_id: _C_id,\n                vote_count: 0,\n                C_name: _C_name,\n                E_id: _E_id\n            })\n        );\n        candidate_count++;\n    }\n\n    //approves candidature after candidate applies for the election\n    function candidate_approved_by_admin(uint256 _C_id) public {\n        users[_C_id].permissions = 1;\n    }\n\n    function add_voter_by_admin(uint256 _E_id, uint256 _id) public {\n        voter_list_count++;\n        voterlist[voter_list_count].E_id = _E_id;\n        voterlist[voter_list_count].id = _id;\n        voterlist[voter_list_count].voted = false;\n    }\n\n    function vote(\n        uint256 _C_id,\n        uint256 _E_id,\n        uint256 _id\n    ) public {\n        // Require that the user is not the admin\n        //require(users[1].add != msg.sender, \"The User is not an Admin\");\n\n        //Election id of candidate and voter are same\n        uint256 uflag = 0;\n\n        for (i = 1; i <= voter_list_count; i++) {\n            if (voterlist[i].id == _id && voterlist[i].E_id == _E_id) {\n                uflag = 1;\n                break;\n            }\n        }\n        require(uflag == 1, \"User is a voter for this election\");\n\n        // Require to check that the voter hasn't voted before\n        for (i = 1; i < voter_list_count; i++) {\n            if ((voterlist[i].id == _id) && (voterlist[i].E_id == _E_id)) {\n                require(!voterlist[i].voted, \"The voter hasn't voted before\");\n            }\n        }\n\n        uint256 flag = 0;\n        // Require that the _C_id is present in the candidates list\n        require(\n            users[_C_id].permissions == 1,\n            \"Candidate is a part of candidate list\"\n        );\n\n        for (j = 0; j < candidate_count; j++) {\n            if (candidates[j].C_id == _C_id) {\n                flag = 1;\n                break;\n            }\n        }\n        if (flag == 1) {\n            candidates[j].vote_count++;\n            voterlist[i].voted = true;\n        }\n\n        // trigger voted event\n        emit votedEvent(_C_id);\n    }\n\n    // Constructor\n    constructor() public {\n        // Add admin first\n        add_user(\n            0x7D8d4E73350E695e351E80705B8B6F30bAcF00CC,\n            \"admin\",\n            \"admin@coep.ac.in\",\n            2\n        );\n        add_user(\n            0x42263Ea939bd28d268499f1191F2F4CAA5294553,\n            \"voter 1\",\n            \"voter1@gmail.com\",\n            0\n        );\n        add_user(\n            0xD85974B619F77067D9959ac4a92f9644f76C5899,\n            \"candidate 1\",\n            \"voter2@gmail.com\",\n            0\n        );\n        add_voter_by_admin(1, 2);\n        add_voter_by_admin(1, 3);\n        add_election(\"Gykhana\", 5000, 6000, 7000);\n        add_election(\"Sec\", 5000, 6000, 7000);\n        add_candidate(3, \"candidate 1\", 1);\n        add_candidate(2, \"voter 1\", 1);\n        candidate_approved_by_admin(2);\n        candidate_approved_by_admin(3);\n    }\n}\n",
  "sourcePath": "/home/muskan/Desktop/OnlineElectionPortal/OnlineElectionPortal/contracts/Election.sol",
  "compiler": {
    "name": "solc",
    "version": "0.5.16+commit.9c3226ce.Emscripten.clang"
  },
  "schemaVersion": "3.3.4",
  "updatedAt": "2021-04-19T16:41:34.180Z",
  "networkType": "ethereum",
  "devdoc": {
    "methods": {}
  },
  "userdoc": {
    "methods": {}
  }
}