{
  "contractName": "Election",
  "abi": [
    {
      "inputs": [],
      "payable": false,
      "stateMutability": "nonpayable",
      "type": "constructor"
    },
    {
      "anonymous": false,
      "inputs": [
        {
          "indexed": true,
          "internalType": "uint256",
          "name": "_C_id",
          "type": "uint256"
        }
      ],
      "name": "votedEvent",
      "type": "event"
    },
    {
      "constant": true,
      "inputs": [
        {
          "internalType": "address",
          "name": "",
          "type": "address"
        }
      ],
      "name": "addresses",
      "outputs": [
        {
          "internalType": "uint256",
          "name": "",
          "type": "uint256"
        }
      ],
      "payable": false,
      "stateMutability": "view",
      "type": "function"
    },
    {
      "constant": true,
      "inputs": [],
      "name": "candidate_count",
      "outputs": [
        {
          "internalType": "uint256",
          "name": "",
          "type": "uint256"
        }
      ],
      "payable": false,
      "stateMutability": "view",
      "type": "function"
    },
    {
      "constant": true,
      "inputs": [
        {
          "internalType": "uint256",
          "name": "",
          "type": "uint256"
        }
      ],
      "name": "candidates",
      "outputs": [
        {
          "internalType": "uint256",
          "name": "C_id",
          "type": "uint256"
        },
        {
          "internalType": "uint256",
          "name": "vote_count",
          "type": "uint256"
        },
        {
          "internalType": "string",
          "name": "C_name",
          "type": "string"
        },
        {
          "internalType": "uint256",
          "name": "E_id",
          "type": "uint256"
        }
      ],
      "payable": false,
      "stateMutability": "view",
      "type": "function"
    },
    {
      "constant": true,
      "inputs": [],
      "name": "election_count",
      "outputs": [
        {
          "internalType": "uint256",
          "name": "",
          "type": "uint256"
        }
      ],
      "payable": false,
      "stateMutability": "view",
      "type": "function"
    },
    {
      "constant": true,
      "inputs": [
        {
          "internalType": "uint256",
          "name": "",
          "type": "uint256"
        }
      ],
      "name": "elections",
      "outputs": [
        {
          "internalType": "uint256",
          "name": "E_id",
          "type": "uint256"
        },
        {
          "internalType": "string",
          "name": "E_name",
          "type": "string"
        },
        {
          "internalType": "uint256",
          "name": "time_cand_register_end",
          "type": "uint256"
        },
        {
          "internalType": "uint256",
          "name": "time_polling_starts",
          "type": "uint256"
        },
        {
          "internalType": "uint256",
          "name": "time_polling_ends",
          "type": "uint256"
        }
      ],
      "payable": false,
      "stateMutability": "view",
      "type": "function"
    },
    {
      "constant": true,
      "inputs": [],
      "name": "user_count",
      "outputs": [
        {
          "internalType": "uint256",
          "name": "",
          "type": "uint256"
        }
      ],
      "payable": false,
      "stateMutability": "view",
      "type": "function"
    },
    {
      "constant": true,
      "inputs": [
        {
          "internalType": "uint256",
          "name": "",
          "type": "uint256"
        }
      ],
      "name": "users",
      "outputs": [
        {
          "internalType": "uint256",
          "name": "id",
          "type": "uint256"
        },
        {
          "internalType": "address",
          "name": "add",
          "type": "address"
        },
        {
          "internalType": "string",
          "name": "name",
          "type": "string"
        },
        {
          "internalType": "string",
          "name": "email",
          "type": "string"
        },
        {
          "internalType": "int256",
          "name": "permissions",
          "type": "int256"
        },
        {
          "internalType": "uint256",
          "name": "cand_index",
          "type": "uint256"
        },
        {
          "internalType": "string",
          "name": "pwd",
          "type": "string"
        }
      ],
      "payable": false,
      "stateMutability": "view",
      "type": "function"
    },
    {
      "constant": true,
      "inputs": [],
      "name": "voter_list_count",
      "outputs": [
        {
          "internalType": "uint256",
          "name": "",
          "type": "uint256"
        }
      ],
      "payable": false,
      "stateMutability": "view",
      "type": "function"
    },
    {
      "constant": true,
      "inputs": [
        {
          "internalType": "uint256",
          "name": "",
          "type": "uint256"
        }
      ],
      "name": "voterlist",
      "outputs": [
        {
          "internalType": "uint256",
          "name": "id",
          "type": "uint256"
        },
        {
          "internalType": "uint256",
          "name": "E_id",
          "type": "uint256"
        },
        {
          "internalType": "bool",
          "name": "voted",
          "type": "bool"
        },
        {
          "internalType": "bool",
          "name": "reportedByUser",
          "type": "bool"
        },
        {
          "internalType": "bool",
          "name": "blacklisted_by_admin",
          "type": "bool"
        }
      ],
      "payable": false,
      "stateMutability": "view",
      "type": "function"
    },
    {
      "constant": false,
      "inputs": [
        {
          "internalType": "string",
          "name": "_E_name",
          "type": "string"
        },
        {
          "internalType": "uint256",
          "name": "_time_cand_register_end",
          "type": "uint256"
        },
        {
          "internalType": "uint256",
          "name": "_time_polling_starts",
          "type": "uint256"
        },
        {
          "internalType": "uint256",
          "name": "_time_polling_ends",
          "type": "uint256"
        }
      ],
      "name": "add_election",
      "outputs": [],
      "payable": false,
      "stateMutability": "nonpayable",
      "type": "function"
    },
    {
      "constant": false,
      "inputs": [
        {
          "internalType": "uint256",
          "name": "_id",
          "type": "uint256"
        },
        {
          "internalType": "uint256",
          "name": "_E_id",
          "type": "uint256"
        }
      ],
      "name": "report_by_user",
      "outputs": [],
      "payable": false,
      "stateMutability": "nonpayable",
      "type": "function"
    },
    {
      "constant": false,
      "inputs": [
        {
          "internalType": "uint256",
          "name": "_id",
          "type": "uint256"
        },
        {
          "internalType": "uint256",
          "name": "_E_id",
          "type": "uint256"
        }
      ],
      "name": "blacklist_by_admin",
      "outputs": [],
      "payable": false,
      "stateMutability": "nonpayable",
      "type": "function"
    },
    {
      "constant": false,
      "inputs": [
        {
          "internalType": "address",
          "name": "_add",
          "type": "address"
        },
        {
          "internalType": "string",
          "name": "_name",
          "type": "string"
        },
        {
          "internalType": "string",
          "name": "_email",
          "type": "string"
        },
        {
          "internalType": "string",
          "name": "_pwd",
          "type": "string"
        },
        {
          "internalType": "int256",
          "name": "_permissions",
          "type": "int256"
        }
      ],
      "name": "add_user",
      "outputs": [],
      "payable": false,
      "stateMutability": "nonpayable",
      "type": "function"
    },
    {
      "constant": false,
      "inputs": [
        {
          "internalType": "uint256",
          "name": "_C_id",
          "type": "uint256"
        },
        {
          "internalType": "string",
          "name": "_C_name",
          "type": "string"
        },
        {
          "internalType": "uint256",
          "name": "_E_id",
          "type": "uint256"
        }
      ],
      "name": "add_candidate",
      "outputs": [],
      "payable": false,
      "stateMutability": "nonpayable",
      "type": "function"
    },
    {
      "constant": false,
      "inputs": [
        {
          "internalType": "uint256",
          "name": "_C_id",
          "type": "uint256"
        }
      ],
      "name": "candidate_approved_by_admin",
      "outputs": [],
      "payable": false,
      "stateMutability": "nonpayable",
      "type": "function"
    },
    {
      "constant": false,
      "inputs": [
        {
          "internalType": "uint256",
          "name": "_E_id",
          "type": "uint256"
        },
        {
          "internalType": "uint256",
          "name": "_id",
          "type": "uint256"
        }
      ],
      "name": "add_voter_by_admin",
      "outputs": [],
      "payable": false,
      "stateMutability": "nonpayable",
      "type": "function"
    },
    {
      "constant": false,
      "inputs": [
        {
          "internalType": "uint256",
          "name": "_C_id",
          "type": "uint256"
        },
        {
          "internalType": "uint256",
          "name": "_E_id",
          "type": "uint256"
        },
        {
          "internalType": "uint256",
          "name": "_id",
          "type": "uint256"
        }
      ],
      "name": "vote",
      "outputs": [],
      "payable": false,
      "stateMutability": "nonpayable",
      "type": "function"
    }
  ],
  "bytecode": "0x6080604052600060055560006006556000600755600060085560006009556000600a553480156200002f57600080fd5b50620000f97322e9140a50bdb2659b9e473daa645685c4f409e56040518060400160405280600581526020017f61646d696e0000000000000000000000000000000000000000000000000000008152506040518060400160405280601081526020017f61646d696e40636f65702e61632e696e000000000000000000000000000000008152506040518060400160405280600581526020017f61646d696e00000000000000000000000000000000000000000000000000000081525060026200041160201b60201c565b620001c2731bff1d5ff4234912efc5fe4fe6fe8038366a30e16040518060400160405280600781526020017f766f7465722031000000000000000000000000000000000000000000000000008152506040518060400160405280601081526020017f766f7465723140676d61696c2e636f6d000000000000000000000000000000008152506040518060400160405280601081526020017f766f74657220312070617373776f72640000000000000000000000000000000081525060006200041160201b60201c565b6200028b73cd56ad160221d01ea132f05d4057665a97c6934d6040518060400160405280600b81526020017f63616e64696461746520310000000000000000000000000000000000000000008152506040518060400160405280601081526020017f766f7465723240676d61696c2e636f6d000000000000000000000000000000008152506040518060400160405280601481526020017f63616e64696461746520312070617373776f726400000000000000000000000081525060006200041160201b60201c565b6200029f60016002620005a860201b60201c565b620002b360016003620005a860201b60201c565b620002c760026003620005a860201b60201c565b620003166040518060400160405280600781526020017f47796b68616e6100000000000000000000000000000000000000000000000000815250611388611770611b586200068b60201b60201c565b620003656040518060400160405280600381526020017f5365630000000000000000000000000000000000000000000000000000000000815250611388611770611b586200068b60201b60201c565b620003af60036040518060400160405280600b81526020017f63616e646964617465203100000000000000000000000000000000000000000081525060016200074860201b60201c565b620003f960026040518060400160405280600781526020017f766f74657220310000000000000000000000000000000000000000000000000081525060016200074860201b60201c565b6200040b600262000a1560201b60201c565b62000bd1565b60056000815480929190600101919050555060055460008060055481526020019081526020016000206000018190555084600080600554815260200190815260200160002060010160006101000a81548173ffffffffffffffffffffffffffffffffffffffff021916908373ffffffffffffffffffffffffffffffffffffffff1602179055508360008060055481526020019081526020016000206002019080519060200190620004c492919062000a9b565b508260008060055481526020019081526020016000206003019080519060200190620004f292919062000a9b565b5061138860008060055481526020019081526020016000206005018190555080600080600554815260200190815260200160002060040181905550600554600160008773ffffffffffffffffffffffffffffffffffffffff1673ffffffffffffffffffffffffffffffffffffffff168152602001908152602001600020819055508160008060055481526020019081526020016000206006019080519060200190620005a092919062000a9b565b505050505050565b60066000815480929190600101919050555081600360006006548152602001908152602001600020600101819055508060036000600654815260200190815260200160002060000181905550600060036000600654815260200190815260200160002060020160006101000a81548160ff021916908315150217905550600060036000600654815260200190815260200160002060020160016101000a81548160ff021916908315150217905550600060036000600654815260200190815260200160002060020160026101000a81548160ff0219169083151502179055505050565b60076000815480929190600101919050555060075460026000600754815260200190815260200160002060000181905550836002600060075481526020019081526020016000206001019080519060200190620006ea92919062000a9b565b5082600260006007548152602001908152602001600020600201819055508160026000600754815260200190815260200160002060030181905550806002600060075481526020019081526020016000206004018190555050505050565b6000806000858152602001908152602001600020600001541415620007d5576040517f08c379a00000000000000000000000000000000000000000000000000000000081526004018080602001828103825260188152602001807f5468652055736572206973206e6f7420616e2041646d696e000000000000000081525060200191505060405180910390fd5b600080905060016009819055505b60065460095411620008565783600360006009548152602001908152602001600020600001541480156200082e57508160036000600954815260200190815260200160002060010154145b156200083e576001905062000856565b600960008154809291906001019190505550620007e3565b60018114620008b1576040517f08c379a0000000000000000000000000000000000000000000000000000000008152600401808060200182810382526035815260200180620027b96035913960400191505060405180910390fd5b6000905060006009819055505b6008546009541015620009125783600460095481548110620008dc57fe5b9060005260206000209060040201600001541415620008fa57600190505b600960008154809291906001019190505550620008be565b60018114156200096e576040517f08c379a0000000000000000000000000000000000000000000000000000000008152600401808060200182810382526034815260200180620027856034913960400191505060405180910390fd5b6004604051806080016040528086815260200160008152602001858152602001848152509080600181540180825580915050906001820390600052602060002090600402016000909192909190915060008201518160000155602082015181600101556040820151816002019080519060200190620009ef92919062000b22565b506060820151816003015550505060086000815480929190600101919050555050505050565b60016000808381526020019081526020016000206004018190555060008090505b60085481101562000a9757816004828154811062000a5057fe5b906000526020600020906004020160000154141562000a8957806000808481526020019081526020016000206005018190555062000a97565b808060010191505062000a36565b5050565b828054600181600116156101000203166002900490600052602060002090601f016020900481019282601f1062000ade57805160ff191683800117855562000b0f565b8280016001018555821562000b0f579182015b8281111562000b0e57825182559160200191906001019062000af1565b5b50905062000b1e919062000ba9565b5090565b828054600181600116156101000203166002900490600052602060002090601f016020900481019282601f1062000b6557805160ff191683800117855562000b96565b8280016001018555821562000b96579182015b8281111562000b9557825182559160200191906001019062000b78565b5b50905062000ba5919062000ba9565b5090565b62000bce91905b8082111562000bca57600081600090555060010162000bb0565b5090565b90565b611ba48062000be16000396000f3fe608060405234801561001057600080fd5b506004361061010b5760003560e01c806354d8d6d2116100a25780638a6655d6116100715780638a6655d6146106df578063ad7c74a914610721578063bb805f6914610934578063bd332daa14610952578063ec853e281461098a5761010b565b806354d8d6d21461053c5780635e6fef01146105a65780637361068c1461066957806382d38954146106875761010b565b80633477ee2e116100de5780633477ee2e1461026d578063365b98b2146103295780633ed29e6e146104f05780634b1c4c291461051e5761010b565b806301442d91146101105780630732583c146101df5780631050a032146101fd5780631ebdeebb14610235575b600080fd5b6101dd6004803603606081101561012657600080fd5b81019080803590602001909291908035906020019064010000000081111561014d57600080fd5b82018360208201111561015f57600080fd5b8035906020019184600183028401116401000000008311171561018157600080fd5b91908080601f016020809104026020016040519081016040528093929190818152602001838380828437600081840152601f19601f82011690508083019250505050505050919291929080359060200190929190505050610a63565b005b6101e7610d20565b6040518082815260200191505060405180910390f35b6102336004803603604081101561021357600080fd5b810190808035906020019092919080359060200190929190505050610d26565b005b61026b6004803603604081101561024b57600080fd5b810190808035906020019092919080359060200190929190505050610db8565b005b6102996004803603602081101561028357600080fd5b8101908080359060200190929190505050610e9b565b6040518085815260200184815260200180602001838152602001828103825284818151815260200191508051906020019080838360005b838110156102eb5780820151818401526020810190506102d0565b50505050905090810190601f1680156103185780820380516001836020036101000a031916815260200191505b509550505050505060405180910390f35b6103556004803603602081101561033f57600080fd5b8101908080359060200190929190505050610f70565b604051808881526020018773ffffffffffffffffffffffffffffffffffffffff1673ffffffffffffffffffffffffffffffffffffffff168152602001806020018060200186815260200185815260200180602001848103845289818151815260200191508051906020019080838360005b838110156103e15780820151818401526020810190506103c6565b50505050905090810190601f16801561040e5780820380516001836020036101000a031916815260200191505b50848103835288818151815260200191508051906020019080838360005b8381101561044757808201518184015260208101905061042c565b50505050905090810190601f1680156104745780820380516001836020036101000a031916815260200191505b50848103825285818151815260200191508051906020019080838360005b838110156104ad578082015181840152602081019050610492565b50505050905090810190601f1680156104da5780820380516001836020036101000a031916815260200191505b509a505050505050505050505060405180910390f35b61051c6004803603602081101561050657600080fd5b810190808035906020019092919050505061119a565b005b61052661121b565b6040518082815260200191505060405180910390f35b6105686004803603602081101561055257600080fd5b8101908080359060200190929190505050611221565b604051808681526020018581526020018415151515815260200183151515158152602001821515151581526020019550505050505060405180910390f35b6105d2600480360360208110156105bc57600080fd5b810190808035906020019092919050505061127e565b6040518086815260200180602001858152602001848152602001838152602001828103825286818151815260200191508051906020019080838360005b8381101561062a57808201518184015260208101905061060f565b50505050905090810190601f1680156106575780820380516001836020036101000a031916815260200191505b50965050505050505060405180910390f35b61067161134c565b6040518082815260200191505060405180910390f35b6106c96004803603602081101561069d57600080fd5b81019080803573ffffffffffffffffffffffffffffffffffffffff169060200190929190505050611352565b6040518082815260200191505060405180910390f35b61071f600480360360608110156106f557600080fd5b8101908080359060200190929190803590602001909291908035906020019092919050505061136a565b005b610932600480360360a081101561073757600080fd5b81019080803573ffffffffffffffffffffffffffffffffffffffff1690602001909291908035906020019064010000000081111561077457600080fd5b82018360208201111561078657600080fd5b803590602001918460018302840111640100000000831117156107a857600080fd5b91908080601f016020809104026020016040519081016040528093929190818152602001838380828437600081840152601f19601f8201169050808301925050505050505091929192908035906020019064010000000081111561080b57600080fd5b82018360208201111561081d57600080fd5b8035906020019184600183028401116401000000008311171561083f57600080fd5b91908080601f016020809104026020016040519081016040528093929190818152602001838380828437600081840152601f19601f820116905080830192505050505050509192919290803590602001906401000000008111156108a257600080fd5b8201836020820111156108b457600080fd5b803590602001918460018302840111640100000000831117156108d657600080fd5b91908080601f016020809104026020016040519081016040528093929190818152602001838380828437600081840152601f19601f820116905080830192505050505050509192919290803590602001909291905050506116b7565b005b61093c611848565b6040518082815260200191505060405180910390f35b6109886004803603604081101561096857600080fd5b81019080803590602001909291908035906020019092919050505061184e565b005b610a61600480360360808110156109a057600080fd5b81019080803590602001906401000000008111156109bd57600080fd5b8201836020820111156109cf57600080fd5b803590602001918460018302840111640100000000831117156109f157600080fd5b91908080601f016020809104026020016040519081016040528093929190818152602001838380828437600081840152601f19601f8201169050808301925050505050505091929192908035906020019092919080359060200190929190803590602001909291905050506118e0565b005b6000806000858152602001908152602001600020600001541415610aef576040517f08c379a00000000000000000000000000000000000000000000000000000000081526004018080602001828103825260188152602001807f5468652055736572206973206e6f7420616e2041646d696e000000000000000081525060200191505060405180910390fd5b600080905060016009819055505b60065460095411610b6b578360036000600954815260200190815260200160002060000154148015610b4657508160036000600954815260200190815260200160002060010154145b15610b545760019050610b6b565b600960008154809291906001019190505550610afd565b60018114610bc4576040517f08c379a0000000000000000000000000000000000000000000000000000000008152600401808060200182810382526035815260200180611b166035913960400191505060405180910390fd5b6000905060006009819055505b6008546009541015610c215783600460095481548110610bed57fe5b9060005260206000209060040201600001541415610c0a57600190505b600960008154809291906001019190505550610bd1565b6001811415610c7b576040517f08c379a0000000000000000000000000000000000000000000000000000000008152600401808060200182810382526034815260200180611ae26034913960400191505060405180910390fd5b6004604051806080016040528086815260200160008152602001858152602001848152509080600181540180825580915050906001820390600052602060002090600402016000909192909190915060008201518160000155602082015181600101556040820151816002019080519060200190610cfa92919061199b565b506060820151816003015550505060086000815480929190600101919050555050505050565b60075481565b6000600190505b600654811015610db357826003600083815260200190815260200160002060000154148015610d715750816003600083815260200190815260200160002060010154145b15610da65760016003600083815260200190815260200160002060020160026101000a81548160ff0219169083151502179055505b8080600101915050610d2d565b505050565b60066000815480929190600101919050555081600360006006548152602001908152602001600020600101819055508060036000600654815260200190815260200160002060000181905550600060036000600654815260200190815260200160002060020160006101000a81548160ff021916908315150217905550600060036000600654815260200190815260200160002060020160016101000a81548160ff021916908315150217905550600060036000600654815260200190815260200160002060020160026101000a81548160ff0219169083151502179055505050565b60048181548110610ea857fe5b9060005260206000209060040201600091509050806000015490806001015490806002018054600181600116156101000203166002900480601f016020809104026020016040519081016040528092919081815260200182805460018160011615610100020316600290048015610f605780601f10610f3557610100808354040283529160200191610f60565b820191906000526020600020905b815481529060010190602001808311610f4357829003601f168201915b5050505050908060030154905084565b60006020528060005260406000206000915090508060000154908060010160009054906101000a900473ffffffffffffffffffffffffffffffffffffffff1690806002018054600181600116156101000203166002900480601f0160208091040260200160405190810160405280929190818152602001828054600181600116156101000203166002900480156110485780601f1061101d57610100808354040283529160200191611048565b820191906000526020600020905b81548152906001019060200180831161102b57829003601f168201915b505050505090806003018054600181600116156101000203166002900480601f0160208091040260200160405190810160405280929190818152602001828054600181600116156101000203166002900480156110e65780601f106110bb576101008083540402835291602001916110e6565b820191906000526020600020905b8154815290600101906020018083116110c957829003601f168201915b505050505090806004015490806005015490806006018054600181600116156101000203166002900480601f0160208091040260200160405190810160405280929190818152602001828054600181600116156101000203166002900480156111905780601f1061116557610100808354040283529160200191611190565b820191906000526020600020905b81548152906001019060200180831161117357829003601f168201915b5050505050905087565b60016000808381526020019081526020016000206004018190555060008090505b6008548110156112175781600482815481106111d357fe5b906000526020600020906004020160000154141561120a578060008084815260200190815260200160002060050181905550611217565b80806001019150506111bb565b5050565b60085481565b60036020528060005260406000206000915090508060000154908060010154908060020160009054906101000a900460ff16908060020160019054906101000a900460ff16908060020160029054906101000a900460ff16905085565b6002602052806000526040600020600091509050806000015490806001018054600181600116156101000203166002900480601f0160208091040260200160405190810160405280929190818152602001828054600181600116156101000203166002900480156113305780601f1061130557610100808354040283529160200191611330565b820191906000526020600020905b81548152906001019060200180831161131357829003601f168201915b5050505050908060020154908060030154908060040154905085565b60065481565b60016020528060005260406000206000915090505481565b600080905060016009819055505b600654600954116113e65781600360006009548152602001908152602001600020600001541480156113c157508260036000600954815260200190815260200160002060010154145b156113cf57600190506113e6565b600960008154809291906001019190505550611378565b6001811461143f576040517f08c379a0000000000000000000000000000000000000000000000000000000008152600401808060200182810382526021815260200180611ac16021913960400191505060405180910390fd5b60016009819055505b600654600954101561154857816003600060095481526020019081526020016000206000015414801561149257508260036000600954815260200190815260200160002060010154145b156115315760036000600954815260200190815260200160002060020160009054906101000a900460ff1615611530576040517f08c379a000000000000000000000000000000000000000000000000000000000815260040180806020018281038252601d8152602001807f54686520766f746572206861736e277420766f746564206265666f726500000081525060200191505060405180910390fd5b5b600960008154809291906001019190505550611448565b6000809050600160008087815260200190815260200160002060040154146115bb576040517f08c379a0000000000000000000000000000000000000000000000000000000008152600401808060200182810382526025815260200180611b4b6025913960400191505060405180910390fd5b6000600a819055505b600854600a54101561161857846004600a54815481106115e057fe5b90600052602060002090600402016000015414156116015760019050611618565b600a600081548092919060010191905055506115c4565b6001811415611683576004600a548154811061163057fe5b906000526020600020906004020160010160008154809291906001019190505550600160036000600954815260200190815260200160002060020160006101000a81548160ff0219169083151502179055505b847ffff3c900d938d21d0990d786e819f29b8d05c1ef587b462b939609625b684b1660405160405180910390a25050505050565b60056000815480929190600101919050555060055460008060055481526020019081526020016000206000018190555084600080600554815260200190815260200160002060010160006101000a81548173ffffffffffffffffffffffffffffffffffffffff021916908373ffffffffffffffffffffffffffffffffffffffff1602179055508360008060055481526020019081526020016000206002019080519060200190611768929190611a1b565b508260008060055481526020019081526020016000206003019080519060200190611794929190611a1b565b5061138860008060055481526020019081526020016000206005018190555080600080600554815260200190815260200160002060040181905550600554600160008773ffffffffffffffffffffffffffffffffffffffff1673ffffffffffffffffffffffffffffffffffffffff168152602001908152602001600020819055508160008060055481526020019081526020016000206006019080519060200190611840929190611a1b565b505050505050565b60055481565b6000600190505b6006548110156118db578260036000838152602001908152602001600020600001541480156118995750816003600083815260200190815260200160002060010154145b156118ce5760016003600083815260200190815260200160002060020160016101000a81548160ff0219169083151502179055505b8080600101915050611855565b505050565b6007600081548092919060010191905055506007546002600060075481526020019081526020016000206000018190555083600260006007548152602001908152602001600020600101908051906020019061193d929190611a1b565b5082600260006007548152602001908152602001600020600201819055508160026000600754815260200190815260200160002060030181905550806002600060075481526020019081526020016000206004018190555050505050565b828054600181600116156101000203166002900490600052602060002090601f016020900481019282601f106119dc57805160ff1916838001178555611a0a565b82800160010185558215611a0a579182015b82811115611a095782518255916020019190600101906119ee565b5b509050611a179190611a9b565b5090565b828054600181600116156101000203166002900490600052602060002090601f016020900481019282601f10611a5c57805160ff1916838001178555611a8a565b82800160010185558215611a8a579182015b82811115611a89578251825591602001919060010190611a6e565b5b509050611a979190611a9b565b5090565b611abd91905b80821115611ab9576000816000905550600101611aa1565b5090565b9056fe55736572206973206120766f74657220666f72207468697320656c656374696f6e52657175697265207468652063616e64696461746520776173206e6f7420612063616e6469646174652070726576696f75736c79726571756972652074686174207573657220697320766f74657220696e2073616d6520656c656374696f6e20696e697469616c6c7943616e64696461746520697320612070617274206f662063616e646964617465206c697374a265627a7a723158203fb9e75fd25809ad3f12c76684ec3d123766f960cad30d834bd218ef6be6597a64736f6c6343000510003252657175697265207468652063616e64696461746520776173206e6f7420612063616e6469646174652070726576696f75736c79726571756972652074686174207573657220697320766f74657220696e2073616d6520656c656374696f6e20696e697469616c6c79",
  "source": "// SPDX-License-Identifier: MIT\npragma solidity >=0.4.22 <0.9.0;\n\ncontract Election {\n    // Model a base USER\n    struct user {\n        // Admin has the UserId 1\n        uint256 id;\n        address add;\n        string name;\n        // string C_pwd;\n        // string profile_path;\n        string email;\n        // Permissions:- 0: Voter, 1: Candidate, 2: Admin, -1: Invalid\n        int256 permissions;\n        uint256 cand_index;\n        string pwd;\n    }\n\n    struct candidate {\n        uint256 C_id;\n        uint256 vote_count;\n        string C_name;\n        uint256 E_id;\n    }\n\n    struct election {\n        uint256 E_id;\n        string E_name;\n        // time will be stored in seconds on blockchain, and JS will handle it accordingly.\n        // Campaigning time will start just after time for candidate registration is over and\n        // will end 24 hrs prior to polling\n        uint256 time_cand_register_end;\n        uint256 time_polling_starts;\n        uint256 time_polling_ends;\n    }\n\n    struct voter {\n        uint256 id;\n        uint256 E_id;\n        bool voted;\n        bool reportedByUser;\n        bool blacklisted_by_admin;\n    }\n    // Fetch Users\n    mapping(uint256 => user) public users;\n\n    //addresses mapping with ids\n    mapping(address => uint256) public addresses;\n\n    // store elections\n    mapping(uint256 => election) public elections;\n\n    mapping(uint256 => voter) public voterlist;\n\n    // Array of candidate struct to store candidates\n    candidate[] public candidates;\n\n    // voted event\n    event votedEvent(uint256 indexed _C_id);\n\n    // Store Candidates Count\n    uint256 public user_count = 0;\n    uint256 public voter_list_count = 0;\n\n    // Store Eletions Count\n    uint256 public election_count = 0;\n\n    // Add elections\n    // Remember election_count is same as E_id for a particular election.\n    function add_election(\n        string memory _E_name,\n        uint256 _time_cand_register_end,\n        uint256 _time_polling_starts,\n        uint256 _time_polling_ends\n    ) public {\n        // Check in JS that the time entered are accordingly after the current time.\n        // i.e current_time < cand_time < poll_start < poll_end;\n        election_count++;\n        elections[election_count].E_id = election_count;\n        elections[election_count].E_name = _E_name;\n        elections[election_count]\n            .time_cand_register_end = _time_cand_register_end;\n        elections[election_count].time_polling_starts = _time_polling_starts;\n        elections[election_count].time_polling_ends = _time_polling_ends;\n    }\n\n    function report_by_user(uint256 _id, uint256 _E_id) public {\n        uint256 i;\n        for (i = 1; i < voter_list_count; i++) {\n            if (voterlist[i].id == _id && voterlist[i].E_id == _E_id) {\n                voterlist[i].reportedByUser = true;\n            }\n        }\n    }\n\n    function blacklist_by_admin(uint256 _id, uint256 _E_id) public {\n        uint256 i;\n        for (i = 1; i < voter_list_count; i++) {\n            if (voterlist[i].id == _id && voterlist[i].E_id == _E_id) {\n                voterlist[i].blacklisted_by_admin = true;\n            }\n        }\n    }\n\n    // Add users(Voters), but first add Admin\n    // Remember user_count is same as id\n    function add_user(\n        address _add,\n        string memory _name,\n        string memory _email,\n        string memory _pwd,\n        int256 _permissions\n    ) public {\n        user_count++;\n        users[user_count].id = user_count;\n        users[user_count].add = _add;\n        users[user_count].name = _name;\n        users[user_count].email = _email;\n        users[user_count].cand_index = 5000;\n        users[user_count].permissions = _permissions;\n        addresses[_add] = user_count;\n        users[user_count].pwd = _pwd;\n    }\n\n    uint256 public candidate_count = 0;\n    uint256 i = 0;\n    uint256 j = 0;\n\n    // user has applied for the candidature in a particular election\n    function add_candidate(\n        uint256 _C_id,\n        string memory _C_name,\n        uint256 _E_id\n    ) public {\n        // Require that the user is not an Admin\n        require(users[_C_id].id != 0, \"The User is not an Admin\");\n\n        uint256 cflag = 0;\n        //Require that user was voter for that particular election as well\n        for (i = 1; i <= voter_list_count; i++) {\n            if ((voterlist[i].id == _C_id) && (voterlist[i].E_id == _E_id)) {\n                cflag = 1;\n                break;\n            }\n        }\n        require(\n            cflag == 1,\n            \"require that user is voter in same election initially\"\n        );\n\n        cflag = 0;\n        //check if the candidate was not a candidate previously\n        for (i = 0; i < candidate_count; i++) {\n            if (candidates[i].C_id == _C_id) {\n                cflag = 1;\n            }\n        }\n\n        require(\n            cflag != 1,\n            \"Require the candidate was not a candidate previously\"\n        );\n\n        // Check if we can change the user struct value\n        candidates.push(\n            candidate({\n                C_id: _C_id,\n                vote_count: 0,\n                C_name: _C_name,\n                E_id: _E_id\n            })\n        );\n        candidate_count++;\n    }\n\n    //approves candidature after candidate applies for the election\n    function candidate_approved_by_admin(uint256 _C_id) public {\n        users[_C_id].permissions = 1;\n        uint256 i = 0;\n        for (; i < candidate_count; i++) {\n            if (candidates[i].C_id == _C_id) {\n                users[_C_id].cand_index = i;\n                break;\n            }\n        }\n    }\n\n    function add_voter_by_admin(uint256 _E_id, uint256 _id) public {\n        voter_list_count++;\n        voterlist[voter_list_count].E_id = _E_id;\n        voterlist[voter_list_count].id = _id;\n        voterlist[voter_list_count].voted = false;\n        voterlist[voter_list_count].reportedByUser = false;\n        voterlist[voter_list_count].blacklisted_by_admin = false;\n    }\n\n    function vote(\n        uint256 _C_id,\n        uint256 _E_id,\n        uint256 _id\n    ) public {\n        // Require that the user is not the admin\n        //require(users[1].add != msg.sender, \"The User is not an Admin\");\n\n        //Election id of candidate and voter are same\n        uint256 uflag = 0;\n\n        for (i = 1; i <= voter_list_count; i++) {\n            if (voterlist[i].id == _id && voterlist[i].E_id == _E_id) {\n                uflag = 1;\n                break;\n            }\n        }\n        require(uflag == 1, \"User is a voter for this election\");\n\n        // Require to check that the voter hasn't voted before\n        for (i = 1; i < voter_list_count; i++) {\n            if ((voterlist[i].id == _id) && (voterlist[i].E_id == _E_id)) {\n                require(!voterlist[i].voted, \"The voter hasn't voted before\");\n            }\n        }\n\n        uint256 flag = 0;\n        // Require that the _C_id is present in the candidates list\n        require(\n            users[_C_id].permissions == 1,\n            \"Candidate is a part of candidate list\"\n        );\n\n        for (j = 0; j < candidate_count; j++) {\n            if (candidates[j].C_id == _C_id) {\n                flag = 1;\n                break;\n            }\n        }\n        if (flag == 1) {\n            candidates[j].vote_count++;\n            voterlist[i].voted = true;\n        }\n\n        // trigger voted event\n        emit votedEvent(_C_id);\n    }\n\n    // Constructor\n    constructor() public {\n        // Add admin first\n        add_user(\n            0x22e9140a50BdB2659b9E473dAa645685C4f409E5,\n            \"admin\",\n            \"admin@coep.ac.in\",\n            \"admin\",\n            2\n        );\n        add_user(\n            0x1BFf1D5FF4234912Efc5fE4FE6Fe8038366A30E1,\n            \"voter 1\",\n            \"voter1@gmail.com\",\n            \"voter 1 password\",\n            0\n        );\n        add_user(\n            0xCD56ad160221d01ea132F05D4057665A97C6934D,\n            \"candidate 1\",\n            \"voter2@gmail.com\",\n            \"candidate 1 password\",\n            0\n        );\n        add_voter_by_admin(1, 2);\n        add_voter_by_admin(1, 3);\n        add_voter_by_admin(2, 3);\n        add_election(\"Gykhana\", 5000, 6000, 7000);\n        add_election(\"Sec\", 5000, 6000, 7000);\n        add_candidate(3, \"candidate 1\", 1);\n        add_candidate(2, \"voter 1\", 1);\n        candidate_approved_by_admin(2);\n        // candidate_approved_by_admin(3);\n    }\n}\n",
  "sourcePath": "/home/rhugaved/TYCourses/Sem 6/SE/Blockchain_Testing/contracts/Election.sol",
  "compiler": {
    "name": "solc",
    "version": "0.5.16+commit.9c3226ce.Emscripten.clang"
  },
  "schemaVersion": "3.3.4",
  "updatedAt": "2021-04-21T06:08:29.757Z",
  "networkType": "ethereum",
  "devdoc": {
    "methods": {}
  },
  "userdoc": {
    "methods": {}
  }
}