{
  "contractName": "Election",
  "abi": [
    {
      "inputs": [],
      "payable": false,
      "stateMutability": "nonpayable",
      "type": "constructor"
    },
    {
      "anonymous": false,
      "inputs": [
        {
          "indexed": true,
          "internalType": "uint256",
          "name": "_C_id",
          "type": "uint256"
        }
      ],
      "name": "votedEvent",
      "type": "event"
    },
    {
      "constant": true,
      "inputs": [
        {
          "internalType": "address",
          "name": "",
          "type": "address"
        }
      ],
      "name": "addresses",
      "outputs": [
        {
          "internalType": "uint256",
          "name": "",
          "type": "uint256"
        }
      ],
      "payable": false,
      "stateMutability": "view",
      "type": "function"
    },
    {
      "constant": true,
      "inputs": [],
      "name": "campaign_count",
      "outputs": [
        {
          "internalType": "uint256",
          "name": "",
          "type": "uint256"
        }
      ],
      "payable": false,
      "stateMutability": "view",
      "type": "function"
    },
    {
      "constant": true,
      "inputs": [
        {
          "internalType": "uint256",
          "name": "",
          "type": "uint256"
        }
      ],
      "name": "campaigns",
      "outputs": [
        {
          "internalType": "uint256",
          "name": "id",
          "type": "uint256"
        },
        {
          "internalType": "string",
          "name": "description",
          "type": "string"
        },
        {
          "internalType": "uint256",
          "name": "c_id",
          "type": "uint256"
        },
        {
          "internalType": "uint256",
          "name": "E_id",
          "type": "uint256"
        },
        {
          "internalType": "string",
          "name": "name",
          "type": "string"
        }
      ],
      "payable": false,
      "stateMutability": "view",
      "type": "function"
    },
    {
      "constant": true,
      "inputs": [],
      "name": "candidate_count",
      "outputs": [
        {
          "internalType": "uint256",
          "name": "",
          "type": "uint256"
        }
      ],
      "payable": false,
      "stateMutability": "view",
      "type": "function"
    },
    {
      "constant": true,
      "inputs": [
        {
          "internalType": "uint256",
          "name": "",
          "type": "uint256"
        }
      ],
      "name": "candidates",
      "outputs": [
        {
          "internalType": "uint256",
          "name": "C_id",
          "type": "uint256"
        },
        {
          "internalType": "uint256",
          "name": "vote_count",
          "type": "uint256"
        },
        {
          "internalType": "string",
          "name": "C_name",
          "type": "string"
        },
        {
          "internalType": "uint256",
          "name": "E_id",
          "type": "uint256"
        },
        {
          "internalType": "string",
          "name": "C_info",
          "type": "string"
        }
      ],
      "payable": false,
      "stateMutability": "view",
      "type": "function"
    },
    {
      "constant": true,
      "inputs": [],
      "name": "election_count",
      "outputs": [
        {
          "internalType": "uint256",
          "name": "",
          "type": "uint256"
        }
      ],
      "payable": false,
      "stateMutability": "view",
      "type": "function"
    },
    {
      "constant": true,
      "inputs": [
        {
          "internalType": "uint256",
          "name": "",
          "type": "uint256"
        }
      ],
      "name": "elections",
      "outputs": [
        {
          "internalType": "uint256",
          "name": "E_id",
          "type": "uint256"
        },
        {
          "internalType": "string",
          "name": "E_name",
          "type": "string"
        },
        {
          "internalType": "uint256",
          "name": "time_cand_register_end",
          "type": "uint256"
        },
        {
          "internalType": "uint256",
          "name": "time_polling_starts",
          "type": "uint256"
        },
        {
          "internalType": "uint256",
          "name": "time_polling_ends",
          "type": "uint256"
        }
      ],
      "payable": false,
      "stateMutability": "view",
      "type": "function"
    },
    {
      "constant": true,
      "inputs": [],
      "name": "report_count",
      "outputs": [
        {
          "internalType": "uint256",
          "name": "",
          "type": "uint256"
        }
      ],
      "payable": false,
      "stateMutability": "view",
      "type": "function"
    },
    {
      "constant": true,
      "inputs": [
        {
          "internalType": "uint256",
          "name": "",
          "type": "uint256"
        }
      ],
      "name": "reports",
      "outputs": [
        {
          "internalType": "uint256",
          "name": "reportId",
          "type": "uint256"
        },
        {
          "internalType": "uint256",
          "name": "E_id",
          "type": "uint256"
        },
        {
          "internalType": "uint256",
          "name": "reported_user",
          "type": "uint256"
        },
        {
          "internalType": "string",
          "name": "reason",
          "type": "string"
        }
      ],
      "payable": false,
      "stateMutability": "view",
      "type": "function"
    },
    {
      "constant": true,
      "inputs": [],
      "name": "user_count",
      "outputs": [
        {
          "internalType": "uint256",
          "name": "",
          "type": "uint256"
        }
      ],
      "payable": false,
      "stateMutability": "view",
      "type": "function"
    },
    {
      "constant": true,
      "inputs": [
        {
          "internalType": "uint256",
          "name": "",
          "type": "uint256"
        }
      ],
      "name": "users",
      "outputs": [
        {
          "internalType": "uint256",
          "name": "id",
          "type": "uint256"
        },
        {
          "internalType": "address",
          "name": "add",
          "type": "address"
        },
        {
          "internalType": "string",
          "name": "name",
          "type": "string"
        },
        {
          "internalType": "string",
          "name": "email",
          "type": "string"
        },
        {
          "internalType": "int256",
          "name": "permissions",
          "type": "int256"
        },
        {
          "internalType": "uint256",
          "name": "cand_index",
          "type": "uint256"
        },
        {
          "internalType": "string",
          "name": "pwd",
          "type": "string"
        }
      ],
      "payable": false,
      "stateMutability": "view",
      "type": "function"
    },
    {
      "constant": true,
      "inputs": [],
      "name": "voter_list_count",
      "outputs": [
        {
          "internalType": "uint256",
          "name": "",
          "type": "uint256"
        }
      ],
      "payable": false,
      "stateMutability": "view",
      "type": "function"
    },
    {
      "constant": true,
      "inputs": [
        {
          "internalType": "uint256",
          "name": "",
          "type": "uint256"
        }
      ],
      "name": "voterlist",
      "outputs": [
        {
          "internalType": "uint256",
          "name": "id",
          "type": "uint256"
        },
        {
          "internalType": "uint256",
          "name": "E_id",
          "type": "uint256"
        },
        {
          "internalType": "bool",
          "name": "voted",
          "type": "bool"
        },
        {
          "internalType": "bool",
          "name": "reportedByUser",
          "type": "bool"
        },
        {
          "internalType": "bool",
          "name": "blacklisted_by_admin",
          "type": "bool"
        }
      ],
      "payable": false,
      "stateMutability": "view",
      "type": "function"
    },
    {
      "constant": false,
      "inputs": [
        {
          "internalType": "string",
          "name": "_E_name",
          "type": "string"
        },
        {
          "internalType": "uint256",
          "name": "_time_cand_register_end",
          "type": "uint256"
        },
        {
          "internalType": "uint256",
          "name": "_time_polling_starts",
          "type": "uint256"
        },
        {
          "internalType": "uint256",
          "name": "_time_polling_ends",
          "type": "uint256"
        }
      ],
      "name": "add_election",
      "outputs": [],
      "payable": false,
      "stateMutability": "nonpayable",
      "type": "function"
    },
    {
      "constant": false,
      "inputs": [
        {
          "internalType": "uint256",
          "name": "_E_id",
          "type": "uint256"
        },
        {
          "internalType": "string",
          "name": "_E_name",
          "type": "string"
        },
        {
          "internalType": "uint256",
          "name": "_time_cand_register_end",
          "type": "uint256"
        },
        {
          "internalType": "uint256",
          "name": "_time_polling_starts",
          "type": "uint256"
        },
        {
          "internalType": "uint256",
          "name": "_time_polling_ends",
          "type": "uint256"
        }
      ],
      "name": "edit_election",
      "outputs": [],
      "payable": false,
      "stateMutability": "nonpayable",
      "type": "function"
    },
    {
      "constant": false,
      "inputs": [
        {
          "internalType": "uint256",
          "name": "_reportedUser",
          "type": "uint256"
        },
        {
          "internalType": "uint256",
          "name": "_E_id",
          "type": "uint256"
        },
        {
          "internalType": "string",
          "name": "_reason",
          "type": "string"
        }
      ],
      "name": "report_by_user",
      "outputs": [],
      "payable": false,
      "stateMutability": "nonpayable",
      "type": "function"
    },
    {
      "constant": false,
      "inputs": [
        {
          "internalType": "uint256",
          "name": "_id",
          "type": "uint256"
        },
        {
          "internalType": "uint256",
          "name": "_E_id",
          "type": "uint256"
        }
      ],
      "name": "blacklist_by_admin",
      "outputs": [],
      "payable": false,
      "stateMutability": "nonpayable",
      "type": "function"
    },
    {
      "constant": false,
      "inputs": [
        {
          "internalType": "address",
          "name": "_add",
          "type": "address"
        },
        {
          "internalType": "string",
          "name": "_name",
          "type": "string"
        },
        {
          "internalType": "string",
          "name": "_email",
          "type": "string"
        },
        {
          "internalType": "string",
          "name": "_pwd",
          "type": "string"
        },
        {
          "internalType": "int256",
          "name": "_permissions",
          "type": "int256"
        }
      ],
      "name": "add_user",
      "outputs": [],
      "payable": false,
      "stateMutability": "nonpayable",
      "type": "function"
    },
    {
      "constant": false,
      "inputs": [
        {
          "internalType": "uint256",
          "name": "_C_id",
          "type": "uint256"
        },
        {
          "internalType": "string",
          "name": "_C_name",
          "type": "string"
        },
        {
          "internalType": "uint256",
          "name": "_E_id",
          "type": "uint256"
        },
        {
          "internalType": "string",
          "name": "_C_info",
          "type": "string"
        }
      ],
      "name": "add_candidate",
      "outputs": [],
      "payable": false,
      "stateMutability": "nonpayable",
      "type": "function"
    },
    {
      "constant": false,
      "inputs": [
        {
          "internalType": "uint256",
          "name": "_C_id",
          "type": "uint256"
        }
      ],
      "name": "candidate_approved_by_admin",
      "outputs": [],
      "payable": false,
      "stateMutability": "nonpayable",
      "type": "function"
    },
    {
      "constant": false,
      "inputs": [
        {
          "internalType": "uint256",
          "name": "_E_id",
          "type": "uint256"
        },
        {
          "internalType": "uint256",
          "name": "_id",
          "type": "uint256"
        }
      ],
      "name": "add_voter_by_admin",
      "outputs": [],
      "payable": false,
      "stateMutability": "nonpayable",
      "type": "function"
    },
    {
      "constant": false,
      "inputs": [
        {
          "internalType": "uint256",
          "name": "_C_id",
          "type": "uint256"
        },
        {
          "internalType": "uint256",
          "name": "_E_id",
          "type": "uint256"
        },
        {
          "internalType": "uint256",
          "name": "_id",
          "type": "uint256"
        }
      ],
      "name": "vote",
      "outputs": [],
      "payable": false,
      "stateMutability": "nonpayable",
      "type": "function"
    },
    {
      "constant": false,
      "inputs": [
        {
          "internalType": "string",
          "name": "_desc",
          "type": "string"
        },
        {
          "internalType": "uint256",
          "name": "_E_id",
          "type": "uint256"
        }
      ],
      "name": "uploadCampaign",
      "outputs": [],
      "payable": false,
      "stateMutability": "nonpayable",
      "type": "function"
    }
  ],
  "bytecode": "0x60806040526000600155600060085560006009556000600a556000600b556000600c556000600d556000600e553480156200003957600080fd5b50620001037381e5135375023544526294743db8dc77e37b3a3c6040518060400160405280600581526020017f61646d696e0000000000000000000000000000000000000000000000000000008152506040518060400160405280601081526020017f61646d696e40636f65702e61632e696e000000000000000000000000000000008152506040518060400160405280600381526020017f313233000000000000000000000000000000000000000000000000000000000081525060026200042d60201b60201c565b620001cc73347498952f9a102aaf611d66b4a9eb1c822acf5a6040518060400160405280600781526020017f766f7465722031000000000000000000000000000000000000000000000000008152506040518060400160405280601081526020017f766f7465723140676d61696c2e636f6d000000000000000000000000000000008152506040518060400160405280600381526020017f313233000000000000000000000000000000000000000000000000000000000081525060006200042d60201b60201c565b6200029573108dd6db4e153bce120bf8ef9e1473f32dea92486040518060400160405280600781526020017f766f7465722032000000000000000000000000000000000000000000000000008152506040518060400160405280601081526020017f766f7465723240676d61696c2e636f6d000000000000000000000000000000008152506040518060400160405280600381526020017f313233000000000000000000000000000000000000000000000000000000000081525060006200042d60201b60201c565b6200035e7343e25608d87fe3faa8686ac89a4fe98d57a4b3cb6040518060400160405280600681526020017f63616e64203100000000000000000000000000000000000000000000000000008152506040518060400160405280600f81526020017f63616e643140676d61696c2e636f6d00000000000000000000000000000000008152506040518060400160405280600381526020017f313233000000000000000000000000000000000000000000000000000000000081525060006200042d60201b60201c565b62000427732c2e70d6c73b51d84b0ed7bf52994a6c74fe74ab6040518060400160405280600681526020017f63616e64203200000000000000000000000000000000000000000000000000008152506040518060400160405280600f81526020017f63616e643240676d61696c2e636f6d00000000000000000000000000000000008152506040518060400160405280600381526020017f313233000000000000000000000000000000000000000000000000000000000081525060006200042d60201b60201c565b6200067a565b600860008154809291906001019190505550600854600260006008548152602001908152602001600020600001819055508460026000600854815260200190815260200160002060010160006101000a81548173ffffffffffffffffffffffffffffffffffffffff021916908373ffffffffffffffffffffffffffffffffffffffff160217905550836002600060085481526020019081526020016000206002019080519060200190620004e3929190620005cb565b5082600260006008548152602001908152602001600020600301908051906020019062000512929190620005cb565b50611388600260006008548152602001908152602001600020600501819055508060026000600854815260200190815260200160002060040181905550600854600360008773ffffffffffffffffffffffffffffffffffffffff1673ffffffffffffffffffffffffffffffffffffffff16815260200190815260200160002081905550816002600060085481526020019081526020016000206006019080519060200190620005c3929190620005cb565b505050505050565b828054600181600116156101000203166002900490600052602060002090601f016020900481019282601f106200060e57805160ff19168380011785556200063f565b828001600101855582156200063f579182015b828111156200063e57825182559160200191906001019062000621565b5b5090506200064e919062000652565b5090565b6200067791905b808211156200067357600081600090555060010162000659565b5090565b90565b612870806200068a6000396000f3fe608060405234801561001057600080fd5b506004361061014d5760003560e01c80636581f8e3116100c3578063bb805f691161007c578063bb805f6914610bdd578063c2b4182914610bfb578063c5f1ec2314610cca578063c942adf714610dad578063ec4e8b0314610e69578063ec853e2814610f2e5761014d565b80636581f8e31461078e5780637361068c146107ac57806382d38954146107ca5780638a6655d614610822578063a06db33214610864578063ad7c74a9146109ca5761014d565b80633477ee2e116101155780633477ee2e14610326578063365b98b21461044e5780633ed29e6e146106155780634b1c4c291461064357806354d8d6d2146106615780635e6fef01146106cb5761014d565b80630732583c146101525780631050a03214610170578063141961bc146101a85780631ebdeebb146102d057806329aff52014610308575b600080fd5b61015a611007565b6040518082815260200191505060405180910390f35b6101a66004803603604081101561018657600080fd5b81019080803590602001909291908035906020019092919050505061100d565b005b6101d4600480360360208110156101be57600080fd5b810190808035906020019092919050505061109f565b604051808681526020018060200185815260200184815260200180602001838103835287818151815260200191508051906020019080838360005b8381101561022a57808201518184015260208101905061020f565b50505050905090810190601f1680156102575780820380516001836020036101000a031916815260200191505b50838103825284818151815260200191508051906020019080838360005b83811015610290578082015181840152602081019050610275565b50505050905090810190601f1680156102bd5780820380516001836020036101000a031916815260200191505b5097505050505050505060405180910390f35b610306600480360360408110156102e657600080fd5b810190808035906020019092919080359060200190929190505050611205565b005b6103106112e8565b6040518082815260200191505060405180910390f35b6103526004803603602081101561033c57600080fd5b81019080803590602001909291905050506112ee565b604051808681526020018581526020018060200184815260200180602001838103835286818151815260200191508051906020019080838360005b838110156103a857808201518184015260208101905061038d565b50505050905090810190601f1680156103d55780820380516001836020036101000a031916815260200191505b50838103825284818151815260200191508051906020019080838360005b8381101561040e5780820151818401526020810190506103f3565b50505050905090810190601f16801561043b5780820380516001836020036101000a031916815260200191505b5097505050505050505060405180910390f35b61047a6004803603602081101561046457600080fd5b8101908080359060200190929190505050611461565b604051808881526020018773ffffffffffffffffffffffffffffffffffffffff1673ffffffffffffffffffffffffffffffffffffffff168152602001806020018060200186815260200185815260200180602001848103845289818151815260200191508051906020019080838360005b838110156105065780820151818401526020810190506104eb565b50505050905090810190601f1680156105335780820380516001836020036101000a031916815260200191505b50848103835288818151815260200191508051906020019080838360005b8381101561056c578082015181840152602081019050610551565b50505050905090810190601f1680156105995780820380516001836020036101000a031916815260200191505b50848103825285818151815260200191508051906020019080838360005b838110156105d25780820151818401526020810190506105b7565b50505050905090810190601f1680156105ff5780820380516001836020036101000a031916815260200191505b509a505050505050505050505060405180910390f35b6106416004803603602081101561062b57600080fd5b810190808035906020019092919050505061168b565b005b61064b61170e565b6040518082815260200191505060405180910390f35b61068d6004803603602081101561067757600080fd5b8101908080359060200190929190505050611714565b604051808681526020018581526020018415151515815260200183151515158152602001821515151581526020019550505050505060405180910390f35b6106f7600480360360208110156106e157600080fd5b8101908080359060200190929190505050611771565b6040518086815260200180602001858152602001848152602001838152602001828103825286818151815260200191508051906020019080838360005b8381101561074f578082015181840152602081019050610734565b50505050905090810190601f16801561077c5780820380516001836020036101000a031916815260200191505b50965050505050505060405180910390f35b61079661183f565b6040518082815260200191505060405180910390f35b6107b4611845565b6040518082815260200191505060405180910390f35b61080c600480360360208110156107e057600080fd5b81019080803573ffffffffffffffffffffffffffffffffffffffff16906020019092919050505061184b565b6040518082815260200191505060405180910390f35b6108626004803603606081101561083857600080fd5b81019080803590602001909291908035906020019092919080359060200190929190505050611863565b005b6109c86004803603608081101561087a57600080fd5b8101908080359060200190929190803590602001906401000000008111156108a157600080fd5b8201836020820111156108b357600080fd5b803590602001918460018302840111640100000000831117156108d557600080fd5b91908080601f016020809104026020016040519081016040528093929190818152602001838380828437600081840152601f19601f820116905080830192505050505050509192919290803590602001909291908035906020019064010000000081111561094257600080fd5b82018360208201111561095457600080fd5b8035906020019184600183028401116401000000008311171561097657600080fd5b91908080601f016020809104026020016040519081016040528093929190818152602001838380828437600081840152601f19601f820116905080830192505050505050509192919290505050611b9f565b005b610bdb600480360360a08110156109e057600080fd5b81019080803573ffffffffffffffffffffffffffffffffffffffff16906020019092919080359060200190640100000000811115610a1d57600080fd5b820183602082011115610a2f57600080fd5b80359060200191846001830284011164010000000083111715610a5157600080fd5b91908080601f016020809104026020016040519081016040528093929190818152602001838380828437600081840152601f19601f82011690508083019250505050505050919291929080359060200190640100000000811115610ab457600080fd5b820183602082011115610ac657600080fd5b80359060200191846001830284011164010000000083111715610ae857600080fd5b91908080601f016020809104026020016040519081016040528093929190818152602001838380828437600081840152601f19601f82011690508083019250505050505050919291929080359060200190640100000000811115610b4b57600080fd5b820183602082011115610b5d57600080fd5b80359060200191846001830284011164010000000083111715610b7f57600080fd5b91908080601f016020809104026020016040519081016040528093929190818152602001838380828437600081840152601f19601f82011690508083019250505050505050919291929080359060200190929190505050611e81565b005b610be5612019565b6040518082815260200191505060405180910390f35b610cc860048036036060811015610c1157600080fd5b81019080803590602001909291908035906020019092919080359060200190640100000000811115610c4257600080fd5b820183602082011115610c5457600080fd5b80359060200191846001830284011164010000000083111715610c7657600080fd5b91908080601f016020809104026020016040519081016040528093929190818152602001838380828437600081840152601f19601f82011690508083019250505050505050919291929050505061201f565b005b610dab600480360360a0811015610ce057600080fd5b810190808035906020019092919080359060200190640100000000811115610d0757600080fd5b820183602082011115610d1957600080fd5b80359060200191846001830284011164010000000083111715610d3b57600080fd5b91908080601f016020809104026020016040519081016040528093929190818152602001838380828437600081840152601f19601f8201169050808301925050505050505091929192908035906020019092919080359060200190929190803590602001909291905050506121e1565b005b610dd960048036036020811015610dc357600080fd5b8101908080359060200190929190505050612264565b6040518085815260200184815260200183815260200180602001828103825283818151815260200191508051906020019080838360005b83811015610e2b578082015181840152602081019050610e10565b50505050905090810190601f168015610e585780820380516001836020036101000a031916815260200191505b509550505050505060405180910390f35b610f2c60048036036040811015610e7f57600080fd5b8101908080359060200190640100000000811115610e9c57600080fd5b820183602082011115610eae57600080fd5b80359060200191846001830284011164010000000083111715610ed057600080fd5b91908080601f016020809104026020016040519081016040528093929190818152602001838380828437600081840152601f19601f8201169050808301925050505050505091929192908035906020019092919050505061232c565b005b61100560048036036080811015610f4457600080fd5b8101908080359060200190640100000000811115610f6157600080fd5b820183602082011115610f7357600080fd5b80359060200191846001830284011164010000000083111715610f9557600080fd5b91908080601f016020809104026020016040519081016040528093929190818152602001838380828437600081840152601f19601f8201169050808301925050505050505091929192908035906020019092919080359060200190929190803590602001909291905050506125cd565b005b600a5481565b6000600190505b60095481101561109a578260056000838152602001908152602001600020600001541480156110585750816005600083815260200190815260200160002060010154145b1561108d5760016005600083815260200190815260200160002060020160026101000a81548160ff0219169083151502179055505b8080600101915050611014565b505050565b6000602052806000526040600020600091509050806000015490806001018054600181600116156101000203166002900480601f0160208091040260200160405190810160405280929190818152602001828054600181600116156101000203166002900480156111515780601f1061112657610100808354040283529160200191611151565b820191906000526020600020905b81548152906001019060200180831161113457829003601f168201915b505050505090806002015490806003015490806004018054600181600116156101000203166002900480601f0160208091040260200160405190810160405280929190818152602001828054600181600116156101000203166002900480156111fb5780601f106111d0576101008083540402835291602001916111fb565b820191906000526020600020905b8154815290600101906020018083116111de57829003601f168201915b5050505050905085565b60096000815480929190600101919050555081600560006009548152602001908152602001600020600101819055508060056000600954815260200190815260200160002060000181905550600060056000600954815260200190815260200160002060020160006101000a81548160ff021916908315150217905550600060056000600954815260200190815260200160002060020160016101000a81548160ff021916908315150217905550600060056000600954815260200190815260200160002060020160026101000a81548160ff0219169083151502179055505050565b600b5481565b600781815481106112fb57fe5b9060005260206000209060050201600091509050806000015490806001015490806002018054600181600116156101000203166002900480601f0160208091040260200160405190810160405280929190818152602001828054600181600116156101000203166002900480156113b35780601f10611388576101008083540402835291602001916113b3565b820191906000526020600020905b81548152906001019060200180831161139657829003601f168201915b505050505090806003015490806004018054600181600116156101000203166002900480601f0160208091040260200160405190810160405280929190818152602001828054600181600116156101000203166002900480156114575780601f1061142c57610100808354040283529160200191611457565b820191906000526020600020905b81548152906001019060200180831161143a57829003601f168201915b5050505050905085565b60026020528060005260406000206000915090508060000154908060010160009054906101000a900473ffffffffffffffffffffffffffffffffffffffff1690806002018054600181600116156101000203166002900480601f0160208091040260200160405190810160405280929190818152602001828054600181600116156101000203166002900480156115395780601f1061150e57610100808354040283529160200191611539565b820191906000526020600020905b81548152906001019060200180831161151c57829003601f168201915b505050505090806003018054600181600116156101000203166002900480601f0160208091040260200160405190810160405280929190818152602001828054600181600116156101000203166002900480156115d75780601f106115ac576101008083540402835291602001916115d7565b820191906000526020600020905b8154815290600101906020018083116115ba57829003601f168201915b505050505090806004015490806005015490806006018054600181600116156101000203166002900480601f0160208091040260200160405190810160405280929190818152602001828054600181600116156101000203166002900480156116815780601f1061165657610100808354040283529160200191611681565b820191906000526020600020905b81548152906001019060200180831161166457829003601f168201915b5050505050905087565b6001600260008381526020019081526020016000206004018190555060008090505b600c5481101561170a5781600782815481106116c557fe5b90600052602060002090600502016000015414156116fd5780600260008481526020019081526020016000206005018190555061170a565b80806001019150506116ad565b5050565b600c5481565b60056020528060005260406000206000915090508060000154908060010154908060020160009054906101000a900460ff16908060020160019054906101000a900460ff16908060020160029054906101000a900460ff16905085565b6004602052806000526040600020600091509050806000015490806001018054600181600116156101000203166002900480601f0160208091040260200160405190810160405280929190818152602001828054600181600116156101000203166002900480156118235780601f106117f857610100808354040283529160200191611823565b820191906000526020600020905b81548152906001019060200180831161180657829003601f168201915b5050505050908060020154908060030154908060040154905085565b60015481565b60095481565b60036020528060005260406000206000915090505481565b3373ffffffffffffffffffffffffffffffffffffffff16600260006001815260200190815260200160002060010160009054906101000a900473ffffffffffffffffffffffffffffffffffffffff1673ffffffffffffffffffffffffffffffffffffffff16141561193c576040517f08c379a00000000000000000000000000000000000000000000000000000000081526004018080602001828103825260188152602001807f5468652055736572206973206e6f7420616e2041646d696e000000000000000081525060200191505060405180910390fd5b60016002600085815260200190815260200160002060040154146119ab576040517f08c379a00000000000000000000000000000000000000000000000000000000081526004018080602001828103825260258152602001806128176025913960400191505060405180910390fd5b6001600d819055505b600954600d5411611ae8578060056000600d548152602001908152602001600020600001541480156119fd57508160056000600d54815260200190815260200160002060010154145b15611ad15760056000600d54815260200190815260200160002060020160009054906101000a900460ff1615611a9b576040517f08c379a000000000000000000000000000000000000000000000000000000000815260040180806020018281038252601d8152602001807f54686520766f746572206861736e277420766f746564206265666f726500000081525060200191505060405180910390fd5b600160056000600d54815260200190815260200160002060020160006101000a81548160ff021916908315150217905550611ae8565b600d600081548092919060010191905055506119b4565b6000600e819055505b600c54600e541015611b6d57826007600e5481548110611b0d57fe5b9060005260206000209060050201600001541415611b56576007600e5481548110611b3457fe5b9060005260206000209060050201600101600081548092919060010191905055505b600e60008154809291906001019190505550611af1565b827ffff3c900d938d21d0990d786e819f29b8d05c1ef587b462b939609625b684b1660405160405180910390a2505050565b600060026000868152602001908152602001600020600001541415611c2c576040517f08c379a00000000000000000000000000000000000000000000000000000000081526004018080602001828103825260188152602001807f5468652055736572206973206e6f7420616e2041646d696e000000000000000081525060200191505060405180910390fd5b60008090506001600d819055505b600954600d5411611ca8578460056000600d54815260200190815260200160002060000154148015611c8357508260056000600d54815260200190815260200160002060010154145b15611c915760019050611ca8565b600d60008154809291906001019190505550611c3a565b60018114611d01576040517f08c379a00000000000000000000000000000000000000000000000000000000081526004018080602001828103825260358152602001806127e26035913960400191505060405180910390fd5b600090506000600d819055505b600c54600d541015611d5e57846007600d5481548110611d2a57fe5b9060005260206000209060050201600001541415611d4757600190505b600d60008154809291906001019190505550611d0e565b6001811415611db8576040517f08c379a00000000000000000000000000000000000000000000000000000000081526004018080602001828103825260348152602001806127ae6034913960400191505060405180910390fd5b60076040518060a0016040528087815260200160008152602001868152602001858152602001848152509080600181540180825580915050906001820390600052602060002090600502016000909192909190915060008201518160000155602082015181600101556040820151816002019080519060200190611e3d929190612688565b50606082015181600301556080820151816004019080519060200190611e64929190612688565b50505050600c600081548092919060010191905055505050505050565b600860008154809291906001019190505550600854600260006008548152602001908152602001600020600001819055508460026000600854815260200190815260200160002060010160006101000a81548173ffffffffffffffffffffffffffffffffffffffff021916908373ffffffffffffffffffffffffffffffffffffffff160217905550836002600060085481526020019081526020016000206002019080519060200190611f35929190612708565b50826002600060085481526020019081526020016000206003019080519060200190611f62929190612708565b50611388600260006008548152602001908152602001600020600501819055508060026000600854815260200190815260200160002060040181905550600854600360008773ffffffffffffffffffffffffffffffffffffffff1673ffffffffffffffffffffffffffffffffffffffff16815260200190815260200160002081905550816002600060085481526020019081526020016000206006019080519060200190612011929190612708565b505050505050565b60085481565b6000600190505b6009548110156121435783600560008381526020019081526020016000206000015414801561206a5750826005600083815260200190815260200160002060010154145b15612136576005600082815260200190815260200160002060020160019054906101000a900460ff1615612106576040517f08c379a00000000000000000000000000000000000000000000000000000000081526004018080602001828103825260188152602001807f5573657220697320616c7265616479207265706f72746564000000000000000081525060200191505060405180910390fd5b60016005600083815260200190815260200160002060020160016101000a81548160ff0219169083151502179055505b8080600101915050612026565b600b60008154809291906001019190505550600b5460066000600b548152602001908152602001600020600001819055508260066000600b548152602001908152602001600020600101819055508360066000600b548152602001908152602001600020600201819055508160066000600b54815260200190815260200160002060030190805190602001906121da929190612708565b5050505050565b8360046000878152602001908152602001600020600101908051906020019061220b929190612708565b508260046000878152602001908152602001600020600201819055508160046000878152602001908152602001600020600301819055508060046000878152602001908152602001600020600401819055505050505050565b6006602052806000526040600020600091509050806000015490806001015490806002015490806003018054600181600116156101000203166002900480601f0160208091040260200160405190810160405280929190818152602001828054600181600116156101000203166002900480156123225780601f106122f757610100808354040283529160200191612322565b820191906000526020600020905b81548152906001019060200180831161230557829003601f168201915b5050505050905084565b600082511161233a57600080fd5b600073ffffffffffffffffffffffffffffffffffffffff163373ffffffffffffffffffffffffffffffffffffffff16141561237457600080fd5b600160008154809291906001019190505550600080905060008060606000600294505b60085485116124ff573373ffffffffffffffffffffffffffffffffffffffff166002600087815260200190815260200160002060010160009054906101000a900473ffffffffffffffffffffffffffffffffffffffff1673ffffffffffffffffffffffffffffffffffffffff1614156124f25760026000868152602001908152602001600020600001549350600260008681526020019081526020016000206002018054600181600116156101000203166002900480601f0160208091040260200160405190810160405280929190818152602001828054600181600116156101000203166002900480156124cd5780601f106124a2576101008083540402835291602001916124cd565b820191906000526020600020905b8154815290600101906020018083116124b057829003601f168201915b50505050509150600260008681526020019081526020016000206005015490506124ff565b8480600101955050612397565b6007818154811061250c57fe5b906000526020600020906005020160030154925085831461252c57600080fd5b6040518060a00160405280600154815260200188815260200185815260200184815260200183815250600080600154815260200190815260200160002060008201518160000155602082015181600101908051906020019061258f929190612688565b50604082015181600201556060820151816003015560808201518160040190805190602001906125c0929190612688565b5090505050505050505050565b600a60008154809291906001019190505550600a5460046000600a548152602001908152602001600020600001819055508360046000600a548152602001908152602001600020600101908051906020019061262a929190612708565b508260046000600a548152602001908152602001600020600201819055508160046000600a548152602001908152602001600020600301819055508060046000600a5481526020019081526020016000206004018190555050505050565b828054600181600116156101000203166002900490600052602060002090601f016020900481019282601f106126c957805160ff19168380011785556126f7565b828001600101855582156126f7579182015b828111156126f65782518255916020019190600101906126db565b5b5090506127049190612788565b5090565b828054600181600116156101000203166002900490600052602060002090601f016020900481019282601f1061274957805160ff1916838001178555612777565b82800160010185558215612777579182015b8281111561277657825182559160200191906001019061275b565b5b5090506127849190612788565b5090565b6127aa91905b808211156127a657600081600090555060010161278e565b5090565b9056fe52657175697265207468652063616e64696461746520776173206e6f7420612063616e6469646174652070726576696f75736c79726571756972652074686174207573657220697320766f74657220696e2073616d6520656c656374696f6e20696e697469616c6c7943616e64696461746520697320612070617274206f662063616e646964617465206c697374a265627a7a7231582092102dcbbcc093d1b398c3c54715a38a08769a050b5611d52bb08934eab27bdc64736f6c63430005100032",
  "source": "// SPDX-License-Identifier: MIT\npragma solidity >=0.4.22 <0.9.0;\n\ncontract Election {\n    // Model a base USER\n    struct user {\n        // Admin has the UserId 1\n        uint256 id;\n        address add;\n        string name;\n        // string C_pwd;\n        // string profile_path;\n        string email;\n        // Permissions:- 0: Voter, 1: Candidate, 2: Admin, -1: Invalid\n        int256 permissions;\n        uint256 cand_index;\n        string pwd;\n    }\n\n    struct candidate {\n        uint256 C_id;\n        uint256 vote_count;\n        string C_name;\n        uint256 E_id;\n        // C_info: Achievements, clubs etc.\n        string C_info;\n    }\n\n    struct election {\n        uint256 E_id;\n        string E_name;\n        // time will be stored in seconds on blockchain, and JS will handle it accordingly.\n        // Campaigning time will start just after time for candidate registration is over and\n        // will end 24 hrs prior to polling\n        uint256 time_cand_register_end;\n        uint256 time_polling_starts;\n        uint256 time_polling_ends;\n    }\n\n    struct report {\n        uint256 reportId;\n        uint256 E_id;\n        uint256 reported_user;\n        string reason;\n    }\n\n    struct voter {\n        uint256 id;\n        uint256 E_id;\n        bool voted;\n        bool reportedByUser;\n        bool blacklisted_by_admin;\n    }\n\n    struct campaign {\n        uint256 id;\n        string description;\n        // string description;\n        uint256 c_id;\n        uint256 E_id;\n        string name;\n    }\n\n    // event CampaignCreated(\n    //     uint256 id,\n    //     string hash,\n    //     // string description,\n    //     uint256 c_id,\n    //     uint256 E_id,\n    //     string name\n    // );\n\n    //Fetch Campaign Data\n    mapping(uint256 => campaign) public campaigns;\n\n    // Store Campaign Count\n    uint256 public campaign_count = 0;\n\n    // Fetch Users\n    mapping(uint256 => user) public users;\n\n    //addresses mapping with ids\n    mapping(address => uint256) public addresses;\n\n    // store elections\n    mapping(uint256 => election) public elections;\n\n    mapping(uint256 => voter) public voterlist;\n\n    mapping(uint256 => report) public reports;\n\n    // Array of candidate struct to store candidates\n    candidate[] public candidates;\n\n    // voted event\n    event votedEvent(uint256 indexed _C_id);\n\n    // Store Candidates Count\n    uint256 public user_count = 0;\n    uint256 public voter_list_count = 0;\n\n    // Store Eletions Count\n    uint256 public election_count = 0;\n    uint256 public report_count = 0;\n\n    // Add elections\n    // Remember election_count is same as E_id for a particular election.\n    function add_election(\n        string memory _E_name,\n        uint256 _time_cand_register_end,\n        uint256 _time_polling_starts,\n        uint256 _time_polling_ends\n    ) public {\n        // Check in JS that the time entered are accordingly after the current time.\n        // i.e current_time < cand_time < poll_start < poll_end;\n        election_count++;\n        elections[election_count].E_id = election_count;\n        elections[election_count].E_name = _E_name;\n        elections[election_count]\n            .time_cand_register_end = _time_cand_register_end;\n        elections[election_count].time_polling_starts = _time_polling_starts;\n        elections[election_count].time_polling_ends = _time_polling_ends;\n    }\n\n    // Edit elections\n    // Remember election_count is same as E_id for a particular election.\n    function edit_election(\n        uint256 _E_id,\n        string memory _E_name,\n        uint256 _time_cand_register_end,\n        uint256 _time_polling_starts,\n        uint256 _time_polling_ends\n    ) public {\n        // elections[election_count].E_id = election_count;\n        elections[_E_id].E_name = _E_name;\n        elections[_E_id].time_cand_register_end = _time_cand_register_end;\n        elections[_E_id].time_polling_starts = _time_polling_starts;\n        elections[_E_id].time_polling_ends = _time_polling_ends;\n    }\n\n    function report_by_user(\n        uint256 _reportedUser,\n        uint256 _E_id,\n        string memory _reason\n    ) public {\n        uint256 i;\n        for (i = 1; i < voter_list_count; i++) {\n            if (\n                voterlist[i].id == _reportedUser && voterlist[i].E_id == _E_id\n            ) {\n                require(!voterlist[i].reportedByUser, \"User is already reported\");\n                voterlist[i].reportedByUser = true;\n            }\n        }\n        report_count++;\n        reports[report_count].reportId = report_count;\n        reports[report_count].E_id = _E_id;\n        reports[report_count].reported_user = _reportedUser;\n        reports[report_count].reason = _reason;\n    }\n\n    function blacklist_by_admin(uint256 _id, uint256 _E_id) public {\n        uint256 i;\n        for (i = 1; i < voter_list_count; i++) {\n            if (voterlist[i].id == _id && voterlist[i].E_id == _E_id) {\n                voterlist[i].blacklisted_by_admin = true;\n            }\n        }\n    }\n\n    // Add users(Voters), but first add Admin\n    // Remember user_count is same as id\n    function add_user(\n        address _add,\n        string memory _name,\n        string memory _email,\n        string memory _pwd,\n        int256 _permissions\n    ) public {\n        user_count++;\n        users[user_count].id = user_count;\n        users[user_count].add = _add;\n        users[user_count].name = _name;\n        users[user_count].email = _email;\n        users[user_count].cand_index = 5000;\n        users[user_count].permissions = _permissions;\n        addresses[_add] = user_count;\n        users[user_count].pwd = _pwd;\n    }\n\n    uint256 public candidate_count = 0;\n    uint256 i = 0;\n    uint256 j = 0;\n\n    // user has applied for the candidature in a particular election\n    function add_candidate(\n        uint256 _C_id,\n        string memory _C_name,\n        uint256 _E_id,\n        string memory _C_info\n    ) public {\n        // Require that the user is not an Admin\n        require(users[_C_id].id != 0, \"The User is not an Admin\");\n\n        uint256 cflag = 0;\n        //Require that user was voter for that particular election as well\n        for (i = 1; i <= voter_list_count; i++) {\n            if ((voterlist[i].id == _C_id) && (voterlist[i].E_id == _E_id)) {\n                cflag = 1;\n                break;\n            }\n        }\n        require(\n            cflag == 1,\n            \"require that user is voter in same election initially\"\n        );\n\n        cflag = 0;\n        //check if the candidate was not a candidate previously\n        for (i = 0; i < candidate_count; i++) {\n            if (candidates[i].C_id == _C_id) {\n                cflag = 1;\n            }\n        }\n\n        require(\n            cflag != 1,\n            \"Require the candidate was not a candidate previously\"\n        );\n\n        // Check if we can change the user struct value\n        candidates.push(\n            candidate({\n                C_id: _C_id,\n                vote_count: 0,\n                C_name: _C_name,\n                E_id: _E_id,\n                C_info: _C_info\n            })\n        );\n        candidate_count++;\n    }\n\n    //approves candidature after candidate applies for the election\n    function candidate_approved_by_admin(uint256 _C_id) public {\n        users[_C_id].permissions = 1;\n        uint256 i = 0;\n        for (; i < candidate_count; i++) {\n            if (candidates[i].C_id == _C_id) {\n                users[_C_id].cand_index = i;\n                break;\n            }\n        }\n    }\n\n    function add_voter_by_admin(uint256 _E_id, uint256 _id) public {\n        voter_list_count++;\n        voterlist[voter_list_count].E_id = _E_id;\n        voterlist[voter_list_count].id = _id;\n        voterlist[voter_list_count].voted = false;\n        voterlist[voter_list_count].reportedByUser = false;\n        voterlist[voter_list_count].blacklisted_by_admin = false;\n    }\n\n    function vote(\n        uint256 _C_id,\n        uint256 _E_id,\n        uint256 _id\n    ) public {\n        // Require that the user is not the admin\n        require(users[1].add != msg.sender, \"The User is not an Admin\");\n\n        // Require that the _C_id is present in the candidates list\n        require(\n            users[_C_id].permissions == 1,\n            \"Candidate is a part of candidate list\"\n        );\n\n        //Election id of candidate and voter are same\n        // Require to check that the voter hasn't voted before\n        for (i = 1; i <= voter_list_count; i++) {\n            if (voterlist[i].id == _id && voterlist[i].E_id == _E_id) {\n                require(!voterlist[i].voted, \"The voter hasn't voted before\");\n                voterlist[i].voted = true;\n                break;\n            }\n        }\n\n        for (j = 0; j < candidate_count; j++) {\n            if (candidates[j].C_id == _C_id) {\n                candidates[j].vote_count++;\n            }\n        }\n\n        // trigger voted event\n        emit votedEvent(_C_id);\n    }\n\n    function uploadCampaign(string memory _desc, uint256 _E_id) public {\n        // Make sure the image hash exists\n        require(bytes(_desc).length > 0);\n        // Make sure image description exists\n        //require(bytes(_description).length > 0);\n        // Make sure uploader address exists\n        require(msg.sender != address(0));\n\n        //Increment campaign count\n        campaign_count++;\n        uint256 i = 0;\n        uint256 u_id;\n        uint256 e_id;\n        string memory name;\n        uint256 cnd_index;\n        for (i = 2; i <= user_count; i++) {\n            if (users[i].add == msg.sender) {\n                u_id = users[i].id;\n                name = users[i].name;\n                cnd_index = users[i].cand_index;\n                break;\n            }\n        }\n\n        //that user is a candidate in the election\n        e_id = candidates[cnd_index].E_id;\n        require(e_id == _E_id);\n\n        //Add image to contract\n        //passing fifth argument 1 as of now, needs to be changed\n        campaigns[campaign_count] = campaign(\n            campaign_count,\n            _desc,\n            u_id,\n            e_id,\n            name\n        );\n    }\n\n    // Constructor\n    constructor() public {\n        // Add admin first\n        // add_user(\n        //     0x22e9140a50BdB2659b9E473dAa645685C4f409E5,\n        //     \"admin\",\n        //     \"admin@coep.ac.in\",\n        //     \"123\",\n        //     2\n        // );\n        // add_user(\n        //     0x1BFf1D5FF4234912Efc5fE4FE6Fe8038366A30E1,\n        //     \"voter 1\",\n        //     \"voter1@gmail.com\",\n        //     \"123\",\n        //     0\n        // );\n        // add_user(\n        //     0xCD56ad160221d01ea132F05D4057665A97C6934D,\n        //     \"voter 2\",\n        //     \"voter2@gmail.com\",\n        //     \"123\",\n        //     0\n        // );\n        // add_user(\n        //     0x2D89b40E5C820Ee508577ac851DF5e1Bb095C037,\n        //     \"cand 1\",\n        //     \"cand1@gmail.com\",\n        //     \"123\",\n        //     0\n        // );\n        // add_user(\n        //     0x6f7B8dF18264EeF57c112a94ce06cc2fa705ab71,\n        //     \"cand 2\",\n        //     \"cand2@gmail.com\",\n        //     \"123\",\n        //     0\n        // );\n        // add_user(\n        //     0x33fF69744215B3E8b8389D70C2A358BFB3fA16ae,\n        //     \"Reported\",\n        //     \"reported@gmail.com\",\n        //     \"123\",\n        //     0\n        // );\n\n        //himansh\n        add_user(\n            0x81e5135375023544526294743DB8dc77e37B3a3c,\n            \"admin\",\n            \"admin@coep.ac.in\",\n            \"123\",\n            2\n        );\n        add_user(\n            0x347498952f9a102aAf611d66b4A9eb1c822AcF5A,\n            \"voter 1\",\n            \"voter1@gmail.com\",\n            \"123\",\n            0\n        );\n        add_user(\n            0x108dd6Db4E153BcE120bf8EF9E1473f32dea9248,\n            \"voter 2\",\n            \"voter2@gmail.com\",\n            \"123\",\n            0\n        );\n        add_user(\n            0x43e25608d87fE3faA8686Ac89A4Fe98d57A4b3cb,\n            \"cand 1\",\n            \"cand1@gmail.com\",\n            \"123\",\n            0\n        );\n        add_user(\n            0x2c2E70D6c73B51D84B0eD7BF52994A6C74Fe74aB,\n            \"cand 2\",\n            \"cand2@gmail.com\",\n            \"123\",\n            0\n        );\n        // add_voter_by_admin(1, 2);\n        // add_voter_by_admin(1, 3);\n        // add_voter_by_admin(2, 3);\n        // add_election(\"Gykhana\", 5000, 1618926000, 1618940000);\n        // add_election(\"Sec\", 5000, 6000, 7000);\n        // add_candidate(3, \"candidate 1\", 1);\n        // add_candidate(2, \"voter 1\", 1);\n        // candidate_approved_by_admin(2);\n        // candidate_approved_by_admin(3);\n        // report_by_user(2, 1, \"Fake\");\n    }\n}\n",
  "sourcePath": "/home/himansh/OnlineElectionPortal/contracts/Election.sol",
  "compiler": {
    "name": "solc",
    "version": "0.5.16+commit.9c3226ce.Emscripten.clang"
  },
  "schemaVersion": "3.3.4",
  "updatedAt": "2021-04-22T16:17:42.379Z",
  "networkType": "ethereum",
  "devdoc": {
    "methods": {}
  },
  "userdoc": {
    "methods": {}
  }
}