{
  "contractName": "Election",
  "abi": [
    {
      "inputs": [],
      "payable": false,
      "stateMutability": "nonpayable",
      "type": "constructor"
    },
    {
      "anonymous": false,
      "inputs": [
        {
          "indexed": false,
          "internalType": "uint256",
          "name": "id",
          "type": "uint256"
        },
        {
          "indexed": false,
          "internalType": "string",
          "name": "hash",
          "type": "string"
        },
        {
          "indexed": false,
          "internalType": "uint256",
          "name": "c_id",
          "type": "uint256"
        },
        {
          "indexed": false,
          "internalType": "uint256",
          "name": "E_id",
          "type": "uint256"
        },
        {
          "indexed": false,
          "internalType": "string",
          "name": "name",
          "type": "string"
        }
      ],
      "name": "CampaignCreated",
      "type": "event"
    },
    {
      "anonymous": false,
      "inputs": [
        {
          "indexed": true,
          "internalType": "uint256",
          "name": "_C_id",
          "type": "uint256"
        }
      ],
      "name": "votedEvent",
      "type": "event"
    },
    {
      "constant": true,
      "inputs": [
        {
          "internalType": "address",
          "name": "",
          "type": "address"
        }
      ],
      "name": "addresses",
      "outputs": [
        {
          "internalType": "uint256",
          "name": "",
          "type": "uint256"
        }
      ],
      "payable": false,
      "stateMutability": "view",
      "type": "function"
    },
    {
      "constant": true,
      "inputs": [],
      "name": "campaign_count",
      "outputs": [
        {
          "internalType": "uint256",
          "name": "",
          "type": "uint256"
        }
      ],
      "payable": false,
      "stateMutability": "view",
      "type": "function"
    },
    {
      "constant": true,
      "inputs": [
        {
          "internalType": "uint256",
          "name": "",
          "type": "uint256"
        }
      ],
      "name": "campaigns",
      "outputs": [
        {
          "internalType": "uint256",
          "name": "id",
          "type": "uint256"
        },
        {
          "internalType": "string",
          "name": "hash",
          "type": "string"
        },
        {
          "internalType": "uint256",
          "name": "c_id",
          "type": "uint256"
        },
        {
          "internalType": "uint256",
          "name": "E_id",
          "type": "uint256"
        },
        {
          "internalType": "string",
          "name": "name",
          "type": "string"
        }
      ],
      "payable": false,
      "stateMutability": "view",
      "type": "function"
    },
    {
      "constant": true,
      "inputs": [],
      "name": "candidate_count",
      "outputs": [
        {
          "internalType": "uint256",
          "name": "",
          "type": "uint256"
        }
      ],
      "payable": false,
      "stateMutability": "view",
      "type": "function"
    },
    {
      "constant": true,
      "inputs": [
        {
          "internalType": "uint256",
          "name": "",
          "type": "uint256"
        }
      ],
      "name": "candidates",
      "outputs": [
        {
          "internalType": "uint256",
          "name": "C_id",
          "type": "uint256"
        },
        {
          "internalType": "uint256",
          "name": "vote_count",
          "type": "uint256"
        },
        {
          "internalType": "string",
          "name": "C_name",
          "type": "string"
        },
        {
          "internalType": "uint256",
          "name": "E_id",
          "type": "uint256"
        }
      ],
      "payable": false,
      "stateMutability": "view",
      "type": "function"
    },
    {
      "constant": true,
      "inputs": [],
      "name": "election_count",
      "outputs": [
        {
          "internalType": "uint256",
          "name": "",
          "type": "uint256"
        }
      ],
      "payable": false,
      "stateMutability": "view",
      "type": "function"
    },
    {
      "constant": true,
      "inputs": [
        {
          "internalType": "uint256",
          "name": "",
          "type": "uint256"
        }
      ],
      "name": "elections",
      "outputs": [
        {
          "internalType": "uint256",
          "name": "E_id",
          "type": "uint256"
        },
        {
          "internalType": "string",
          "name": "E_name",
          "type": "string"
        },
        {
          "internalType": "uint256",
          "name": "time_cand_register_end",
          "type": "uint256"
        },
        {
          "internalType": "uint256",
          "name": "time_polling_starts",
          "type": "uint256"
        },
        {
          "internalType": "uint256",
          "name": "time_polling_ends",
          "type": "uint256"
        }
      ],
      "payable": false,
      "stateMutability": "view",
      "type": "function"
    },
    {
      "constant": true,
      "inputs": [],
      "name": "report_count",
      "outputs": [
        {
          "internalType": "uint256",
          "name": "",
          "type": "uint256"
        }
      ],
      "payable": false,
      "stateMutability": "view",
      "type": "function"
    },
    {
      "constant": true,
      "inputs": [
        {
          "internalType": "uint256",
          "name": "",
          "type": "uint256"
        }
      ],
      "name": "reports",
      "outputs": [
        {
          "internalType": "uint256",
          "name": "reportId",
          "type": "uint256"
        },
        {
          "internalType": "uint256",
          "name": "E_id",
          "type": "uint256"
        },
        {
          "internalType": "uint256",
          "name": "reported_user",
          "type": "uint256"
        },
        {
          "internalType": "string",
          "name": "reason",
          "type": "string"
        }
      ],
      "payable": false,
      "stateMutability": "view",
      "type": "function"
    },
    {
      "constant": true,
      "inputs": [],
      "name": "user_count",
      "outputs": [
        {
          "internalType": "uint256",
          "name": "",
          "type": "uint256"
        }
      ],
      "payable": false,
      "stateMutability": "view",
      "type": "function"
    },
    {
      "constant": true,
      "inputs": [
        {
          "internalType": "uint256",
          "name": "",
          "type": "uint256"
        }
      ],
      "name": "users",
      "outputs": [
        {
          "internalType": "uint256",
          "name": "id",
          "type": "uint256"
        },
        {
          "internalType": "address",
          "name": "add",
          "type": "address"
        },
        {
          "internalType": "string",
          "name": "name",
          "type": "string"
        },
        {
          "internalType": "string",
          "name": "email",
          "type": "string"
        },
        {
          "internalType": "int256",
          "name": "permissions",
          "type": "int256"
        },
        {
          "internalType": "uint256",
          "name": "cand_index",
          "type": "uint256"
        },
        {
          "internalType": "string",
          "name": "pwd",
          "type": "string"
        }
      ],
      "payable": false,
      "stateMutability": "view",
      "type": "function"
    },
    {
      "constant": true,
      "inputs": [],
      "name": "voter_list_count",
      "outputs": [
        {
          "internalType": "uint256",
          "name": "",
          "type": "uint256"
        }
      ],
      "payable": false,
      "stateMutability": "view",
      "type": "function"
    },
    {
      "constant": true,
      "inputs": [
        {
          "internalType": "uint256",
          "name": "",
          "type": "uint256"
        }
      ],
      "name": "voterlist",
      "outputs": [
        {
          "internalType": "uint256",
          "name": "id",
          "type": "uint256"
        },
        {
          "internalType": "uint256",
          "name": "E_id",
          "type": "uint256"
        },
        {
          "internalType": "bool",
          "name": "voted",
          "type": "bool"
        },
        {
          "internalType": "bool",
          "name": "reportedByUser",
          "type": "bool"
        },
        {
          "internalType": "bool",
          "name": "blacklisted_by_admin",
          "type": "bool"
        }
      ],
      "payable": false,
      "stateMutability": "view",
      "type": "function"
    },
    {
      "constant": false,
      "inputs": [
        {
          "internalType": "string",
          "name": "_E_name",
          "type": "string"
        },
        {
          "internalType": "uint256",
          "name": "_time_cand_register_end",
          "type": "uint256"
        },
        {
          "internalType": "uint256",
          "name": "_time_polling_starts",
          "type": "uint256"
        },
        {
          "internalType": "uint256",
          "name": "_time_polling_ends",
          "type": "uint256"
        }
      ],
      "name": "add_election",
      "outputs": [],
      "payable": false,
      "stateMutability": "nonpayable",
      "type": "function"
    },
    {
      "constant": false,
      "inputs": [
        {
          "internalType": "uint256",
          "name": "_E_id",
          "type": "uint256"
        },
        {
          "internalType": "string",
          "name": "_E_name",
          "type": "string"
        },
        {
          "internalType": "uint256",
          "name": "_time_cand_register_end",
          "type": "uint256"
        },
        {
          "internalType": "uint256",
          "name": "_time_polling_starts",
          "type": "uint256"
        },
        {
          "internalType": "uint256",
          "name": "_time_polling_ends",
          "type": "uint256"
        }
      ],
      "name": "edit_election",
      "outputs": [],
      "payable": false,
      "stateMutability": "nonpayable",
      "type": "function"
    },
    {
      "constant": false,
      "inputs": [
        {
          "internalType": "uint256",
          "name": "_reportedUser",
          "type": "uint256"
        },
        {
          "internalType": "uint256",
          "name": "_E_id",
          "type": "uint256"
        },
        {
          "internalType": "string",
          "name": "_reason",
          "type": "string"
        }
      ],
      "name": "report_by_user",
      "outputs": [],
      "payable": false,
      "stateMutability": "nonpayable",
      "type": "function"
    },
    {
      "constant": false,
      "inputs": [
        {
          "internalType": "uint256",
          "name": "_id",
          "type": "uint256"
        },
        {
          "internalType": "uint256",
          "name": "_E_id",
          "type": "uint256"
        }
      ],
      "name": "blacklist_by_admin",
      "outputs": [],
      "payable": false,
      "stateMutability": "nonpayable",
      "type": "function"
    },
    {
      "constant": false,
      "inputs": [
        {
          "internalType": "address",
          "name": "_add",
          "type": "address"
        },
        {
          "internalType": "string",
          "name": "_name",
          "type": "string"
        },
        {
          "internalType": "string",
          "name": "_email",
          "type": "string"
        },
        {
          "internalType": "string",
          "name": "_pwd",
          "type": "string"
        },
        {
          "internalType": "int256",
          "name": "_permissions",
          "type": "int256"
        }
      ],
      "name": "add_user",
      "outputs": [],
      "payable": false,
      "stateMutability": "nonpayable",
      "type": "function"
    },
    {
      "constant": false,
      "inputs": [
        {
          "internalType": "uint256",
          "name": "_C_id",
          "type": "uint256"
        },
        {
          "internalType": "string",
          "name": "_C_name",
          "type": "string"
        },
        {
          "internalType": "uint256",
          "name": "_E_id",
          "type": "uint256"
        }
      ],
      "name": "add_candidate",
      "outputs": [],
      "payable": false,
      "stateMutability": "nonpayable",
      "type": "function"
    },
    {
      "constant": false,
      "inputs": [
        {
          "internalType": "uint256",
          "name": "_C_id",
          "type": "uint256"
        }
      ],
      "name": "candidate_approved_by_admin",
      "outputs": [],
      "payable": false,
      "stateMutability": "nonpayable",
      "type": "function"
    },
    {
      "constant": false,
      "inputs": [
        {
          "internalType": "uint256",
          "name": "_E_id",
          "type": "uint256"
        },
        {
          "internalType": "uint256",
          "name": "_id",
          "type": "uint256"
        }
      ],
      "name": "add_voter_by_admin",
      "outputs": [],
      "payable": false,
      "stateMutability": "nonpayable",
      "type": "function"
    },
    {
      "constant": false,
      "inputs": [
        {
          "internalType": "uint256",
          "name": "_C_id",
          "type": "uint256"
        },
        {
          "internalType": "uint256",
          "name": "_E_id",
          "type": "uint256"
        },
        {
          "internalType": "uint256",
          "name": "_id",
          "type": "uint256"
        }
      ],
      "name": "vote",
      "outputs": [],
      "payable": false,
      "stateMutability": "nonpayable",
      "type": "function"
    },
    {
      "constant": false,
      "inputs": [
        {
          "internalType": "string",
          "name": "_imgHash",
          "type": "string"
        }
      ],
      "name": "uploadImage",
      "outputs": [],
      "payable": false,
      "stateMutability": "nonpayable",
      "type": "function"
    }
  ],
  "bytecode": "0x60806040526000600155600060085560006009556000600a556000600b556000600c556000600d556000600e553480156200003957600080fd5b5062000103737d8d4e73350e695e351e80705b8b6f30bacf00cc6040518060400160405280600581526020017f61646d696e0000000000000000000000000000000000000000000000000000008152506040518060400160405280601081526020017f61646d696e40636f65702e61632e696e000000000000000000000000000000008152506040518060400160405280600381526020017f31323300000000000000000000000000000000000000000000000000000000008152506002620004f660201b60201c565b620001cc732aee3162bb87a4ed18ee0abb27f6d2ce3f5a67206040518060400160405280600781526020017f766f7465722031000000000000000000000000000000000000000000000000008152506040518060400160405280601081526020017f766f7465723140676d61696c2e636f6d000000000000000000000000000000008152506040518060400160405280600381526020017f31323300000000000000000000000000000000000000000000000000000000008152506000620004f660201b60201c565b6200029573145d98ebca32ec5c25e49d76d95cec2e4ca2852e6040518060400160405280600781526020017f766f7465722032000000000000000000000000000000000000000000000000008152506040518060400160405280601081526020017f766f7465723240676d61696c2e636f6d000000000000000000000000000000008152506040518060400160405280600381526020017f31323300000000000000000000000000000000000000000000000000000000008152506000620004f660201b60201c565b6200035e737f5542cd4c3f34ad08747273e42cb8855edd23d46040518060400160405280600681526020017f63616e64203100000000000000000000000000000000000000000000000000008152506040518060400160405280600f81526020017f63616e643140676d61696c2e636f6d00000000000000000000000000000000008152506040518060400160405280600381526020017f31323300000000000000000000000000000000000000000000000000000000008152506000620004f660201b60201c565b6200042773339531797eba4492570c40cc40dfee612dd9540f6040518060400160405280600681526020017f63616e64203200000000000000000000000000000000000000000000000000008152506040518060400160405280600f81526020017f63616e643240676d61696c2e636f6d00000000000000000000000000000000008152506040518060400160405280600381526020017f31323300000000000000000000000000000000000000000000000000000000008152506000620004f660201b60201c565b620004f07312a79a0f247f3912e45a8b3edaec0fdd46c5c6606040518060400160405280600881526020017f5265706f727465640000000000000000000000000000000000000000000000008152506040518060400160405280601281526020017f7265706f7274656440676d61696c2e636f6d00000000000000000000000000008152506040518060400160405280600381526020017f31323300000000000000000000000000000000000000000000000000000000008152506000620004f660201b60201c565b62000743565b600860008154809291906001019190505550600854600260006008548152602001908152602001600020600001819055508460026000600854815260200190815260200160002060010160006101000a81548173ffffffffffffffffffffffffffffffffffffffff021916908373ffffffffffffffffffffffffffffffffffffffff160217905550836002600060085481526020019081526020016000206002019080519060200190620005ac92919062000694565b50826002600060085481526020019081526020016000206003019080519060200190620005db92919062000694565b50611388600260006008548152602001908152602001600020600501819055508060026000600854815260200190815260200160002060040181905550600854600360008773ffffffffffffffffffffffffffffffffffffffff1673ffffffffffffffffffffffffffffffffffffffff168152602001908152602001600020819055508160026000600854815260200190815260200160002060060190805190602001906200068c92919062000694565b505050505050565b828054600181600116156101000203166002900490600052602060002090601f016020900481019282601f10620006d757805160ff191683800117855562000708565b8280016001018555821562000708579182015b8281111562000707578251825591602001919060010190620006ea565b5b5090506200071791906200071b565b5090565b6200074091905b808211156200073c57600081600090555060010162000722565b5090565b90565b61272280620007536000396000f3fe608060405234801561001057600080fd5b506004361061014d5760003560e01c80635e6fef01116100c3578063bb805f691161007c578063bb805f6914610ada578063c2b4182914610af8578063c5f1ec2314610bc7578063c942adf714610caa578063e740c8a014610d66578063ec853e2814610e215761014d565b80635e6fef011461072e5780636581f8e3146107f15780637361068c1461080f57806382d389541461082d5780638a6655d614610885578063ad7c74a9146108c75761014d565b806329aff5201161011557806329aff520146103d75780633477ee2e146103f5578063365b98b2146104b15780633ed29e6e146106785780634b1c4c29146106a657806354d8d6d2146106c45761014d565b806301442d91146101525780630732583c146102215780631050a0321461023f578063141961bc146102775780631ebdeebb1461039f575b600080fd5b61021f6004803603606081101561016857600080fd5b81019080803590602001909291908035906020019064010000000081111561018f57600080fd5b8201836020820111156101a157600080fd5b803590602001918460018302840111640100000000831117156101c357600080fd5b91908080601f016020809104026020016040519081016040528093929190818152602001838380828437600081840152601f19601f82011690508083019250505050505050919291929080359060200190929190505050610efa565b005b6102296111b8565b6040518082815260200191505060405180910390f35b6102756004803603604081101561025557600080fd5b8101908080359060200190929190803590602001909291905050506111be565b005b6102a36004803603602081101561028d57600080fd5b8101908080359060200190929190505050611250565b604051808681526020018060200185815260200184815260200180602001838103835287818151815260200191508051906020019080838360005b838110156102f95780820151818401526020810190506102de565b50505050905090810190601f1680156103265780820380516001836020036101000a031916815260200191505b50838103825284818151815260200191508051906020019080838360005b8381101561035f578082015181840152602081019050610344565b50505050905090810190601f16801561038c5780820380516001836020036101000a031916815260200191505b5097505050505050505060405180910390f35b6103d5600480360360408110156103b557600080fd5b8101908080359060200190929190803590602001909291905050506113b6565b005b6103df611499565b6040518082815260200191505060405180910390f35b6104216004803603602081101561040b57600080fd5b810190808035906020019092919050505061149f565b6040518085815260200184815260200180602001838152602001828103825284818151815260200191508051906020019080838360005b83811015610473578082015181840152602081019050610458565b50505050905090810190601f1680156104a05780820380516001836020036101000a031916815260200191505b509550505050505060405180910390f35b6104dd600480360360208110156104c757600080fd5b8101908080359060200190929190505050611574565b604051808881526020018773ffffffffffffffffffffffffffffffffffffffff1673ffffffffffffffffffffffffffffffffffffffff168152602001806020018060200186815260200185815260200180602001848103845289818151815260200191508051906020019080838360005b8381101561056957808201518184015260208101905061054e565b50505050905090810190601f1680156105965780820380516001836020036101000a031916815260200191505b50848103835288818151815260200191508051906020019080838360005b838110156105cf5780820151818401526020810190506105b4565b50505050905090810190601f1680156105fc5780820380516001836020036101000a031916815260200191505b50848103825285818151815260200191508051906020019080838360005b8381101561063557808201518184015260208101905061061a565b50505050905090810190601f1680156106625780820380516001836020036101000a031916815260200191505b509a505050505050505050505060405180910390f35b6106a46004803603602081101561068e57600080fd5b810190808035906020019092919050505061179e565b005b6106ae611821565b6040518082815260200191505060405180910390f35b6106f0600480360360208110156106da57600080fd5b8101908080359060200190929190505050611827565b604051808681526020018581526020018415151515815260200183151515158152602001821515151581526020019550505050505060405180910390f35b61075a6004803603602081101561074457600080fd5b8101908080359060200190929190505050611884565b6040518086815260200180602001858152602001848152602001838152602001828103825286818151815260200191508051906020019080838360005b838110156107b2578082015181840152602081019050610797565b50505050905090810190601f1680156107df5780820380516001836020036101000a031916815260200191505b50965050505050505060405180910390f35b6107f9611952565b6040518082815260200191505060405180910390f35b610817611958565b6040518082815260200191505060405180910390f35b61086f6004803603602081101561084357600080fd5b81019080803573ffffffffffffffffffffffffffffffffffffffff16906020019092919050505061195e565b6040518082815260200191505060405180910390f35b6108c56004803603606081101561089b57600080fd5b81019080803590602001909291908035906020019092919080359060200190929190505050611976565b005b610ad8600480360360a08110156108dd57600080fd5b81019080803573ffffffffffffffffffffffffffffffffffffffff1690602001909291908035906020019064010000000081111561091a57600080fd5b82018360208201111561092c57600080fd5b8035906020019184600183028401116401000000008311171561094e57600080fd5b91908080601f016020809104026020016040519081016040528093929190818152602001838380828437600081840152601f19601f820116905080830192505050505050509192919290803590602001906401000000008111156109b157600080fd5b8201836020820111156109c357600080fd5b803590602001918460018302840111640100000000831117156109e557600080fd5b91908080601f016020809104026020016040519081016040528093929190818152602001838380828437600081840152601f19601f82011690508083019250505050505050919291929080359060200190640100000000811115610a4857600080fd5b820183602082011115610a5a57600080fd5b80359060200191846001830284011164010000000083111715610a7c57600080fd5b91908080601f016020809104026020016040519081016040528093929190818152602001838380828437600081840152601f19601f82011690508083019250505050505050919291929080359060200190929190505050611cb2565b005b610ae2611e4a565b6040518082815260200191505060405180910390f35b610bc560048036036060811015610b0e57600080fd5b81019080803590602001909291908035906020019092919080359060200190640100000000811115610b3f57600080fd5b820183602082011115610b5157600080fd5b80359060200191846001830284011164010000000083111715610b7357600080fd5b91908080601f016020809104026020016040519081016040528093929190818152602001838380828437600081840152601f19601f820116905080830192505050505050509192919290505050611e50565b005b610ca8600480360360a0811015610bdd57600080fd5b810190808035906020019092919080359060200190640100000000811115610c0457600080fd5b820183602082011115610c1657600080fd5b80359060200191846001830284011164010000000083111715610c3857600080fd5b91908080601f016020809104026020016040519081016040528093929190818152602001838380828437600081840152601f19601f820116905080830192505050505050509192919290803590602001909291908035906020019092919080359060200190929190505050611f7b565b005b610cd660048036036020811015610cc057600080fd5b8101908080359060200190929190505050611ffe565b6040518085815260200184815260200183815260200180602001828103825283818151815260200191508051906020019080838360005b83811015610d28578082015181840152602081019050610d0d565b50505050905090810190601f168015610d555780820380516001836020036101000a031916815260200191505b509550505050505060405180910390f35b610e1f60048036036020811015610d7c57600080fd5b8101908080359060200190640100000000811115610d9957600080fd5b820183602082011115610dab57600080fd5b80359060200191846001830284011164010000000083111715610dcd57600080fd5b91908080601f016020809104026020016040519081016040528093929190818152602001838380828437600081840152601f19601f8201169050808301925050505050505091929192905050506120c6565b005b610ef860048036036080811015610e3757600080fd5b8101908080359060200190640100000000811115610e5457600080fd5b820183602082011115610e6657600080fd5b80359060200191846001830284011164010000000083111715610e8857600080fd5b91908080601f016020809104026020016040519081016040528093929190818152602001838380828437600081840152601f19601f82011690508083019250505050505050919291929080359060200190929190803590602001909291908035906020019092919050505061247f565b005b600060026000858152602001908152602001600020600001541415610f87576040517f08c379a00000000000000000000000000000000000000000000000000000000081526004018080602001828103825260188152602001807f5468652055736572206973206e6f7420616e2041646d696e000000000000000081525060200191505060405180910390fd5b60008090506001600d819055505b600954600d5411611003578360056000600d54815260200190815260200160002060000154148015610fde57508160056000600d54815260200190815260200160002060010154145b15610fec5760019050611003565b600d60008154809291906001019190505550610f95565b6001811461105c576040517f08c379a00000000000000000000000000000000000000000000000000000000081526004018080602001828103825260358152602001806126946035913960400191505060405180910390fd5b600090506000600d819055505b600c54600d5410156110b957836007600d548154811061108557fe5b90600052602060002090600402016000015414156110a257600190505b600d60008154809291906001019190505550611069565b6001811415611113576040517f08c379a00000000000000000000000000000000000000000000000000000000081526004018080602001828103825260348152602001806126606034913960400191505060405180910390fd5b600760405180608001604052808681526020016000815260200185815260200184815250908060018154018082558091505090600182039060005260206000209060040201600090919290919091506000820151816000015560208201518160010155604082015181600201908051906020019061119292919061253a565b5060608201518160030155505050600c6000815480929190600101919050555050505050565b600a5481565b6000600190505b60095481101561124b578260056000838152602001908152602001600020600001541480156112095750816005600083815260200190815260200160002060010154145b1561123e5760016005600083815260200190815260200160002060020160026101000a81548160ff0219169083151502179055505b80806001019150506111c5565b505050565b6000602052806000526040600020600091509050806000015490806001018054600181600116156101000203166002900480601f0160208091040260200160405190810160405280929190818152602001828054600181600116156101000203166002900480156113025780601f106112d757610100808354040283529160200191611302565b820191906000526020600020905b8154815290600101906020018083116112e557829003601f168201915b505050505090806002015490806003015490806004018054600181600116156101000203166002900480601f0160208091040260200160405190810160405280929190818152602001828054600181600116156101000203166002900480156113ac5780601f10611381576101008083540402835291602001916113ac565b820191906000526020600020905b81548152906001019060200180831161138f57829003601f168201915b5050505050905085565b60096000815480929190600101919050555081600560006009548152602001908152602001600020600101819055508060056000600954815260200190815260200160002060000181905550600060056000600954815260200190815260200160002060020160006101000a81548160ff021916908315150217905550600060056000600954815260200190815260200160002060020160016101000a81548160ff021916908315150217905550600060056000600954815260200190815260200160002060020160026101000a81548160ff0219169083151502179055505050565b600b5481565b600781815481106114ac57fe5b9060005260206000209060040201600091509050806000015490806001015490806002018054600181600116156101000203166002900480601f0160208091040260200160405190810160405280929190818152602001828054600181600116156101000203166002900480156115645780601f1061153957610100808354040283529160200191611564565b820191906000526020600020905b81548152906001019060200180831161154757829003601f168201915b5050505050908060030154905084565b60026020528060005260406000206000915090508060000154908060010160009054906101000a900473ffffffffffffffffffffffffffffffffffffffff1690806002018054600181600116156101000203166002900480601f01602080910402602001604051908101604052809291908181526020018280546001816001161561010002031660029004801561164c5780601f106116215761010080835404028352916020019161164c565b820191906000526020600020905b81548152906001019060200180831161162f57829003601f168201915b505050505090806003018054600181600116156101000203166002900480601f0160208091040260200160405190810160405280929190818152602001828054600181600116156101000203166002900480156116ea5780601f106116bf576101008083540402835291602001916116ea565b820191906000526020600020905b8154815290600101906020018083116116cd57829003601f168201915b505050505090806004015490806005015490806006018054600181600116156101000203166002900480601f0160208091040260200160405190810160405280929190818152602001828054600181600116156101000203166002900480156117945780601f1061176957610100808354040283529160200191611794565b820191906000526020600020905b81548152906001019060200180831161177757829003601f168201915b5050505050905087565b6001600260008381526020019081526020016000206004018190555060008090505b600c5481101561181d5781600782815481106117d857fe5b90600052602060002090600402016000015414156118105780600260008481526020019081526020016000206005018190555061181d565b80806001019150506117c0565b5050565b600c5481565b60056020528060005260406000206000915090508060000154908060010154908060020160009054906101000a900460ff16908060020160019054906101000a900460ff16908060020160029054906101000a900460ff16905085565b6004602052806000526040600020600091509050806000015490806001018054600181600116156101000203166002900480601f0160208091040260200160405190810160405280929190818152602001828054600181600116156101000203166002900480156119365780601f1061190b57610100808354040283529160200191611936565b820191906000526020600020905b81548152906001019060200180831161191957829003601f168201915b5050505050908060020154908060030154908060040154905085565b60015481565b60095481565b60036020528060005260406000206000915090505481565b3373ffffffffffffffffffffffffffffffffffffffff16600260006001815260200190815260200160002060010160009054906101000a900473ffffffffffffffffffffffffffffffffffffffff1673ffffffffffffffffffffffffffffffffffffffff161415611a4f576040517f08c379a00000000000000000000000000000000000000000000000000000000081526004018080602001828103825260188152602001807f5468652055736572206973206e6f7420616e2041646d696e000000000000000081525060200191505060405180910390fd5b6001600260008581526020019081526020016000206004015414611abe576040517f08c379a00000000000000000000000000000000000000000000000000000000081526004018080602001828103825260258152602001806126c96025913960400191505060405180910390fd5b6001600d819055505b600954600d5411611bfb578060056000600d54815260200190815260200160002060000154148015611b1057508160056000600d54815260200190815260200160002060010154145b15611be45760056000600d54815260200190815260200160002060020160009054906101000a900460ff1615611bae576040517f08c379a000000000000000000000000000000000000000000000000000000000815260040180806020018281038252601d8152602001807f54686520766f746572206861736e277420766f746564206265666f726500000081525060200191505060405180910390fd5b600160056000600d54815260200190815260200160002060020160006101000a81548160ff021916908315150217905550611bfb565b600d60008154809291906001019190505550611ac7565b6000600e819055505b600c54600e541015611c8057826007600e5481548110611c2057fe5b9060005260206000209060040201600001541415611c69576007600e5481548110611c4757fe5b9060005260206000209060040201600101600081548092919060010191905055505b600e60008154809291906001019190505550611c04565b827ffff3c900d938d21d0990d786e819f29b8d05c1ef587b462b939609625b684b1660405160405180910390a2505050565b600860008154809291906001019190505550600854600260006008548152602001908152602001600020600001819055508460026000600854815260200190815260200160002060010160006101000a81548173ffffffffffffffffffffffffffffffffffffffff021916908373ffffffffffffffffffffffffffffffffffffffff160217905550836002600060085481526020019081526020016000206002019080519060200190611d669291906125ba565b50826002600060085481526020019081526020016000206003019080519060200190611d939291906125ba565b50611388600260006008548152602001908152602001600020600501819055508060026000600854815260200190815260200160002060040181905550600854600360008773ffffffffffffffffffffffffffffffffffffffff1673ffffffffffffffffffffffffffffffffffffffff16815260200190815260200160002081905550816002600060085481526020019081526020016000206006019080519060200190611e429291906125ba565b505050505050565b60085481565b6000600190505b600954811015611edd57836005600083815260200190815260200160002060000154148015611e9b5750826005600083815260200190815260200160002060010154145b15611ed05760016005600083815260200190815260200160002060020160016101000a81548160ff0219169083151502179055505b8080600101915050611e57565b600b60008154809291906001019190505550600b5460066000600b548152602001908152602001600020600001819055508260066000600b548152602001908152602001600020600101819055508360066000600b548152602001908152602001600020600201819055508160066000600b5481526020019081526020016000206003019080519060200190611f749291906125ba565b5050505050565b83600460008781526020019081526020016000206001019080519060200190611fa59291906125ba565b508260046000878152602001908152602001600020600201819055508160046000878152602001908152602001600020600301819055508060046000878152602001908152602001600020600401819055505050505050565b6006602052806000526040600020600091509050806000015490806001015490806002015490806003018054600181600116156101000203166002900480601f0160208091040260200160405190810160405280929190818152602001828054600181600116156101000203166002900480156120bc5780601f10612091576101008083540402835291602001916120bc565b820191906000526020600020905b81548152906001019060200180831161209f57829003601f168201915b5050505050905084565b60008151116120d457600080fd5b600073ffffffffffffffffffffffffffffffffffffffff163373ffffffffffffffffffffffffffffffffffffffff16141561210e57600080fd5b600160008154809291906001019190505550600080905060008060606000600294505b6008548511612299573373ffffffffffffffffffffffffffffffffffffffff166002600087815260200190815260200160002060010160009054906101000a900473ffffffffffffffffffffffffffffffffffffffff1673ffffffffffffffffffffffffffffffffffffffff16141561228c5760026000868152602001908152602001600020600001549350600260008681526020019081526020016000206002018054600181600116156101000203166002900480601f0160208091040260200160405190810160405280929190818152602001828054600181600116156101000203166002900480156122675780601f1061223c57610100808354040283529160200191612267565b820191906000526020600020905b81548152906001019060200180831161224a57829003601f168201915b5050505050915060026000868152602001908152602001600020600501549050612299565b8480600101955050612131565b60016002600086815260200190815260200160002060040154146122bc57600080fd5b6040518060a00160405280600154815260200187815260200185815260200184815260200183815250600080600154815260200190815260200160002060008201518160000155602082015181600101908051906020019061231f92919061253a565b506040820151816002015560608201518160030155608082015181600401908051906020019061235092919061253a565b509050507f0f9084ea03deb0c0d8e50c6423eb4803dc8850551bf6a37d640f36a7c1acb5cf60015487868686604051808681526020018060200185815260200184815260200180602001838103835287818151815260200191508051906020019080838360005b838110156123d25780820151818401526020810190506123b7565b50505050905090810190601f1680156123ff5780820380516001836020036101000a031916815260200191505b50838103825284818151815260200191508051906020019080838360005b8381101561243857808201518184015260208101905061241d565b50505050905090810190601f1680156124655780820380516001836020036101000a031916815260200191505b5097505050505050505060405180910390a1505050505050565b600a60008154809291906001019190505550600a5460046000600a548152602001908152602001600020600001819055508360046000600a54815260200190815260200160002060010190805190602001906124dc9291906125ba565b508260046000600a548152602001908152602001600020600201819055508160046000600a548152602001908152602001600020600301819055508060046000600a5481526020019081526020016000206004018190555050505050565b828054600181600116156101000203166002900490600052602060002090601f016020900481019282601f1061257b57805160ff19168380011785556125a9565b828001600101855582156125a9579182015b828111156125a857825182559160200191906001019061258d565b5b5090506125b6919061263a565b5090565b828054600181600116156101000203166002900490600052602060002090601f016020900481019282601f106125fb57805160ff1916838001178555612629565b82800160010185558215612629579182015b8281111561262857825182559160200191906001019061260d565b5b509050612636919061263a565b5090565b61265c91905b80821115612658576000816000905550600101612640565b5090565b9056fe52657175697265207468652063616e64696461746520776173206e6f7420612063616e6469646174652070726576696f75736c79726571756972652074686174207573657220697320766f74657220696e2073616d6520656c656374696f6e20696e697469616c6c7943616e64696461746520697320612070617274206f662063616e646964617465206c697374a265627a7a72315820ab52a7e862478406fe04d6a7b85395dc0fd380ec29902a8a3aea82f198bbd54b64736f6c63430005100032",
  "source": "// SPDX-License-Identifier: MIT\npragma solidity >=0.4.22 <0.9.0;\n\ncontract Election {\n    // Model a base USER\n    struct user {\n        // Admin has the UserId 1\n        uint256 id;\n        address add;\n        string name;\n        // string C_pwd;\n        // string profile_path;\n        string email;\n        // Permissions:- 0: Voter, 1: Candidate, 2: Admin, -1: Invalid\n        int256 permissions;\n        uint256 cand_index;\n        string pwd;\n    }\n\n    struct candidate {\n        uint256 C_id;\n        uint256 vote_count;\n        string C_name;\n        uint256 E_id;\n    }\n\n    struct election {\n        uint256 E_id;\n        string E_name;\n        // time will be stored in seconds on blockchain, and JS will handle it accordingly.\n        // Campaigning time will start just after time for candidate registration is over and\n        // will end 24 hrs prior to polling\n        uint256 time_cand_register_end;\n        uint256 time_polling_starts;\n        uint256 time_polling_ends;\n    }\n\n    struct report {\n        uint256 reportId;\n        uint256 E_id;\n        uint256 reported_user;\n        string reason;\n    }\n\n    struct voter {\n        uint256 id;\n        uint256 E_id;\n        bool voted;\n        bool reportedByUser;\n        bool blacklisted_by_admin;\n    }\n\n    struct campaign {\n        uint256 id;\n        string hash;\n        // string description;\n        uint256 c_id;\n        uint256 E_id;\n        string name;\n    }\n\n    event CampaignCreated(\n        uint256 id,\n        string hash,\n        // string description,\n        uint256 c_id,\n        uint256 E_id,\n        string name\n    );\n\n    //Fetch Campaign Data\n    mapping(uint256 => campaign) public campaigns;\n\n    // Store Campaign Count\n    uint256 public campaign_count = 0;\n\n    // Fetch Users\n    mapping(uint256 => user) public users;\n\n    //addresses mapping with ids\n    mapping(address => uint256) public addresses;\n\n    // store elections\n    mapping(uint256 => election) public elections;\n\n    mapping(uint256 => voter) public voterlist;\n\n    mapping(uint256 => report) public reports;\n\n    // Array of candidate struct to store candidates\n    candidate[] public candidates;\n\n    // voted event\n    event votedEvent(uint256 indexed _C_id);\n\n    // Store Candidates Count\n    uint256 public user_count = 0;\n    uint256 public voter_list_count = 0;\n\n    // Store Eletions Count\n    uint256 public election_count = 0;\n    uint256 public report_count = 0;\n\n    // Add elections\n    // Remember election_count is same as E_id for a particular election.\n    function add_election(\n        string memory _E_name,\n        uint256 _time_cand_register_end,\n        uint256 _time_polling_starts,\n        uint256 _time_polling_ends\n    ) public {\n        // Check in JS that the time entered are accordingly after the current time.\n        // i.e current_time < cand_time < poll_start < poll_end;\n        election_count++;\n        elections[election_count].E_id = election_count;\n        elections[election_count].E_name = _E_name;\n        elections[election_count]\n            .time_cand_register_end = _time_cand_register_end;\n        elections[election_count].time_polling_starts = _time_polling_starts;\n        elections[election_count].time_polling_ends = _time_polling_ends;\n    }\n\n    // Edit elections\n    // Remember election_count is same as E_id for a particular election.\n    function edit_election(\n        uint256 _E_id,\n        string memory _E_name,\n        uint256 _time_cand_register_end,\n        uint256 _time_polling_starts,\n        uint256 _time_polling_ends\n    ) public {\n        \n        // elections[election_count].E_id = election_count;\n        elections[_E_id].E_name = _E_name;\n        elections[_E_id].time_cand_register_end = _time_cand_register_end;\n        elections[_E_id].time_polling_starts = _time_polling_starts;\n        elections[_E_id].time_polling_ends = _time_polling_ends;\n    }\n\n    function report_by_user(\n        uint256 _reportedUser,\n        uint256 _E_id,\n        string memory _reason\n    ) public {\n        uint256 i;\n        for (i = 1; i < voter_list_count; i++) {\n            if (\n                voterlist[i].id == _reportedUser && voterlist[i].E_id == _E_id\n            ) {\n                voterlist[i].reportedByUser = true;\n            }\n        }\n        report_count++;\n        reports[report_count].reportId = report_count;\n        reports[report_count].E_id = _E_id;\n        reports[report_count].reported_user = _reportedUser;\n        reports[report_count].reason = _reason;\n    }\n\n    function blacklist_by_admin(uint256 _id, uint256 _E_id) public {\n        uint256 i;\n        for (i = 1; i < voter_list_count; i++) {\n            if (voterlist[i].id == _id && voterlist[i].E_id == _E_id) {\n                voterlist[i].blacklisted_by_admin = true;\n            }\n        }\n    }\n\n    // Add users(Voters), but first add Admin\n    // Remember user_count is same as id\n    function add_user(\n        address _add,\n        string memory _name,\n        string memory _email,\n        string memory _pwd,\n        int256 _permissions\n    ) public {\n        user_count++;\n        users[user_count].id = user_count;\n        users[user_count].add = _add;\n        users[user_count].name = _name;\n        users[user_count].email = _email;\n        users[user_count].cand_index = 5000;\n        users[user_count].permissions = _permissions;\n        addresses[_add] = user_count;\n        users[user_count].pwd = _pwd;\n    }\n\n    uint256 public candidate_count = 0;\n    uint256 i = 0;\n    uint256 j = 0;\n\n    // user has applied for the candidature in a particular election\n    function add_candidate(\n        uint256 _C_id,\n        string memory _C_name,\n        uint256 _E_id\n    ) public {\n        // Require that the user is not an Admin\n        require(users[_C_id].id != 0, \"The User is not an Admin\");\n\n        uint256 cflag = 0;\n        //Require that user was voter for that particular election as well\n        for (i = 1; i <= voter_list_count; i++) {\n            if ((voterlist[i].id == _C_id) && (voterlist[i].E_id == _E_id)) {\n                cflag = 1;\n                break;\n            }\n        }\n        require(\n            cflag == 1,\n            \"require that user is voter in same election initially\"\n        );\n\n        cflag = 0;\n        //check if the candidate was not a candidate previously\n        for (i = 0; i < candidate_count; i++) {\n            if (candidates[i].C_id == _C_id) {\n                cflag = 1;\n            }\n        }\n\n        require(\n            cflag != 1,\n            \"Require the candidate was not a candidate previously\"\n        );\n\n        // Check if we can change the user struct value\n        candidates.push(\n            candidate({\n                C_id: _C_id,\n                vote_count: 0,\n                C_name: _C_name,\n                E_id: _E_id\n            })\n        );\n        candidate_count++;\n    }\n\n    //approves candidature after candidate applies for the election\n    function candidate_approved_by_admin(uint256 _C_id) public {\n        users[_C_id].permissions = 1;\n        uint256 i = 0;\n        for (; i < candidate_count; i++) {\n            if (candidates[i].C_id == _C_id) {\n                users[_C_id].cand_index = i;\n                break;\n            }\n        }\n    }\n\n    function add_voter_by_admin(uint256 _E_id, uint256 _id) public {\n        voter_list_count++;\n        voterlist[voter_list_count].E_id = _E_id;\n        voterlist[voter_list_count].id = _id;\n        voterlist[voter_list_count].voted = false;\n        voterlist[voter_list_count].reportedByUser = false;\n        voterlist[voter_list_count].blacklisted_by_admin = false;\n    }\n\n    function vote(\n        uint256 _C_id,\n        uint256 _E_id,\n        uint256 _id\n    ) public {\n        // Require that the user is not the admin\n        require(users[1].add != msg.sender, \"The User is not an Admin\");\n\n        // Require that the _C_id is present in the candidates list\n        require(\n            users[_C_id].permissions == 1,\n            \"Candidate is a part of candidate list\"\n        );\n\n        //Election id of candidate and voter are same\n        // Require to check that the voter hasn't voted before\n        for (i = 1; i <= voter_list_count; i++) {\n            if (voterlist[i].id == _id && voterlist[i].E_id == _E_id) {\n                require(!voterlist[i].voted, \"The voter hasn't voted before\");\n                voterlist[i].voted = true;\n                break;\n            }\n        }\n\n        for (j = 0; j < candidate_count; j++) {\n            if (candidates[j].C_id == _C_id) {\n                candidates[j].vote_count++;\n            }\n        }\n\n        // trigger voted event\n        emit votedEvent(_C_id);\n    }\n\n    function uploadImage(string memory _imgHash) public {\n        // Make sure the image hash exists\n        require(bytes(_imgHash).length > 0);\n        // Make sure image description exists\n        //require(bytes(_description).length > 0);\n        // Make sure uploader address exists\n        require(msg.sender != address(0));\n\n        //Increment campaign count\n        campaign_count++;\n        uint256 i = 0;\n        uint256 u_id;\n        uint256 e_id;\n        string memory name;\n        uint256 cnd_index;\n        for (i = 2; i <= user_count; i++) {\n            if (users[i].add == msg.sender) {\n                u_id = users[i].id;\n                name = users[i].name;\n                cnd_index = users[i].cand_index;\n                break;\n            }\n        }\n\n        //that user is a candidate in the election\n        require(users[u_id].permissions == 1);\n\n        //Add image to contract\n        //passing fifth argument 1 as of now, needs to be changed\n        campaigns[campaign_count] = campaign(\n            campaign_count,\n            _imgHash,\n            u_id,\n            e_id,\n            name\n        );\n\n        //Triger the event\n        emit CampaignCreated(campaign_count, _imgHash, u_id, e_id, name);\n    }\n\n    // Constructor\n    constructor() public {\n        // Add admin first\n        add_user(\n            0x7D8d4E73350E695e351E80705B8B6F30bAcF00CC,\n            \"admin\",\n            \"admin@coep.ac.in\",\n            \"123\",\n            2\n        );\n        add_user(\n            0x2aeE3162bB87A4Ed18eE0abB27f6d2CE3F5A6720,\n            \"voter 1\",\n            \"voter1@gmail.com\",\n            \"123\",\n            0\n        );\n        add_user(\n            0x145d98eBca32EC5C25e49D76D95cEc2E4cA2852E,\n            \"voter 2\",\n            \"voter2@gmail.com\",\n            \"123\",\n            0\n        );\n        add_user(\n            0x7F5542Cd4C3f34ad08747273E42CB8855eDD23d4,\n            \"cand 1\",\n            \"cand1@gmail.com\",\n            \"123\",\n            0\n        );\n        add_user(\n            0x339531797eBa4492570C40Cc40dfee612dd9540F,\n            \"cand 2\",\n            \"cand2@gmail.com\",\n            \"123\",\n            0\n        );\n        add_user(\n            0x12a79A0f247F3912e45A8B3EdAec0fdD46C5C660,\n            \"Reported\",\n            \"reported@gmail.com\",\n            \"123\",\n            0\n        );\n        // add_voter_by_admin(1, 2);\n        // add_voter_by_admin(1, 3);\n        // add_voter_by_admin(2, 3);\n        // add_election(\"Gykhana\", 5000, 1618926000, 1618940000);\n        // add_election(\"Sec\", 5000, 6000, 7000);\n        // add_candidate(3, \"candidate 1\", 1);\n        // add_candidate(2, \"voter 1\", 1);\n        // candidate_approved_by_admin(2);\n        // candidate_approved_by_admin(3);\n        // report_by_user(2, 1, \"Fake\");\n    }\n}\n",
  "sourcePath": "/home/muskan/Desktop/OnlineElectionPortal/OnlineElectionPortal/contracts/Election.sol",
  "compiler": {
    "name": "solc",
    "version": "0.5.16+commit.9c3226ce.Emscripten.clang"
  },
  "schemaVersion": "3.3.4",
  "updatedAt": "2021-04-22T05:37:59.223Z",
  "networkType": "ethereum",
  "devdoc": {
    "methods": {}
  },
  "userdoc": {
    "methods": {}
  }
}